:100000000C9434000C9451000C9451000C94510049
:100010000C9451000C9451000C945F200C945100EE
:100020000C9451000C9451000C9415130C94510035
:100030000C9451000C94B2130C9451000C94510088
:100040000C9464140C9451000C9419220C946E229C
:100050000C94BB220C94C8000C9451000C945100D9
:100060000C947B110C94510011241FBECFEFD8E0EB
:10007000DEBFCDBF11E0A0E0B1E0E0EEFFE402C0E2
:1000800005900D92A437B107D9F713E0A4E7B1E0CA
:1000900001C01D92AB35B107E1F70E94E8220C9434
:1000A000EE270C94000017B810927E00E4E6F0E012
:1000B00080818E7F8083EAE7F0E0808180688083A2
:1000C000808187608083ECE7F0E080818F738064BB
:1000D0008083EBE7F0E08081887F80830FB60F920A
:1000E000F8948FEF80938D010F900FBEECE7F0E056
:1000F00080818F7D8083EAE7F0E080818860808363
:1001000080818065808378940895EAE7F0E09081AB
:10011000987F982B90830895ECE7F0E090819F738F
:10012000982B90830895EBE7F0E09081987F982BCF
:1001300090830895EAE7F0E08081877F8083808163
:100140008F77808308950FB60F92F894EDE8F1E071
:10015000E80FF11D8FEF80830F900FBE08950FB64B
:100160000F92F894EDE8F1E0E80FF11D10820F9086
:100170000FBE08950FB60F92F894E82FF0E0EE0F3F
:10018000FF1FEC58FE4F808191810F900FBE0895A4
:100190001F920F920FB60F9211242F933F934F93FC
:1001A0008F939F93EF93FF93E0918C01F0E0809108
:1001B000780090E0EE0FFF1FEC58FE4F9183808394
:1001C000E0918C01F0E0EE0FFF1FEC58FE4F8081B4
:1001D000918140917900342F20E0822B932B9183E1
:1001E000808380918C018F5F80938C0180918C0142
:1001F0008B3010F010928C01E0918C01F0E0E3570D
:10020000FE4F8081882369F380918C018930D0F082
:1002100090917C0080918C018B5F907F892B8093E3
:100220007C0080917A00806580937A00FF91EF9145
:100230009F918F914F913F912F910F900FBE0F90F3
:100240001F90189580917C0090918C01807F892B64
:1002500080937C00E6CFFC018181882311F080E04F
:1002600008958FEF0895FC0191818081981710F413
:1002700080E008958FEF0895FC010FB60F92F89477
:1002800086819781938382838681978195838483F6
:1002900011820F900FBE0895CF93DF93EC01862F4C
:1002A0000FB60F92F8941982688390E061E070E0D5
:1002B0000E945B269F838E838E819F81009731F4FD
:1002C00080E00F900FBEDF91CF9108958E819F81C6
:1002D0009B838A838E819F819D838C838FEF0F9078
:1002E0000FBEDF91CF910895FC0181818150818300
:1002F000A481B5818D91B583A483448155812681E4
:1003000037819081290F311D4217530709F0089555
:1003100026813781358324830895FC010FB60F921F
:10032000F894818181508183A481B5818D91B583B9
:10033000A48344815581268137819081290F311D05
:100340004217530719F00F900FBE08952681378189
:10035000358324830F900FBE0895FC0181818F5F48
:100360008183A281B3816D93B383A2832281338180
:10037000868197814081840F911D2817390709F0E4
:10038000089586819781938382830895FC010FB637
:100390000F92F89481818F5F8183A281B3816D93E5
:1003A000B383A28322813381868197814081840F28
:1003B000911D2817390719F00F900FBE08958681F7
:1003C0009781938382830F900FBE0895DC0114966A
:1003D000ED91FC91159770E0E60FF71F16968D9141
:1003E0009C9117972C91820F911D8E179F0748F4AF
:1003F0001496ED91FC9115978C91681B7109E60F8D
:10040000F71F80810895DC010FB60F92F8941496BF
:10041000ED91FC91159770E0E60FF71F16968D9100
:100420009C9117972C91820F911D8E179F0748F46E
:100430001496ED91FC9115978C91681B7109E60F4C
:10044000F71F0F900FBE80810895FC018481958174
:10045000A681B7810FB60F92F89421E020930D0189
:100460008093590190935A01A0935B01B0935C0172
:100470000F900FBE0895FC014481558166817781FC
:100480000FB60F92F89481E080930D01809159018D
:1004900090915A01A0915B01B0915C01840F951F6E
:1004A000A61FB71F8093590190935A01A0935B0137
:1004B000B0935C010F900FBE0895FC01848195817B
:1004C0000FB60F92F89421E020936301AA2797FDBD
:1004D000A095BA2F8093640190936501A093660163
:1004E000B09367010F900FBE0895FC018481958140
:1004F000A681B7810FB60F92F89422E02093630192
:100500008093640190936501A0936601B0936701A5
:100510000F900FBE0895FC0184819581A681B7815B
:100520000FB60F92F89423E0209363018093640147
:1005300090936501A0936601B09367010F900FBE81
:100540000895FC01848195810FB60F92F89424E000
:1005500020936301AA2797FDA095BA2F8093640189
:1005600090936501A0936601B09367010F900FBE51
:100570000895FC0184819581A681B7810FB60F9201
:10058000F89425E0209363018093640190936501C2
:10059000A0936601B09367010F900FBE0895FC0110
:1005A00084819581A681B7810FB60F92F89426E0D9
:1005B000209363018093640190936501A093660189
:1005C000B09367010F900FBE08950FB60F92F89485
:1005D00050911301FC01848158234BB1852F90E089
:1005E0009C013695322F2227379527954F77422B3E
:1005F0004BB92BB1880F991F880F991F880F991F2E
:1006000080742F7B822B8BB995B1852F8695837053
:100610009C7F892B85B90F900FBE0895FC018481C2
:10062000813019F01092680108958FEF809368016E
:100630000895FC0182E083830FB60F92F8948091B5
:10064000430190914401958384830F900FBE0895D8
:10065000FC0182E083830FB60F92F89480914501EC
:1006600090914601958384830F900FBE0895FC01FD
:1006700082E083830FB60F92F894809147019091A6
:100680004801958384830F900FBE0895FC0182E09A
:1006900083830FB60F92F89480913E0190913F01B1
:1006A000958384830F900FBE0895FC0182E08383BD
:1006B0000FB60F92F894809140019091410195837B
:1006C00084830F900FBE0895FC0182E083830FB6F0
:1006D0000F92F89480911401909115019583848371
:1006E0000F900FBE0895FC0182E083830FB60F9236
:1006F000F8948091160190911701958384830F904F
:100700000FBE0895FC0181E08383809113018483EF
:100710000895FC0181E08383809120018483089502
:10072000FC0181E083830FB60F92F89489B149B13F
:1007300023B150E0407450705595479555954795B5
:100740005595479530E023703070220F331F242BCE
:10075000881F8827881F282B0F900FBE2483089599
:10076000CF93DF93EC0182E08B830E943A0E9D834E
:100770008C83DF91CF910895CF93DF93EC0184E0D8
:100780008B830E945C0DDC01CB018C839D83AE8347
:10079000BF83DF91CF9108950FB60F92F89481E057
:1007A00080930D010E945C0DDC01CB018093590107
:1007B00090935A01A0935B01B0935C010F900FBE20
:1007C0000895CF93DF93FC01C481D5810FB60F92BA
:1007D000F89480910D01813019F1BE01882777FDD1
:1007E0008095982F0E94962420910E0130910F0140
:1007F00040911001509111010E94FB23DC01CB01BB
:1008000080932A0190932B01A0932C01B0932D018A
:1008100082E080930D010F900FBEDF91CF9108957C
:100820000E945C0D0E949624DC01CB018093220182
:1008300090932301A0932401B0932501CECF0F9371
:100840001F93CF93DF938C01FC0113820EC0F8013C
:10085000C381D0E081E193E00E94FE0EC00FD11F62
:100860008C83F80183818F5F838381E193E00E9411
:10087000600F882361F3DF91CF911F910F9108954D
:10088000CF93DF93EC0182E08B8387E00E94BA0074
:100890009D838C83DF91CF910895CF93DF93EC01FB
:1008A00088E08B8380E00E94BA009D838C8381E086
:1008B0000E94BA009F838E8382E00E94BA009987CB
:1008C000888783E00E94BA009B878A87DF91CF9157
:1008D0000895CF93DF93EC0182E08B830E94370E63
:1008E0009D838C83DF91CF910895CF93DF93FC019B
:1008F000C481DC2FDF7080E890E06D2F0E94C32759
:100900000FB60F92F8944AB18C2F90E09C01369567
:10091000322F2227379527954F77422B4AB92AB194
:10092000880F991F880F991F880F991F80742F7B3C
:10093000822B8AB984B1C695C3708C7FC82BC4B989
:10094000D09313010F900FBEDF91CF9108950FB692
:100950000F92F89410920D010F900FBE80E00E944C
:100960004C1408950FB60F92F894109263010E94F0
:10097000630E10924D0110924E0110924F01109291
:100980005001109251011092520110925301109295
:10099000540181E080930D011092590110925A0187
:1009A00010925B0110925C018FEF0E944C140F902B
:1009B0000FBE08950E94630E0895CF93DF93FC014C
:1009C000C481D58180E590E0BE010E94D9270FB691
:1009D0000F92F894D0931701C09316010F900FBE99
:1009E000DF91CF910895CF93DF93FC01C481D5812E
:1009F000809168018F3F61F00FB60F92F894D09309
:100A00004801C09347010F900FBEDF91CF91089529
:100A100080E390E0BE010E94D927EECFCF93DF9311
:100A2000FC01C481D581809168018F3F61F00FB6D0
:100A30000F92F894D0934601C09345010F900FBEDA
:100A4000DF91CF91089580E290E0BE010E94D92706
:100A5000EECFCF93DF93FC01C481D58180916801F3
:100A60008F3F61F00FB60F92F894D0934401C0937A
:100A700043010F900FBEDF91CF91089580E190E088
:100A8000BE010E94D927EECFFC01448155816681C9
:100A90007781DB01CA010197A109B1098038FAE128
:100AA0009F07F6E0AF07F0E0BF0728F480E990E089
:100AB0000E94D127089589E991E063E00E943D0FEB
:100AC0000895FC014481558166817781DB01CA016B
:100AD0000197A109B1098030F2EC9F07F1E0AF075F
:100AE000F0E0BF0728F480EA90E00E94D127089543
:100AF00089E991E063E00E943D0F0895CF93DF9371
:100B0000EC016C81623040F089E991E063E00E9481
:100B10003D0FDF91CF91089580EC90E00E94C327B4
:100B20000FB60F92F8948C81809321010F900FBE25
:100B3000DF91CF910895FC016481662329F080EB59
:100B400090E00E94C327089589E991E063E00E9444
:100B50003D0F0895FC01648116162CF480E090E0AE
:100B60000E94C327089589E991E063E00E943D0F48
:100B70000895CF93DF93FC01C481D581209789F03C
:100B800080E490E0BE010E94D9270FB60F92F8943E
:100B9000D0931501C09314010F900FBEDF91CF9138
:100BA000089589E991E063E00E943D0FDF91CF91C4
:100BB0000895CF93DF93FC01C481D581209781F004
:100BC000809168018F3FA1F00FB60F92F894D093F7
:100BD0004101C09340010F900FBEDF91CF91089566
:100BE00089E991E063E00E943D0FDF91CF91089584
:100BF00080E790E0BE010E94D927E6CFCF93DF9334
:100C0000FC01C481D581209781F0809168018F3FDC
:100C1000A1F00FB60F92F894D0933F01C0933E011C
:100C20000F900FBEDF91CF91089589E991E063E0C5
:100C30000E943D0FDF91CF91089580E690E0BE01C4
:100C40000E94D927E6CF89E991E00E94D50E89E27A
:100C500095E09093A7018093A60182E08093E40140
:100C60002EE035E03093A9012093A8018093E5019F
:100C700023EF34E03093AB012093AA018093E60187
:100C80002EEF35E03093AD012093AC018093E70166
:100C900029ED35E03093AF012093AE018093E80158
:100CA00029EB35E03093B1012093B0018093E90145
:100CB0002DED34E03093B3012093B2018093EA012B
:100CC00021EE33E03093B5012093B4018093EB0122
:100CD00025E232E03093B7012093B60194E090937F
:100CE000EC012BE332E03093B9012093B8019093EB
:100CF000ED012AE439E03093BB012093BA018093DF
:100D0000EE0120E23DE03093BD012093BC019093C1
:100D1000EF012AE03DE03093BF012093BE019093A4
:100D2000F0012DE532E03093C1012093C0018093A2
:100D3000F10125E732E03093C3012093C201909383
:100D4000F2012BE832E03093C5012093C401909367
:100D5000F30121EA32E03093C7012093C60180936A
:100D6000F40129EB32E03093C9012093C80190933C
:100D7000F5012FEC32E03093CB012093CA01909320
:100D8000F60125E734E03093CD012093CC0141E01A
:100D90004093F70125EE32E03093CF012093CE014E
:100DA0004093F8012AEA35E03093D1012093D00135
:100DB0004093F9012BE935E03093D3012093D20120
:100DC0004093FA0121E635E03093D5012093D40118
:100DD0009093FB012AED34E03093D7012093D601A4
:100DE0001092FC0162EB74E07093D9016093D8011A
:100DF0001092FD01ECECF3E0F093DB01E093DA01FB
:100E00001092FE01A7EAB4E0B093DD01A093DC01EB
:100E10001092FF012EE735E03093DF012093DE01D1
:100E20004093000224E435E03093E1012093E00197
:100E3000909301028EE093E09093E3018093E201AE
:100E40004093020289E193E09093040280930302AD
:100E500088E293E0909306028093050287E393E093
:100E6000909308028093070286E493E090930A022D
:100E70008093090285E593E090930C0280930B0226
:100E800084E693E090930E0280930D0283E793E053
:100E90009093100280930F0282E893E090931202E5
:100EA0008093110289E893E09093140280931302D7
:100EB00080E993E090931602809315028DE494E00C
:100EC00090931802809317028CEB93E090931A0290
:100ED0008093190289E694E090931C0280931B0290
:100EE00080EB93E090931E0280931D0280E494E0D7
:100EF0009093200280931F028FE194E0909322024E
:100F0000809321028AE69CE090932402809323023E
:100F10007093260260932502F0932802E093270243
:100F2000B0932A02A09329020895CF93DF93EC0196
:100F3000EA81EC3CB0F5E83CB8F4E43790F5E436EF
:100F400008F065C0EF3168F5F0E0EC51FE4F9B8191
:100F50008081981779F189E991E062E00E943D0F64
:100F600080E0DF91CF9108958B81882309F049C0FB
:100F70000E945C14EA818823C9F1F0E0EE0FFF1FA4
:100F8000ED56FF4F0190F081E02DCE01099589E9E2
:100F900091E00E94600F882311F580E0DF91CF91EE
:100FA000089589E991E061E00E943D0F80E0DF91C2
:100FB000CF9108950E945C14EA81882331F48E2F2A
:100FC00087508630B8F1EA31A9F1F0E0EE0FFF1F4B
:100FD000EA55FE4F0190F081E02DCE01099589E997
:100FE00091E00E94600FDF91CF910895E83C11F0ED
:100FF000EA3C19F689E991E064E00E943D0FEA813C
:10100000BCCF89E991E065E00E943D0FB1CFF0E0EF
:10101000EE0FFF1FE55CFE4F0190F081E02D09957A
:101020008B818823E1F289E991E065E00E943D0F20
:1010300080E0B4CF89E991E064E00E943D0F80E058
:10104000ADCF4F925F926F927F928F929F92AF92AD
:10105000BF92CF92DF92EF92FF920F931F93CF93A5
:10106000DF93CDB7DEB72C970FB6F894DEBF0FBE77
:10107000CDBF8C019C01442737FD4095542F298713
:101080003A874B875C870FB60F92F89480910D01D9
:10109000813009F4E9C080900E0190900F01A0907A
:1010A0001001B0901101C501B40120912A013091C5
:1010B0002B0140912C0150912D010E9422250E946C
:1010C00063242B013C0160912201709123018091E6
:1010D0002401909125010E94632469837A838B8384
:1010E0009C8389859A85AB85BC8584159505A60565
:1010F000B7050CF4A7C080913E0190913F019C017F
:1011000040E050E02D833E834F8358870F900FBE01
:101110000FB60F92F89469817A818B819C810E942D
:101120009624DC01CB018093220190932301A093AC
:101130002401B09325019801A8010E94DC256B01D0
:101140007C01C301B201A30192010E94EB25DC01E5
:10115000CB01C81AD90AEA0AFB0AC701B6012D81D8
:101160003E814F8158850E944026CA01B90122E084
:1011700030E040E050E00E94402689019A018981D8
:101180009A81AB81BC81080F191F2A1F3B1F009356
:1011900032011093330120933401309335010DE077
:1011A00011E083E080930D0169857A858B859C85AC
:1011B0000E949624A50194010E94FB23DC01CB012F
:1011C000F801818F928FA38FB48FC301B2010E9467
:1011D0009624A50194010E94FB23DC01CB01F801B8
:1011E000858F968FA78FB0A36D817E818F81988523
:1011F0000E949624A50194010E94FB23A50194015D
:101200000E94FB23DC01CB01F80181A392A3A3A3DD
:10121000B4A30F900FBE2C960FB6F894DEBF0FBE8E
:10122000CDBFDF91CF911F910F91FF90EF90DF9095
:10123000CF90BF90AF909F908F907F906F905F9076
:101240004F90089580913E0190913F01A0E0B0E061
:1012500022273327A901281B390B4A0B5B0B2D834F
:101260003E834F83588752CF0E945C0D69837A83F7
:101270008B839C830E943A0E2C01662457FC609459
:10128000762C80900E0190900F01A0901001B090EC
:10129000110127CFFC01848195810E9421080895C6
:1012A0003F924F925F926F927F928F929F92AF92F6
:1012B000BF92CF92DF92EF92FF920F931F93CF9343
:1012C000DF93CDB7DEB7A4970FB6F894DEBF0FBE9D
:1012D000CDBF6D8B7E8B8F8B988F0FB60F92F8944E
:1012E00080910D01813009F4D7C260910E01709197
:1012F0000F018091100190911101698B7A8B8B8B7A
:101300009C8B20912A0130912B0140912C0150910E
:101310002D010E9422250E94632469837A838B8396
:101320009C8360912201709123018091240190910E
:1013300025010E9463246D837E838F8398878D812E
:101340009E81AF81B8852D893E894F89588D281798
:1013500039074A075B070CF481C180913E019091E7
:101360003F01AC0160E070E049875A876B877C875A
:1013700070956095509541955F4F6F4F7F4F498FA6
:101380005A8F6B8F7C8F80914001909141019C011D
:1013900040E050E02D873E874F87588B01E0402E7C
:1013A000512C612C712C332433940F900FBE698122
:1013B0007A818B819C812D853E854F8558890E943D
:1013C000EB25DC01CB01B7FD30C269817A818B81CD
:1013D0009C819B01AC010E94EB2569A37AA38BA39E
:1013E0009CA322E030E040E050E00E94402649010A
:1013F0005A014D815E816F8178854D8F5E8F6F8F31
:1014000078A3C980DA80EB80FC8000E02D893E89DA
:101410004F89588D8D8D9E8DAF8DB8A1281B390BAE
:101420004A0B5B0B69857A858B859C850E94EB2531
:10143000680D791D8A1D9B1D0E9496240E94892596
:101440000E946324A30192010E94EB254B015C01E1
:10145000C701B601681979098A099B090E94EB2521
:10146000DC01CB01181619061A061B061CF4002312
:1014700009F422C1C501B4012D853E854F855889E7
:10148000621B730B840B950BA30192010E94EB2549
:10149000DC01CB01B7FD8FC16D857E858F85988975
:1014A0006C197D098E099F090E94EB25DC01CB0197
:1014B000B7FD71C16D857E858F8598899B01AC01D3
:1014C0000E94EB256B017C0129A13AA14BA15CA1F3
:1014D000621B730B840B950B12E0812E912CA12CB7
:1014E000B12CA50194010E944026CA01B9012985A9
:1014F0003A854B855C850E94402629013A014D8D35
:101500005E8D6F8D78A1440E551E661E771EC70135
:10151000B601A50194010E944026CA01B901298D96
:101520003A8D4B8D5C8D0E94402669017A016D8950
:101530007E898F89988DC60ED71EE81EF91E0FB6BC
:101540000F92F8946D817E818F8198850E949624F8
:10155000DC01CB018093220190932301A09324010D
:10156000B0932501409232015092330160923401D0
:1015700070923501C0923601D0923701E092380165
:10158000F09239014D895E896F89788D40933A01D7
:1015900050933B0160933C0170933D0110924201D6
:1015A0000DE011E084E080930D016D857E858F85CF
:1015B00098890E94962429893A894B895C890E94DE
:1015C000FB23DC01CB01F801818F928FA38FB48FB5
:1015D00069817A818B819C810E94962429893A892C
:1015E0004B895C890E94FB23DC01CB01F801858FCC
:1015F000968FA78FB0A369857A858B859C850E947D
:10160000962429893A894B895C890E94FB23298980
:101610003A894B895C890E94FB23DC01CB01F801EC
:1016200081A392A3A3A3B4A30F900FBEA4960FB659
:10163000F894DEBF0FBECDBFDF91CF911F910F9108
:10164000FF90EF90DF90CF90BF90AF909F908F90E2
:101650007F906F905F904F903F90089580913E01F2
:1016600090913F019C0140E050E0298F3A8F4B8FD1
:101670005C8F50954095309521953F4F4F4F5F4F70
:1016800029873A874B875C8780914001909141017F
:10169000A0E0B0E044275527BA01481B590B6A0B5C
:1016A0007B0B4D875E876F87788B44244A94542C3C
:1016B000320133243A9479CE69817A818B819C817D
:1016C0009B01AC010E94EB2522E030E040E050E0BD
:1016D0000E94402689019A01309520951095019528
:1016E0001F4F2F4F3F4FC901B801298D3A8D4B8DA8
:1016F0005C8D0E9440266D817E818F819885260FAA
:10170000371F481F591F2D8F3E8F4F8F58A32D898C
:101710003E894F89588D8D8D9E8DAF8DB8A1281B28
:10172000390B4A0B5B0B698D7A8D8B8D9C8D0E94DA
:10173000EB250E9496240E948925232D332727FD1F
:101740003095309521953F4F6901EE24D7FCE09408
:10175000FE2C0E9463249B01AC01C701B6010E94CC
:10176000EB254B015C0189859A852B853C85498D4C
:101770005A8D6B8D7C8D49875A876B877C87898FC3
:101780009A8F2B8F3C8F19A21AA21BA21CA2CC24C9
:10179000DD2476016FCE49855A856B857C857095F1
:1017A0006095509541955F4F6F4F7F4F49875A879E
:1017B0006B877C877FCE6D897E898F89988D2D8DF3
:1017C0003E8D4F8D58A1620F731F841F951F22E01D
:1017D00030E040E050E00E94402629013A0169A132
:1017E0007AA18BA19CA124E030E040E050E00E946F
:1017F000402689019A0130952095109501951F4F3B
:101800002F4F3F4FC901B80129853A854B855C852B
:101810000E944026420E531E641E751E7301620113
:101820008D869E86AF86B88A8ACE69817A818B81C1
:101830009C819B01AC010E94EB2522E030E040E05E
:1018400050E00E94402689019A013095209510951C
:1018500001951F4F2F4F3F4FC901B80129853A8588
:101860004B855C850E9440266D817E818F819885A5
:10187000260F371F481F591F2D8F3E8F4F8F58A39C
:1018800088249924540119A21AA21BA21CA20FEFAA
:10189000CC24DD247601BACD0E943A0E9C01442767
:1018A00037FD4095542F29833A834B835C830E94F4
:1018B0005C0D6D837E838F83988740910E015091DC
:1018C0000F016091100170911101498B5A8B6B8B44
:1018D0007C8B35CDCF92DF92EF92FF920FB60F92B5
:1018E000F8940F900FBE20916301233009F468C073
:1018F000243020F1253009F44EC0253008F440C0D2
:10190000263081F4C0906401D0906501E0906601BA
:10191000F09067010E945C0D6C0D7D1D8E1D9F1D5A
:101920000E9450090FB60F92F894109263010F9025
:101930000FBEFF90EF90DF90CF9008952130B1F16E
:101940002230B8F3409164015091650160916601C5
:1019500070916701FC0144835583668377830FB6DA
:101960000F92F89481E080930D01409359015093B8
:101970005A0160935B0170935C010F900FBED2CF50
:101980002091640130916501FC0135832483C901F4
:101990000E942108C7CF6091640170916501809118
:1019A0006601909167010E945009BCCF20916401AB
:1019B00030916501FC01358324830E94E103B2CF9D
:1019C00040916401509165016091660170916701D9
:1019D000FC0144835583668377830FB60F92F89496
:1019E00081E080930D018091590190915A01A0915D
:1019F0005B01B0915C01840F951FA61FB71F8093F8
:101A0000590190935A01A0935B01B0935C010F9030
:101A10000FBE88CFCF92DF92EF92FF92FC01C4807D
:101A2000D580E680F7800E945C0D6C0D7D1D8E1DBB
:101A30009F1D0E945009FF90EF90DF90CF90089576
:101A4000FC0164817581868197810E945009089507
:101A50000F931F930FB60F92F89400913B021091D1
:101A60003C0220913D0230913E020F900FBEB80122
:101A7000C9011F910F910895CF93DF932A98000019
:101A80000000000000000000000000000000000056
:101A9000000080E00E94DC1FD82F80E00E94DC1F45
:101AA000C82F2A9ACE01929582958F7089279F70B0
:101AB0008927DF91CF9108950F931F930FB60F924F
:101AC000F894809131029091320290933002809389
:101AD0002F020E943C0D909332028093310280913C
:101AE00031029091320240912F0250913002A0E0D9
:101AF000B0E060E070E0841B950BA60BB70B803361
:101B000028EF92072FEFA2072FEFB2079CF48091E6
:101B10002B0290912C02A0912D02B0912E020196E1
:101B2000A11DB11D80932B0290932C02A0932D0236
:101B3000B0932E02809131029091320240912F0297
:101B400050913002A0E0B0E060E070E0841B950BA3
:101B5000A60BB70B813D27E0920720E0A20720E00B
:101B6000B2079CF080912B0290912C02A0912D0243
:101B7000B0912E020197A109B10980932B02909395
:101B80002C02A0932D02B0932E0200912B021091F3
:101B90002C0220912D0230912E02809131029091E1
:101BA00032024091370250913802609139027091AF
:101BB0003A02ECE0000F111F221F331FEA95D1F704
:101BC000A0E0B0E0080F191F2A1F3B1F041B150BD4
:101BD000260B370B00933B0210933C0220933D02EF
:101BE00030933E020F900FBEB801C9011F910F91B3
:101BF00008950E94C51F0E943C0D0E943C0D0FB627
:101C00000F92F894AC0160E070E04093370250937B
:101C100038026093390270933A02909332028093B3
:101C200031029093300280932F0210924002109262
:101C30003F0210923B0210923C0210923D02109221
:101C40003E0210923302109234021092350210922A
:101C5000360281E08093000110922B0210922C0238
:101C600010922D0210922E020F900FBE08950E9426
:101C70003C0D08950FB60F92F89460913F02709159
:101C800040020F900FBE882777FD8095982F0E9405
:101C9000962420910E0130910F0140911001509136
:101CA00011010E94222520E030E040EF53E40E9421
:101CB000FB23462F572F682F792FCB01BA010E94A3
:101CC0006324CB0108950E943C0DAC0160E070E0FC
:101CD0000FB60F92F89440933702509338026093F6
:101CE000390270933A0290933202809331029093BA
:101CF000300280932F021092400210923F02109205
:101D00003B0210923C0210923D0210923E02109251
:101D1000330210923402109235021092360281E0A2
:101D20008093000110922B0210922C0210922D022F
:101D300010922E020F900FBE0895809100018F5FC8
:101D40008093000108950FB60F92F89480913B02A2
:101D500090913C02A0913D02B0913E0280302CEF68
:101D600092072FEFA2072FE7B20724F480E00F902D
:101D70000FBE08958FEFFBCF0FB60F92F8948091AE
:101D80003B0290913C02A0913D02B0913E02813015
:101D900024E0920720E0A20720E8B20724F080E0C8
:101DA0000F900FBE08958FEFFBCFFC010FB60F927F
:101DB000F8941082059692838183948383830F9095
:101DC0000FBE0895FC01808181508083A381B4817E
:101DD0008C91238134812F5F3F4F34832383438150
:101DE00054819F01235F3F4F4217530709F0089525
:101DF0009F012B5F3F4F348323830895FC010FB66F
:101E00000F92F894808181508083A381B4818C915A
:101E1000238134812F5F3F4F348323834381548157
:101E20009F01235F3F4F4217530719F00F900FBEDA
:101E300008959F012B5F3F4F348323830F900FBE84
:101E40000895FC018081883018F480818F5F808341
:101E5000A181B2816C938181928101969283818369
:101E600021813281CF010D962817390709F0089595
:101E7000CF010596928381830895FC010FB60F92DE
:101E8000F8948081883018F480818F5F8083A181ED
:101E9000B2816C93818192810196928381832181A9
:101EA0003281CF010D962817390719F00F900FBE18
:101EB0000895CF010596928381830F900FBE0895F8
:101EC000FC018081882311F080E008958FEF089550
:101ED000809153028093BB00ECEBF0E080818F7027
:101EE0008068808308958091B6029091BB00E7EBF3
:101EF000F2E0E80FF11D90838F5F8093B602ECEB68
:101F0000F0E080818F70806D808310924E02089582
:101F100085E080934E021092B602ECEBF0E08081F7
:101F20008F70806C808308958091BC008F70806C6E
:101F30008093BC00E0914F02F0915002309729F05D
:101F40008091B60267EB72E0099510924E020895F7
:101F5000ECEBF0E080818F70806C808310924E02F9
:101F60000895089581E492E064E00E943D0F089591
:101F7000ECEBF0E080818F708068808381E492E0F8
:101F800063E00E943D0F10924E020895ECEBF0E0EA
:101F900080818F70806D808381E492E062E00E9496
:101FA0003D0F10924E020895ECEBF0E080818F70AF
:101FB000806D808381E492E061E00E943D0F109289
:101FC0004E02089584E080934E02E0915102F09118
:101FD0005202309731F080E264E572E00995809317
:101FE0007502809154028093BB0081E0809374025B
:101FF00080917502823038F48091BC008F708068C7
:102000008093BC0008958091BC008F70806C809399
:10201000BC00089580917402E82FF0E0EC5AFD4F67
:1020200090819093BB008F5F8093740290917502B2
:10203000891738F08091BC008F7080688093BC0055
:1020400008958091BC008F70806C8093BC000895CF
:102050008091740290917502891748F08091BC00BC
:102060008F70806D8093BC0010924E020895E82F0F
:10207000F0E0EC5AFD4F90818F5F80937402909353
:10208000BB008091BC008F7080688093BC00089575
:10209000ECEBF0E080818F70806880830895809100
:1020A000B6029091BB00E82FF0E0E954FD4F908319
:1020B0008F5F8093B602803238F08091BC008F70C1
:1020C00080688093BC0008958091BC008F70806C04
:1020D0008093BC000895ECEBF0E080818F70806805
:1020E000808308958091B6029091BB00E7EBF2E007
:1020F000E80FF11D90838F5F8093B602ECEBF0E068
:1021000080818F70806880830895BC01019721E0F1
:102110008039920710F080E0089580E29EE40E94EA
:102120000A26603128F070E060517040759567951F
:102130006093B8008FEF0895181614F080E00895AA
:1021400090E0880F991F21E0662309F420E0822B9C
:102150008093BA008FEF089590930201809301015C
:1021600008959093040180930301089590930601CC
:102170008093050108959093500280934F02089533
:1021800090935202809351020895ECEBF0E080812D
:102190008F70806A80830895ECEBF0E080818F700F
:1021A000806D808308958091BC0087FFFCCF0895E7
:1021B0008093BB00ECEBF0E080818F7080688083BF
:1021C0000895882339F48091BC008F7080688093D3
:1021D000BC0008958091BC008F70806C8093BC001F
:1021E0000895EF92FF920F931F93CF93DF9300D048
:1021F000CDB7DEB7E82E162F042FF52ECE010196AF
:102200000E9414200AC06091010170910201CE0168
:1022100001960E942120882389F580914E0288230F
:1022200091F782E080934E028E2D90E0880F991FE7
:1022300080935302112371F0A02FBF2DE4E5F2E04B
:10224000812F815090E08B5A9D4F2D912193E8175B
:10225000F907D9F710927402109375028091BC00AF
:102260008F70806A8093BC008FEF0F900F90DF918A
:10227000CF911F910F91FF90EF90089581E492E02C
:1022800065E00E943D0F80E0F0CFCF93DF9300D058
:10229000CDB7DEB70E94F110882331F480E00F90B3
:1022A0000F90DF91CF910895CE0101960E941420E6
:1022B0000AC06091030170910401CE0101960E9451
:1022C0002120882369F480914E02882391F781E4CC
:1022D00092E00E94600F0F900F90DF91CF910895D0
:1022E00081E492E066E00E943D0F80E00F900F9045
:1022F000DF91CF9108951F920F920FB60F92112484
:102300002F933F934F935F936F937F938F939F93FD
:10231000AF93BF93EF93FF93E091B900E695E695F5
:10232000E695F0E0EE0FFF1FEA58FD4F0190F081B7
:10233000E02D0995FF91EF91BF91AF919F918F9102
:102340007F916F915F914F913F912F910F900FBEB1
:102350000F901F90189586EC9FE0909377028093E2
:10236000760288E69FE090937902809378029093BA
:102370007B0280937A0228E230E130937D02209341
:102380007C0284ED9FE090937F0280937E023093E5
:10239000810220938002909383028093820228EB33
:1023A0003FE030938502209384022BE630E13093A6
:1023B000870220938602909389028093880282E7A5
:1023C00090E190938B0280938A0283E79FE0909341
:1023D0008D0280938C0288E89FE090938F02809317
:1023E0008E02909391028093900290939302809337
:1023F000920290939502809394022FE430E13093FF
:1024000097022093960288E490E19093990280933A
:10241000980230939B0220939A0290939D0280939E
:102420009C0284E99FE090939F0280939E0282EE3B
:102430009FE09093A1028093A0029093A3028093C7
:10244000A2028AE090E19093A5028093A40288EA18
:102450009FE09093A7028093A6029093A902809395
:10246000A80281EB9FE09093AB028093AA02909325
:10247000AD028093AC029093AF028093AE02909332
:10248000B1028093B0029093B3028093B20282EBC8
:102490009FE09093B5028093B4020895449A459AC0
:1024A0001092500210924F0210925202109251025A
:1024B0000E94AB1181E492E00E94D50E0E94E21FBF
:1024C0008CE58093B800ECEBF0E080818460808341
:1024D00010924E028081816080838081806480833D
:1024E000789408950FB60F92F894E1E8F0E09081A7
:1024F000987F892B80830F900FBE08950FB60F929F
:10250000F8948093DE022098289A813041F08091DF
:1025100081008F7B809381000F900FBE0895809182
:1025200081008064809381000F900FBE08950FB6E4
:102530000F92F8949093E0028093DF020F900FBE09
:1025400008950FB60F92F8949093E2028093E102FF
:102550000F900FBE08950FB60F92F8949093E40277
:102560008093E3020F900FBE08950FB60F92F89478
:1025700010928500109284001092870010928600BD
:102580000F900FBEB59AEFE6F0E080818062808305
:10259000089581E00E947E120FB60F92F894E1E850
:1025A000F0E08081887F816080830F900FBE109261
:1025B0008000E1E8F0E08081806880830E94B512AD
:1025C00078940895EFE6F0E080818F7D8083B59A5E
:1025D0000FB60F92F894109285001092840010921A
:1025E0008700109286000F900FBE0895EFE6F0E08E
:1025F0008081816080830895EFE6F0E080818E7FA6
:10260000808308950FB60F92F8942091DC023091E8
:10261000DD02FC01318320830F900FBE21153105AF
:1026200011F480E008958FEF08951F920F920FB676
:102630000F9211242F933F934F935F936F937F9348
:102640008F939F93AF93BF93EF93FF932091860057
:102650003091870083B14091DE0290E081709070EC
:1026600050E08417950709F45EC03093D902209397
:10267000D8028091D8029091D9022091DA0230914B
:10268000DB02821B930B9093DD028093DC0280912E
:10269000D70281508093D7028091DE02813009F405
:1026A00055C0809181008F7B8093810010928500BE
:1026B000109284008091D7028823F1F01092D70203
:1026C0001092DD021092DC02E091E302F091E4024C
:1026D000309709F00995FF91EF91BF91AF919F91CC
:1026E0008F917F916F915F914F913F912F910F90BB
:1026F0000FBE0F901F9018952091DA023091DB02E7
:102700008091D8029091D90282179307B8F2E09194
:10271000DF02F091E0023097F1F28091DC029091BB
:10272000DD020995D8CF3093DB022093DA02809145
:10273000DE02813089F08091810080648093810085
:102740008091D7028F5F8093D702C5CF809181009F
:10275000806480938100AACF809181008F7B8093D9
:102760008100EECF1F920F920FB60F9211242F937C
:102770003F934F935F936F937F938F939F93AF9309
:10278000BF93EF93FF93E091E102F091E202309763
:1027900009F00995FF91EF91BF91AF919F918F91B2
:1027A0007F916F915F914F913F912F910F900FBE4D
:1027B0000F901F9018959093E9028093E802089576
:1027C00080E896E9A8E9B5E480930E0190930F01A3
:1027D000A0931001B093110182E085BDE1EBF0E020
:1027E000808385B5877F85BD84B58D7F84BD84B5A5
:1027F000836084BD84B5806184BD84B5806284BDFE
:1028000084B58F7384BD8081877F8083E0EBF0E0A7
:1028100080818D7F808380818360808380818061DF
:10282000808380818062808380818F73808318BCE5
:102830001092B400EEE6F0E08081816080837894AD
:10284000E4E6F0E080818F7980830895DC01CB019C
:10285000AC01BD01B7FD18C0452F562F672F772754
:102860004F3F51056105710529F020F04FEF50E011
:1028700060E070E0B7FD04C048BD1092B400089558
:1028800018BC4093B400089544275527BA01481B4B
:10289000590B6A0B7B0BE0CF882361F45C9818BC62
:1028A0001092B4000FB60F92F8948093E5020F9047
:1028B0000FBE08955C9AF3CF0FB60F92F8948091F3
:1028C000E5020F900FBE08951F920F920FB60F9260
:1028D00011242F933F934F935F936F937F938F9325
:1028E0009F93AF93BF93EF93FF938091E6029091F4
:1028F000E70201969093E7028093E6028230910509
:1029000048F0E091E802F091E90209951092E7029F
:102910001092E602FF91EF91BF91AF919F918F913D
:102920007F916F915F914F913F912F910F900FBECB
:102930000F901F9018954F925F926F927F928F9297
:102940009F92AF92BF92CF92DF92EF92FF920F933E
:102950001F93CF93DF9300D000D0CDB7DEB78C01AB
:10296000FC0186819781A085B18582879387A487A2
:10297000B587068CF78DE02D09956B017C01F80178
:1029800086899789A08DB18DC81AD90AEA0AFB0AEF
:10299000C682D782E086F18686849784A088B18833
:1029A0008C0C9D1CAE1CBF1C86869786A08AB18AA3
:1029B00082899389A489B58988159905AA05BB05DB
:1029C00034F486879787A08BB18B4C015D01B0955D
:1029D000A095909581959F4FAF4FBF4F8816990650
:1029E000AA06BB063CF4F80186879787A08BB18BBB
:1029F0004C015D01D8012D913C9140E050E0C701B0
:102A0000B6010E94EB252B013C01F80184819581E0
:102A10009C0140E050E029833A834B835C838285AC
:102A20009385A485B585A7019601281B390B4A0B10
:102A30005B0B69817A818B819C810E94EB25DC0193
:102A4000CB01480E591E6A1E7B1ED80112962D918D
:102A50003C91139740E050E0C501B4010E94EB2582
:102A6000DC01CB01892F9A2FAB2FBB27A7FDBA958D
:102A7000480E591E6A1E7B1ED8015C96ED91FC9192
:102A80005D97C301B20109950F900F900F900F90C1
:102A9000DF91CF911F910F91FF90EF90DF90CF903A
:102AA000BF90AF909F908F907F906F905F904F906E
:102AB0000895FF920F931F93CF93DF93182FEB018D
:102AC000042F882351F584E397E19D838C8380E86C
:102AD00097E19F838E8388EB97E1998788878DEBB9
:102AE00097E19B878A8780910701909108019B83DA
:102AF0008A83842F64E670E00E941817FF24FA94FA
:102B000019830883E885F9858FEF09958F2DDF916B
:102B1000CF911F910F91FF900895843010F58EE3AF
:102B200099E19D838C8381E799E19F838E8387E47C
:102B30009AE1998788878AE49AE19B878A878091BE
:102B40000A0190910B019B838A838981642F20E87D
:102B500035E240E050E00E941319882311F4FF246D
:102B6000CFCFFF24FA94CCCFCF92DF92EF92FF9297
:102B70000F931F93CF93DF9300D0CDB7DEB77C01C7
:102B80008B0122E0C22ED12CC60ED71EDB0113967C
:102B90003C9113973E5F09F442C0F60190E080E05B
:102BA000219192278F5F8317D8F3F801948B82814C
:102BB000D7011496ED91FC911597883C80F4C801DB
:102BC0000995882379F480E00F900F90DF91CF91E1
:102BD0001F910F91FF90EF90DF90CF900895C80163
:102BE0000995F2CFCE0101960E941420D7011696C6
:102BF000ED91FC911797C8010995882391F4CE01B6
:102C0000019668EC70E00E942120882379F3F70197
:102C10008281938161E20E943D0F80E0D5CF90E0F8
:102C2000C4CFF801448933813E5FB1F0F60190E0F2
:102C300080E0219192278F5F8317D8F3491751F0D5
:102C4000D70112968D919C91139762E20E943D0FDD
:102C500080E0BACF8FEFB8CF90E0F0CF0F931F9303
:102C6000CF93DF938C01EB01DC011696ED91FC9183
:102C70001797CB0109958823D9F04C89FE0132962C
:102C80003B813E5F90E031F080E0219192278F5FA1
:102C90008317D8F3491791F0F8018281938162E29A
:102CA0000E943D0F80E0DF91CF911F910F91089519
:102CB00080E0DF91CF911F910F9108958FEFDF9109
:102CC000CF911F910F910895DF92EF92FF920F9392
:102CD0001F93CF93DF937C01EB018A019881D70189
:102CE0008C91981709F042C0898188838C918983DF
:102CF0008A818436C8F101151105D1F0C8010E94FE
:102D0000600F8823A9F48AEF8A831B82DD2401C027
:102D1000DB80C8010E94FE0EFE01ED0DF11D8483D3
:102D20008B818F5F8B83C8010E94600F882381F3A2
:102D3000FE0132963B813E5F90E031F080E02191D0
:102D400092278F5F8317D8F39C8BD7011496ED9150
:102D5000FC911597CE010995DF91CF911F910F91AD
:102D6000FF90EF90DF9008951B82C5CF8FEFF4CFD7
:102D7000662349F0FC0180E090E0219182279F5F6B
:102D80009617D9F7089580E008951F93CF93DF93A6
:102D9000182FEB018091EA028F3F09F441C088812E
:102DA0008093EB0289818093EC028A818093ED020B
:102DB0008B818093EE022091EE0230E02B5F3F4F3B
:102DC000812F90E028173907E9F424968091EE02CC
:102DD000882371F0DE0180E0E82FF0E09D91E5515D
:102DE000FD4F9483ED018F5F9091EE028917A0F360
:102DF00088818093FF028FEF8093EA02DF91CF9169
:102E00001F910895809107019091080162E10E944D
:102E1000210F8FEF8093EA02DF91CF911F910895E8
:102E2000809107019091080161E10E94210FB7CFC5
:102E30000F931F93CF93DF930F92CDB7DEB78B0124
:102E400089830E944E12898161E00E949C10C80112
:102E50000E94851085EC96E10E94BB100F90DF91D7
:102E6000CF911F910F9108950F931F93CF93DF93ED
:102E7000CDB7DEB765970FB6F894DEBF0FBECDBFF6
:102E8000AC01DC018C91898311969C9111979A83F6
:102E900012969C9112979B8313966C9113976C8357
:102EA000662351F1FA0134968E010B5F1F4FD80152
:102EB0009E012A5F3F4F962F9150290F311D91910E
:102EC0009D93A217B307D9F7F801E60FF11DDA01B8
:102ED00054969C9190836B5FAE014F5F5F4F0E9451
:102EE000451165960FB6F894DEBF0FBECDBFDF91DA
:102EF000CF911F910F9108958E010B5F1F4FE4CF6B
:102F0000CF93DF93EC0180910701909108010E941B
:102F1000600F882321F08091EA02882321F480E069
:102F2000DF91CF9108950FB60F92F8948091EB0244
:102F300088838091EC0289838091ED028A833091AD
:102F4000EE023B838091FF028C8B332359F0249651
:102F500080E090E0FC01E551FD4F2481299301962A
:102F60008317C0F31092EA020F900FBE8FEFD8CFF5
:102F70008095880F8093BD00089528EE33E040E0EF
:102F800050E00E941E26C9010E94851008951092EB
:102F9000010310920203089510920103109202039C
:102FA0000895809101038823D9F580910203982F19
:102FB0009F5F909302038A3008F408951092630192
:102FC0000E94630E10924D0110924E0110924F011B
:102FD000109250011092510110925201109253011F
:102FE000109254010E945C0DDC01CB0180935901C9
:102FF00090935A01A0935B01B0935C018FEF0E9404
:103000004C140E94370E90930A038093090381E0C9
:1030100080930D018FEF80930103109202030895B6
:103020008FEF8093000308950E94C91282E00E94EE
:1030300072120FB60F92F89410920A0310920903BD
:1030400010920803109207031092020310920103DA
:10305000109200030F900FBE81ED97E10E9497122E
:1030600087EC97E10E94AB128CEC97E10E94A112D1
:103070000895CF93DF9300D0CDB7DEB780910103E1
:10308000882321F080910003882329F40F900F906A
:10309000DF91CF91089510920003CE0101960E9416
:1030A0000213882399F369817A81CB01815B944073
:1030B00023E18B3E920750F780E090E00E94942439
:1030C00027E137EB41E55FE30E9422250E9463245C
:1030D0008091090390910A0328E08130920708F457
:1030E00077C08091090390910A03681B790B6050A7
:1030F0007C4F809105039091060390930403809385
:103100000303809107039091080390930603809333
:1031100005038091070390910803860F971F9595EB
:10312000879590930803809307036091070370913C
:1031300008032091050330910603809107039091C5
:1031400008034091030350910403621B730B77FD46
:103150004CC0841B950B97FD44C086179707DCF085
:1031600060910303709104032091050330910603DD
:103170008091070390910803409103035091040349
:10318000621B730B77FD3BC0841B950B97FD33C00F
:103190008617970794F48091070390910803209174
:1031A000030330910403820F931F97FD22C095956E
:1031B00087959093060380930503609105037091B2
:1031C0000603882777FD8095982F0E9450095ECFCF
:1031D0008091090390910A03681B790B60507C4031
:1031E00088CF909581959F4FB8CF709561957F4F0F
:1031F000B0CF0196DCCF909581959F4FC9CF709548
:1032000061957F4FC1CF0FB60F92F89480930C0356
:103210000F900FBE08950FB60F92F8940F900FBE47
:1032200080910C030895CF92DF92EF92FF92CF939B
:10323000C62F69017A018230D9F0C0930B030E9436
:103240003521882399F0CFEFC701B6010E9497205E
:10325000882309F4C0E08DE093E00E9414208C2FB5
:10326000CF91FF90EF90DF90CF900895C0E0ECCF2A
:103270008BE290E062E00E94E120DFCFCF93DF930A
:10328000EC0185E50E948A21882321F480E0DF910A
:10329000CF9108958AEA0E948A218823B9F3888110
:1032A0000E948A21882391F389810E948A218823A0
:1032B00069F38A810E948A21882341F38B810E94CD
:1032C0008A21882319F3CE0104966B810E94FB2189
:1032D0008823E1F28C890E948A218823C1F28FEF32
:1032E000D6CF0F931F93CF93DF930F92CDB7DEB757
:1032F0008C010FB60F92F8940F900FBE80910C03C3
:10330000882391F5CE0101960E94CE21882339F4BD
:1033100080E00F90DF91CF911F910F9108958DE084
:1033200093E00E94142080910F03833009F499C028
:10333000843008F436C0853009F46AC0853008F45A
:103340004CC0863009F478C0873011F78981F801C4
:10335000848B10920F030FB60F92F89410920C0307
:103360000F900FBE8FEFD5CF8DE093E062E370E05A
:103370000E942120882331F210920F0380910A01CC
:1033800090910B0161E10E943D0F8DE093E00E945E
:1033900014200FB60F92F89410920C030F900FBEEA
:1033A000B1CF813009F440C0823008F19981809119
:1033B0000B03892720910C01822309F45AC0992319
:1033C00009F457C010920F030FB60F92F8941092A1
:1033D0000C030F900FBE80E09CCF8981D80112961C
:1033E0008C93129785E080930F0380E092CF8981C0
:1033F000853509F08DCF81E080930F030FB60F92D2
:10340000F8948FEF80930C030F900FBE80E081CF74
:103410008981F801838380931003882389F186E0F2
:1034200080930F0380E075CF89818A3A71F180E043
:1034300080930F0380E06DCF80911003D801139625
:10344000EC911397F0E0E81BF109E00FF11F99816F
:103450009483815080931003882309F059CF87E02B
:10346000E7CF8981F801818384E080930F0380E0B6
:1034700050CF83E080930F03D8019C9380E049CF25
:1034800087E080930F0380E044CF82E0D1CF809328
:103490000C0108950E94972008954F925F926F92B9
:1034A0007F928F929F92AF92BF92CF92DF92EF92D4
:1034B000FF92CF93DF9300D000D0CDB7DEB70E944C
:1034C0009D0E80910D01882379F0833001F18430C5
:1034D00009F49EC0823009F467C0E0915D01F0916B
:1034E0005E0183E491E009950F900F900F900F908B
:1034F000DF91CF91FF90EF90DF90CF90BF90AF9092
:103500009F908F907F906F905F904F900895409024
:103510002A0150902B0160902C0170902D01C090D9
:103520000E01D0900F01E0901001F09011018090F9
:10353000260190902701A0902801B0902901C30195
:10354000B201A70196010E9422250E94632469838B
:103550007A838B839C83C701B601A50194010E94E5
:1035600022250E946324DC01CB0129813A814B8111
:103570005C81281B390B4A0B5B0BDA01C9010196F0
:10358000A11DB11D83309105A105B10508F086C0CC
:1035900082E080930D0180922A0190922B01A092EB
:1035A0002C01B0922D0199CF6091220170912301DD
:1035B000809124019091250120912A0130912B01C5
:1035C00040912C0150912D010E9497239B01F82FCF
:1035D000E92F462F532F682F792F409322015093C4
:1035E00023016093240170932501822F932FAF2F25
:1035F000BE2FBC01CD010E946324DC01CB0180936E
:10360000590190935A01A0935B01B0935C0165CF7F
:1036100080914201813009F4C5C0813008F068C052
:1036200080902A0190902B01A0902C01B0902D0148
:10363000C0900E01D0900F01E0901001F0901101A8
:10364000C501B401A70196010E9422250E946324AE
:103650002B013C01C701B6012091260130912701C1
:1036600040912801509129010E9422250E94632443
:10367000DC01CB01481A590A6A0A7B0A0894411CEA
:10368000511C611C711C33E0431651046104710428
:1036900008F07BC081E0809342011FCFC301B201DB
:1036A00020912E0130912F01409130015091310134
:1036B0000E9497239B01F82FE92F462F532F682F45
:1036C000792F40932A0150932B0160932C01709322
:1036D0002D01822F932FAF2FBE2FBC01CD01209142
:1036E00022013091230140912401509125016CCF9A
:1036F000823009F0F2CE60912A0170912B01809105
:103700002C0190912D0120910E0130910F014091DB
:103710001001509111010E9422250E946324DC01B6
:10372000CB010196A11DB11D83309105A105B10505
:1037300008F471C00E94280DDC01CB01C0903A0151
:10374000D0903B01E0903C01F0903D018C199D0927
:10375000AE09BF09B7FD57C082309105A105B1057B
:103760000CF461C060912A0170912B0180912C01B1
:1037700090912D0120912E0130912F014091300127
:10378000509131010E94962395CFC501B40120913B
:103790002E0130912F0140913001509131010E9452
:1037A000972388CF0E94280DDC01CB014091360180
:1037B000509137016091380170913901841B950B4C
:1037C000A60BB70BB7FD17C082309105A105B10557
:1037D0000CF443C060912201709123018091240177
:1037E00090912501209126013091270140912801D7
:1037F00050912901E9CEB095A095909581959F4F64
:10380000AF4FBF4FE1CFB095A095909581959F4F59
:10381000AF4FBF4FA1CFC0903A01D0903B01E09095
:103820003C01F0903D01C701B6010E949624DC01E5
:10383000CB018093220190932301A0932401B093A4
:103840002501C0925901D0925A01E0925B01F09299
:103850005C0181E080930D0140CE82E080934201C3
:103860003CCE84E084B985B18E6385B917B888B140
:10387000806388B98CE38AB980EC8BB9089580E0C5
:1038800090E00E94AF278093120180E190E00E94B7
:10389000BD27909344018093430180E290E00E9411
:1038A000BD27909346018093450180E390E00E94FC
:1038B000BD27909348018093470180E490E00E94E7
:1038C000BD27909315018093140180E590E00E943C
:1038D000BD27909317018093160180E890E00E9425
:1038E000AF278093130180EA90E00E94B727DC01A4
:1038F000CB018093180190931901A0931A01B09302
:103900001B0180E990E00E94B727DC01CB01809386
:103910001C0190931D01A0931E01B0931F0180E62E
:1039200090E00E94BD2790933F0180933E0180E785
:1039300090E00E94BD27909341018093400180EB6D
:1039400090E00E94AF278093200180EC90E00E94DD
:10395000AF2780932101089584E084B985B18E63F7
:1039600085B917B888B1806388B98CE38AB980ECCF
:103970008BB90E94E01380E00E944C14F8948DE40F
:103980009AE10E94DB130E94F90D0E94630EF894E5
:103990000E943F1C109263018FEF80936801109288
:1039A000490110924A0110924B0110924C01109261
:1039B0004D0110924E0110924F0110925001109241
:1039C0005101109252011092530110925401109221
:1039D000590110925A0110925B0110925C0186E22B
:1039E00094E19093600180935F018CE59DE090935A
:1039F00062018093610160914301709144018FEFF6
:103A00009FEF0E940A26962F8827861B970BA0E01F
:103A1000B0E08093550190935601A0935701B09365
:103A2000580180E090E0DC0180932A0190932B0103
:103A3000A0932C01B0932D0110920D010E94351E10
:103A40000E945300F89480E00E94930080E00E945E
:103A5000A30081E00E94A30082E00E94A30083E013
:103A60000E94A30087E00E94A3007894089580E05C
:103A700090E064E00E94C32780E190E060E971E09B
:103A80000E94D92780E290E064E670E00E94D92786
:103A900080E390E064E670E00E94D92780E490E043
:103AA00068E273E20E94D92780E590E068E873E15C
:103AB0000E94D92780E890E060E00E94C32780EA56
:103AC00090E040E052EC61E070E00E94D12780E994
:103AD00090E040E85AE166E070E00E94D12780E67D
:103AE00090E060E273E00E94D92780E790E060E216
:103AF00073E00E94D92780EB90E06FEF0E94C3270C
:103B000080EC90E060E00E94C32708958F929F921E
:103B1000AF92BF92CF92DF92EF92FF92C0900E01D0
:103B2000D0900F01E0901001F0901101C701B60193
:103B300020912A0130912B0140912C0150912D01AF
:103B40000E9422250E9463244B015C01C701B6013B
:103B5000209126013091270140912801509129019F
:103B60000E9422250E946324DC01CB01881A990A55
:103B7000AA0ABB0A0894811C911CA11CB11C83E0F9
:103B800088169104A104B10450F080E0FF90EF90FA
:103B9000DF90CF90BF90AF909F908F9008958FEF60
:103BA000F5CF0E94280DDC01CB01409136015091E8
:103BB00037016091380170913901841B950BA60B78
:103BC000B70BB7FD07C082309105A105B10554F0D0
:103BD00080E00895B095A095909581959F4FAF4F47
:103BE000BF4FF1CF8FEF089560912A0170912B01A3
:103BF00080912C0190912D0120910E0130910F01A7
:103C000040911001509111010E9422250E946324CD
:103C1000DC01CB010196A11DB11D83309105A105E9
:103C2000B10508F10E94280DDC01CB0140913A0159
:103C300050913B0160913C0170913D01841B950BBB
:103C4000A60BB70BB7FD07C082309105A105B105E2
:103C500054F080E00895B095A095909581959F4F80
:103C6000AF4FBF4FF1CF8FEF08958EE193E00E94E9
:103C7000D50E81E193E00E94D50E0E94E21F8BE2F7
:103C800093E00E9414200895CF92DF92FF920F9349
:103C90001F93CF93DF930F92CDB7DEB76C018B01EB
:103CA000FF24F601828193810E94600F882309F529
:103CB000F601828193810E94FE0E282F813298F5B1
:103CC000F6018181882331F5622F605E8EE193E0F9
:103CD00029830E943D0F2981213111F0223109F7FA
:103CE000FF24FA94F601828193810E94600F882359
:103CF000F9F2FF2031F0C601B8014EE153E00E9415
:103D000064160F90DF91CF911F910F91FF90DF907C
:103D1000CF900895843028F6622F605C8EE193E0A6
:103D20000E943D0FBECF682F605D8EE193E0298336
:103D30000E943D0F2981223209F0B3CFFF24FA946B
:103D4000D1CF89E991E00E94600F8823B1F489E91D
:103D500091E00E94FE0E8530B0F090912101682F15
:103D6000605F992359F481E193E00E943D0F89E956
:103D700091E00E94600F882351F308958EE193E053
:103D80000E943D0FDECF682F605F8EE193E00E94BE
:103D90003D0FD7CFFF920F931F93CF93DF93EC018B
:103DA0008B0125E0F22E8A819B810E94600F88237F
:103DB000C1F48A819B810E94FE0E9981992309F5A5
:103DC000833041F580912101882359F581E193E009
:103DD00063E20E943D0F8A819B810E94600F8823CD
:103DE00041F3CE01B8014EE153E00E9464168823EE
:103DF00011F4FA94C1F6DF91CF911F910F91FF90CA
:103E00000895943080F6682F605C8EE193E00E9404
:103E10003D0FC9CF682F605E8EE193E00E943D0F99
:103E2000C2CF8EE193E063E20E943D0FBCCFCF9200
:103E3000DF92EF92FF920F931F930FB60F92F894B9
:103E4000C0902D03D0902E03E0902F03F09030030C
:103E50000E945C0DAB01BC0140932D0350932E03D7
:103E600060932F03709330038091590190915A0110
:103E7000A0915B01B0915C010F900FBE481B590BE4
:103E80006A0B7B0B8A019B0109531F4F2F4F3F4F3A
:103E90000F38E1E01E07E0E02E07E0E03E07F8F013
:103EA00077FD29C0C81AD90AEA0AFB0AF7FC30C014
:103EB0004C155D056E057F0544F480E01F910F9160
:103EC000FF90EF90DF90CF9008958BE293E060ED4C
:103ED00077E00E942120882389F38FEFEFCF8BE2D8
:103EE00093E00E94142080E01F910F91FF90EF90CB
:103EF000DF90CF90089570956095509541955F4FF4
:103F00006F4F7F4FC81AD90AEA0AFB0AF7FED0CFD3
:103F1000F094E094D094C094C11CD11CE11CF11C1D
:103F2000C7CF0FB60F92F8940F900FBE80910D017E
:103F3000882309F408950E94171F8823E1F40E9442
:103F4000A30E882371F40E94BC0E882399F380E0AD
:103F500090E00E94A7048EE193E063E00E943D0F91
:103F6000089580E090E00E94A7048EE193E062E073
:103F70000E943D0FE8CF80E090E00E94A7048EE110
:103F800093E061E00E943D0FDACF229A239A2498B1
:103F9000259A2D9A2A9A1CBC8CB580618CBD8CB553
:103FA00082608CBD8CB584608CBD8DB581608DBD0B
:103FB0008CB580648CBD08958EBD0DB407FEFDCF19
:103FC0008EB5089588ED809360000FB60F92F89437
:103FD0008FEF809331030F900FBE08950FB60F92AD
:103FE000F89490936A01809369010F900FBE089531
:103FF0000FB60F92F8948FEF809331030F900FBE9E
:1040000008950FB60F92F8948FEF809331030F90BD
:104010000FBE08950FB60F92F894109233031092CA
:1040200032030F900FBE08950FB60F92F8942091AF
:10403000340330913503FC01318320830F900FBE90
:1040400008950FB60F92F894209134033091350300
:104050000F900FBEFC01808191812817390710F461
:1040600021503040281B390B2617370710F480E009
:1040700008958FEF08950FB60F92F89420913403AE
:1040800030913503FC01318320830F900FBE0895DA
:104090000FB60F92F89440913403509135030F906E
:1040A0000FBEFC0120813181CA014217530720F461
:1040B0000197821B930B0895821B930B08951F9207
:1040C0000F920FB60F9211242F933F938F939F93CC
:1040D00080913403909135034096909335038093FB
:1040E00034038091320390913303409690933303CD
:1040F0008093320320913203309133038091690120
:1041000090916A018217930720F4809131038823EC
:1041100029F4809160008065809360009F918F9169
:104120003F912F910F900FBE0F901F9018950F93F6
:104130001F939B01AC0160EA75E286E290E00E9469
:104140001E2689019A01D901C8010297A109B10966
:104150008F3F4FEF940740E0A40740E0B40720F002
:1041600080E01F910F910895015010402040304091
:10417000BB27A32F922F812F8093C5000093C400EB
:104180008FEFEFCFE2ECF0E02081982F9670297F3F
:10419000922B9083E1ECF0E09081869584709B7F78
:1041A000892B80830895E2ECF0E090819F7C982B2E
:1041B00090830895E2ECF0E090819F77982B9083B4
:1041C0000895FC018FEF80935403F0935603E0931E
:1041D000550360934303DF012E9181E090E002C01C
:1041E000880F991F6A95E2F7282B2C939081809570
:1041F00089238083E1ECF0E08081806480830895EE
:10420000CF93C82F8CE493E06C2F0E944C0188233D
:1042100039F084E493E06C2F0E944C01882341F430
:1042200086E393E061E00E943D0F80E0CF91089526
:104230008FEFFCCF90936C0180936B01089584E421
:1042400093E00E94330108958CE493E00E942B01D7
:10425000089502C08091C6008091C00087FDFACF0A
:104260008CE493E00E943C0108951092C2008CE41B
:1042700093E060E20E944C01882339F084E493E0EB
:1042800060E20E944C01882339F486E393E061E008
:104290000E943D0F80E0089586E393E00E94D50ED2
:1042A0000E94E21F8091C00082608093C0008091D4
:1042B000C0008E7F8093C0008091C2008F73809376
:1042C000C2001092C50084E18093C4008091C200B6
:1042D00086608093C2008091C1008B7F8093C10073
:1042E0008091C2008F7C8093C2008091C2008F7742
:1042F0008093C2008091C10080698093C100809149
:10430000C100877F8093C10051980E942921789431
:104310008FEF08951F93CF93DF9300D0CDB7DEB713
:10432000182FCE0101960E9414200AC060916B01E3
:1043300070916C01CE0101960E9421208823B1F476
:1043400084E493E00E943301882381F784E493E0BE
:10435000612F0E94C60180914503813099F08FEF53
:104360000F900F90DF91CF911F91089586E393E016
:1043700067E00E943D0F80E00F900F90DF91CF919A
:104380001F9108958091C10080628093C1008FEFDA
:104390000F900F90DF91CF911F910895CF93DF93EE
:1043A000EC0186E393E00E94600F882321F480E013
:1043B000DF91CF9108958CE493E00E942B01882334
:1043C000B1F78CE493E00E948D0188838FEFF0CFEA
:1043D000CF93DF93EC0104C00E948A21882339F037
:1043E00089918823C9F78FEFDF91CF91089580E0FD
:1043F000DF91CF9108950F931F93CF93DF93062FF3
:10440000662389F0EC0110E003C01F5F101759F01C
:1044100089910E948A218823C1F780E0DF91CF91A2
:104420001F910F9108958FEFDF91CF911F910F9101
:1044300008951F920F920FB60F9211242F933F935E
:104440004F935F936F937F938F939F93AF93BF939C
:10445000CF93EF93FF938091C00084FD39C080918A
:10446000C00082FD2FC08091C00083FD25C0C09197
:10447000C6008CE493E00E9433018823B9F086E300
:1044800093E065E00E94210FFF91EF91CF91BF91E2
:10449000AF919F918F917F916F915F914F913F91DC
:1044A0002F910F900FBE0F901F9018958CE493E002
:1044B0006C2F0E94AD01E8CF86E393E066E00E9496
:1044C000210FD5CF86E393E064E00E94210FCBCF8C
:1044D00086E393E063E00E94210FC1CF1F920F9209
:1044E0000FB60F9211242F933F934F935F936F93C7
:1044F0007F938F939F93AF93BF93EF93FF9384E446
:1045000093E00E942B01882381F58091C10088608F
:104510008093C10080915403882381F0E09155037A
:10452000F091560320813091430381E090E002C076
:10453000880F991F3A95E2F7282B208384E493E0B3
:104540000E9474018093C600FF91EF91BF91AF91DB
:104550009F918F917F916F915F914F913F912F919B
:104560000F900FBE0F901F9018958091C1008F7D06
:104570008093C100E9CF1F920F920FB60F921124C2
:104580002F933F938F939F93EF93FF93E1ECF0E092
:104590008081877F80835198E0915503F091560385
:1045A00020813091430381E090E002C0880F991F81
:1045B0003A95E2F7809582238083FF91EF919F9156
:1045C0008F913F912F910F900FBE0F901F901895D4
:1045D000CF93DF93CDB7DEB7C254D0400FB6F89477
:1045E000DEBF0FBECDBF0E94AC1C0E94230680E040
:1045F000BE01635F7F4F409112010E945915609187
:104600001C0170911D0180911E0190911F01EF8985
:10461000F88D0995ED89FE8980912001099582E048
:10462000BE016F5F7F4F409112010E94591560914A
:1046300018017091190180911A0190911B01EB856D
:10464000FC850995E985FA858091200109950E94EC
:1046500014180E94911F0E943918CE010D96BE01B8
:10466000625D7F4F0E942E16882319F18EE193E040
:104670000E94600F882309F046C0CE010D96BE014E
:10468000625D7F4F4EE153E00E946416882399F1EA
:10469000CE010196BE01675E7F4F0E942E168823D1
:1046A00081F4CE010196BE01675E7F4F0E94441ED9
:1046B000D0CFCE010D96BE01625D7F4F0E94441E99
:1046C000E7CF8EE193E00E94600F882331F5CE01A1
:1046D0000196BE01675E7F4F4EE153E00E94641673
:1046E000882309F0B6CFCE010196BE01675E7F4FE9
:1046F0000E94CA1EAECFCE010D96BE01625D7F4FF5
:104700000E94CA1EC5CFCE018E960E9495078823AF
:1047100009F0B3CF0E94A11EB0CFCE0149960E94EE
:1047200095078823A1F60E94A11ED1CF5058BB2720
:10473000AA270ED04DC13ED130F043D120F031F444
:104740009F3F11F41EF433C10EF4E095E7FB29C13D
:10475000E92F4FD180F3BA176207730784079507D3
:1047600018F071F49EF567C10EF4E0950B2EBA2F88
:10477000A02D0B01B90190010C01CA01A001112467
:10478000FF27591B99F0593F50F4503E68F11A1613
:10479000F040A22F232F342F4427585FF3CF4695A4
:1047A00037952795A795F0405395C9F77EF41F16C6
:1047B000BA0B620B730B840BBAF09150A1F0FF0F90
:1047C000BB1F661F771F881FC2F70EC0BA0F621F7C
:1047D000731F841F48F4879577956795B795F7956C
:1047E0009E3F08F0B3CF9395880F08F09927EE0FFE
:1047F0009795879508950CD0EBC0E3D040F0DAD0C0
:1048000030F021F45F3F19F0CCC0511115C1CFC079
:10481000F0D098F39923C9F35523B1F3951B550BA9
:10482000BB27AA2762177307840738F09F5F5F4F83
:10483000220F331F441FAA1FA9F333D00E2E3AF0C4
:10484000E0E830D091505040E695001CCAF729D0DE
:10485000FE2F27D0660F771F881FBB1F261737072D
:104860004807AB07B0E809F0BB0B802DBF01FF275D
:1048700093585F4F2AF09E3F510568F092C0DCC00C
:104880005F3FECF3983EDCF3869577956795B79597
:10489000F7959F5FC9F7880F911D9695879597F9B2
:1048A0000895E1E0660F771F881FBB1F621773072B
:1048B0008407BA0720F0621B730B840BBA0BEE1F40
:1048C00088F7E095089504D06894B111B5C00895B3
:1048D00098D088F09F5790F0B92F9927B751A0F042
:1048E000D1F0660F771F881F991F1AF0BA95C9F784
:1048F00012C0B13081F09FD0B1E008959CC0672F05
:10490000782F8827B85F39F0B93FCCF38695779533
:104910006795B395D9F73EF490958095709561951C
:104920007F4F8F4F9F4F0895E89409C097FB3EF447
:1049300090958095709561957F4F8F4F9F4F9923EC
:10494000A9F0F92F96E9BB279395F695879577956A
:104950006795B795F111F8CFFAF4BB0F11F460FF2A
:104960001BC06F5F7F4F8F4F9F4F16C0882311F082
:1049700096E911C0772321F09EE8872F762F05C096
:10498000662371F096E8862F70E060E02AF09A9531
:10499000660F771F881FDAF7880F9695879597F926
:1049A000089597F99F6780E870E060E008959FEFB1
:1049B00080EC089500240A941616170618060906B6
:1049C000089500240A941216130614060506089585
:1049D000092E0394000C11F4882352F0BB0F40F40D
:1049E000BF2B11F460FF04C06F5F7F4F8F4F9F4F4D
:1049F000089557FD9058440F551F59F05F3F71F0CF
:104A00004795880F97FB991F61F09F3F79F0879535
:104A10000895121613061406551FF2CF4695F1DFBE
:104A200008C0161617061806991FF1CF869571054E
:104A3000610508940895E894BB2766277727CB0182
:104A400097F908950BD0C4CFB5DF28F0BADF18F07E
:104A5000952309F0A6CFABCF1124EECFCADFA0F388
:104A6000959FD1F3950F50E0551F629FF001729F03
:104A7000BB27F00DB11D639FAA27F00DB11DAA1F22
:104A8000649F6627B00DA11D661F829F2227B00D6F
:104A9000A11D621F739FB00DA11D621F839FA00DFA
:104AA000611D221F749F3327A00D611D231F849F4A
:104AB000600D211D822F762F6A2F11249F575040A1
:104AC0008AF0E1F088234AF0EE0FFF1FBB1F661F3C
:104AD000771F881F91505040A9F79E3F510570F0F5
:104AE00060CFAACF5F3FECF3983EDCF386957795D5
:104AF0006795B795F795E7959F5FC1F7FE2B880FF0
:104B0000911D9695879597F9089511F40EF44FCF5E
:104B10003EC077DFD0F39923D9F3CEF39F57550BDF
:104B200087FF43D00024A0E640EA900180585695C4
:104B3000979528F4805C660F771F881F20F0261752
:104B40003707480730F4621B730B840B2029312987
:104B50004A2BA69517940794202531254A2758F704
:104B6000660F771F881F20F026173707480730F495
:104B7000620B730B840B200D311D411DA09581F735
:104B8000B901842F9158880F9695879508959F3F76
:104B900031F0915020F4879577956795B795880FF8
:104BA000911D9695879597F9089591505040660FFD
:104BB000771F881FD2F708955302C001429FB001AA
:104BC0005203700D811D1124911D3403700D811D40
:104BD0001124911D0895629FD001739FF001829F5F
:104BE000E00DF11D649FE00DF11D929FF00D839F7C
:104BF000F00D749FF00D659FF00D9927729FB00D19
:104C0000E11DF91F639FB00DE11DF91FBD01CF012B
:104C100011240895AA1BBB1B51E107C0AA1FBB1F8B
:104C2000A617B70710F0A61BB70B881F991F5A9538
:104C3000A9F780959095BC01CD010895A1E21A2EA7
:104C4000AA1BBB1BFD010DC0AA1FBB1FEE1FFF1F30
:104C5000A217B307E407F50720F0A21BB30BE40B80
:104C6000F50B661F771F881F991F1A9469F76095C7
:104C70007095809590959B01AC01BD01CF01089581
:104C800097FB092E05260ED057FD04D0D7DF0AD09A
:104C9000001C38F450954095309521953F4F4F4F6B
:104CA0005F4F0895F6F790958095709561957F4FC9
:104CB0008F4F9F4F08950F931F93CF93DF93689F5C
:104CC0008001699F100D789F100D1124C8010E946A
:104CD0007926C82FD92F209731F08C2F60E070E013
:104CE000A8010E94A827CE01DF91CF911F910F91BB
:104CF0000895CF93DF93AC018230910510F442E028
:104D000050E0E0915903F0915A0320E030E0A0E038
:104D1000B0E024C08081918184179507D0F084177A
:104D2000950771F482819381109729F013969C93D3
:104D30008E9312972CC090935A038093590327C0E7
:104D40002115310519F08217930718F49C01BD0154
:104D5000EF0192818381DF01E92FF82F3097D1F69F
:104D600021153105F9F0C901841B950B843091059B
:104D700080F48A819B816115710521F0FB01938389
:104D8000828304C090935A0380935903FE013296A4
:104D900042C0FE01E80FF91F419351930297998396
:104DA000888339C08091570390915803009741F44C
:104DB00080916F01909170019093580380935703F5
:104DC00020916D0130916E012115310541F42DB70F
:104DD0003EB78091710190917201281B390BE091CF
:104DE0005703F0915803E217F30798F42E1B3F0B7B
:104DF0002417350770F0CA0102962817390748F0C2
:104E00008E0F9F1F909358038093570341935193A4
:104E100002C0E0E0F0E0CF01DF91CF9108950F9361
:104E20001F93CF93DF939C01009709F48CC0DC01A2
:104E3000129713961C921E921297609159037091CB
:104E40005A036115710589F48D919C911197820F18
:104E5000931F20915703309158032817390769F59C
:104E6000B0935803A09357036EC0FB0140E050E09D
:104E700001C0FC01EA17FB0730F482819381AF0186
:104E80000097B9F71FC0E9012297FB83EA830881E5
:104E90001981C901800F911F8E179F0759F48081D6
:104EA0009181800F911F02969983888382819381DB
:104EB0009B838A834115510529F4B0935A03A0932B
:104EC000590341C0FA01B383A283C191D191EC0F80
:104ED000FD1FAE17BF0781F4F901929182918C0FEB
:104EE0009D1F0296DA0111969C938E938281938185
:104EF00013969C938E931297E0E0F0E002C0FB01C2
:104F0000BC01DB0112968D919C9113970097B9F724
:104F1000CB0102962D913C911197820F931F209106
:104F20005703309158032817390769F4309729F44B
:104F300010925A031092590302C013821282709386
:104F4000580360935703DF91CF911F910F910895FC
:104F5000DC0101C06D9341505040E0F70895F9998C
:104F6000FECF92BD81BDF89A992780B50895A6E13C
:104F7000B0E044E050E00C94E027A8E1B0E042E06B
:104F800050E00C94E027262FF999FECF1FBA92BD6E
:104F900081BD20BD0FB6F894FA9AF99A0FBE01961A
:104FA0000895242F0E94C427252F0E94C4270C9403
:104FB000D9270E94C327272F0C94C427DC01CB01DB
:104FC000FC01F999FECF06C0F2BDE1BDF89A319619
:104FD00000B40D9241505040B8F70895F894FFCFB7
:104FE00001E803E803E8034102FF3603FF00000085
:104FF00000000000000000000000000000000000B1
:1050000000000000000000000000000000000000A0
:105010000000000000000000000000000000000090
:105020000000000000000000000000000000000080
:10503000000000000000000000000000009B1400C1
:10504000000000000000000000FFFFE80300005B1C
:045050000320000039
:00000001FF
