:100000000C9434000C9451000C9451000C94510049
:100010000C9451000C9451000C940B200C94510042
:100020000C9451000C9451000C94C4120C94510087
:100030000C9451000C9461130C9451000C945100D9
:100040000C9413140C9451000C94C5210C941A2296
:100050000C9467220C94C8000C9451000C9451002D
:100060000C942A110C94510011241FBECFEFD8E03C
:10007000DEBFCDBF11E0A0E0B1E0E2EEFDE402C0E2
:1000800005900D92A237B107D9F713E0A2E7B1E0CE
:1000900001C01D92A335B107E1F70E9494220C9490
:1000A000EF260C94000017B810927E00E4E6F0E012
:1000B00080818E7F8083EAE7F0E0808180688083A2
:1000C000808187608083ECE7F0E080818F738064BB
:1000D0008083EBE7F0E08081887F80830FB60F920A
:1000E000F8948FEF80938B010F900FBEECE7F0E058
:1000F00080818F7D8083EAE7F0E080818860808363
:1001000080818065808378940895EAE7F0E09081AB
:10011000987F982B90830895ECE7F0E090819F738F
:10012000982B90830895EBE7F0E09081987F982BCF
:1001300090830895EAE7F0E08081877F8083808163
:100140008F77808308950FB60F92F894EBE8F1E073
:10015000E80FF11D8FEF80830F900FBE08950FB64B
:100160000F92F894EBE8F1E0E80FF11D10820F9088
:100170000FBE08950FB60F92F894E82FF0E0EE0F3F
:10018000FF1FEE58FE4F808191810F900FBE0895A2
:100190001F920F920FB60F9211242F933F934F93FC
:1001A0008F939F93EF93FF93E0918A01F0E080910A
:1001B000780090E0EE0FFF1FEE58FE4F9183808392
:1001C000E0918A01F0E0EE0FFF1FEE58FE4F8081B4
:1001D000918140917900342F20E0822B932B9183E1
:1001E000808380918A018F5F80938A0180918A0148
:1001F0008B3010F010928A01E0918A01F0E0E5570F
:10020000FE4F8081882369F380918A018930D0F084
:1002100090917C0080918A018B5F907F892B8093E5
:100220007C0080917A00806580937A00FF91EF9145
:100230009F918F914F913F912F910F900FBE0F90F3
:100240001F90189580917C0090918A01807F892B66
:1002500080937C00E6CFFC018181882311F080E04F
:1002600008958FEF0895FC0191818081981710F413
:1002700080E008958FEF0895FC010FB60F92F89477
:1002800086819781938382838681978195838483F6
:1002900011820F900FBE0895CF93DF93EC01862F4C
:1002A0000FB60F92F8941982688390E061E070E0D5
:1002B0000E945C259F838E838E819F81009731F4FD
:1002C00080E00F900FBEDF91CF9108958E819F81C6
:1002D0009B838A838E819F819D838C838FEF0F9078
:1002E0000FBEDF91CF910895FC0181818150818300
:1002F000A481B5818D91B583A483448155812681E4
:1003000037819081290F311D4217530709F0089555
:1003100026813781358324830895FC010FB60F921F
:10032000F894818181508183A481B5818D91B583B9
:10033000A48344815581268137819081290F311D05
:100340004217530719F00F900FBE08952681378189
:10035000358324830F900FBE0895FC0181818F5F48
:100360008183A281B3816D93B383A2832281338180
:10037000868197814081840F911D2817390709F0E4
:10038000089586819781938382830895FC010FB637
:100390000F92F89481818F5F8183A281B3816D93E5
:1003A000B383A28322813381868197814081840F28
:1003B000911D2817390719F00F900FBE08958681F7
:1003C0009781938382830F900FBE0895DC0114966A
:1003D000ED91FC91159770E0E60FF71F16968D9141
:1003E0009C9117972C91820F911D8E179F0748F4AF
:1003F0001496ED91FC9115978C91681B7109E60F8D
:10040000F71F80810895DC010FB60F92F8941496BF
:10041000ED91FC91159770E0E60FF71F16968D9100
:100420009C9117972C91820F911D8E179F0748F46E
:100430001496ED91FC9115978C91681B7109E60F4C
:10044000F71F0F900FBE80810895FC018481958174
:10045000A681B7810FB60F92F89421E020930D0189
:100460008093590190935A01A0935B01B0935C0172
:100470000F900FBE0895FC014481558166817781FC
:100480000FB60F92F89481E080930D01809159018D
:1004900090915A01A0915B01B0915C01840F951F6E
:1004A000A61FB71F8093590190935A01A0935B0137
:1004B000B0935C010F900FBE0895FC01848195817B
:1004C0000FB60F92F89421E020936301AA2797FDBD
:1004D000A095BA2F8093640190936501A093660163
:1004E000B09367010F900FBE0895FC018481958140
:1004F000A681B7810FB60F92F89422E02093630192
:100500008093640190936501A0936601B0936701A5
:100510000F900FBE0895FC0184819581A681B7815B
:100520000FB60F92F89423E0209363018093640147
:1005300090936501A0936601B09367010F900FBE81
:100540000895FC01848195810FB60F92F89424E000
:1005500020936301AA2797FDA095BA2F8093640189
:1005600090936501A0936601B09367010F900FBE51
:100570000895FC0184819581A681B7810FB60F9201
:10058000F89425E0209363018093640190936501C2
:10059000A0936601B09367010F900FBE0895FC0110
:1005A00084819581A681B7810FB60F92F89426E0D9
:1005B000209363018093640190936501A093660189
:1005C000B09367010F900FBE08950FB60F92F89485
:1005D00050911301FC01848158234BB1852F90E089
:1005E0009C013695322F2227379527954F77422B3E
:1005F0004BB92BB1880F991F880F991F880F991F2E
:1006000080742F7B822B8BB995B1852F8695837053
:100610009C7F892B85B90F900FBE0895FC0182E065
:1006200083830FB60F92F894809143019091440117
:10063000958384830F900FBE0895FC0182E083832D
:100640000FB60F92F89480914501909146019583E1
:1006500084830F900FBE0895FC0182E083830FB660
:100660000F92F8948091470190914801958384837B
:100670000F900FBE0895FC0182E083830FB60F92A6
:10068000F89480913E0190913F01958384830F906F
:100690000FBE0895FC0182E083830FB60F92F89499
:1006A0008091400190914101958384830F900FBE0A
:1006B0000895FC0182E083830FB60F92F894809135
:1006C000140190911501958384830F900FBE0895B6
:1006D000FC0182E083830FB60F92F894809116019B
:1006E00090911701958384830F900FBE0895FC01AC
:1006F00081E083838091130184830895FC0181E06C
:1007000083838091200184830895FC0181E08383A9
:100710000FB60F92F89489B149B123B150E04074FB
:10072000507055954795559547955595479530E0A7
:1007300023703070220F331F242B881F8827881FB7
:10074000282B0F900FBE24830895CF93DF93EC01E5
:1007500082E08B830E94E90D9D838C83DF91CF9192
:100760000895CF93DF93EC0184E08B830E940B0DFF
:10077000DC01CB018C839D83AE83BF83DF91CF915E
:1007800008950FB60F92F89481E080930D010E94B6
:100790000B0DDC01CB018093590190935A01A0937A
:1007A0005B01B0935C010F900FBE0895CF93DF9370
:1007B000FC01C481D5810FB60F92F89480910D0190
:1007C000813019F1BE01882777FD8095982F0E940E
:1007D000972320910E0130910F014091100150910B
:1007E00011010E94FC22DC01CB0180932A0190932D
:1007F0002B01A0932C01B0932D0182E080930D0179
:100800000F900FBEDF91CF9108950E940B0D0E94B3
:100810009723DC01CB018093220190932301A093C5
:100820002401B0932501CECF0F931F93CF93DF9375
:100830008C01FC0113820EC0F801C381D0E089E075
:1008400093E00E94AD0EC00FD11F8C83F80183810D
:100850008F5F838389E093E00E940F0F882361F309
:10086000DF91CF911F910F910895CF93DF93EC010A
:1008700082E08B8387E00E94BA009D838C83DF91A6
:10088000CF910895CF93DF93EC0188E08B8380E0D4
:100890000E94BA009D838C8381E00E94BA009F83EE
:1008A0008E8382E00E94BA009987888783E00E9445
:1008B000BA009B878A87DF91CF910895CF93DF930A
:1008C000EC0182E08B830E94E60D9D838C83DF9197
:1008D000CF910895CF93DF93FC01C481DC2FDF70AB
:1008E00080E890E06D2F0E94C4260FB60F92F89416
:1008F0004AB18C2F90E09C013695322F22273795F4
:1009000027954F77422B4AB92AB1880F991F880F34
:10091000991F880F991F80742F7B822B8AB984B10D
:10092000C695C3708C7FC82BC4B9D09313010F90A8
:100930000FBEDF91CF9108950FB60F92F8941092E9
:100940000D010F900FBE80E00E94FB1308950FB6BB
:100950000F92F894109263010E94120E10924D01B2
:1009600010924E0110924F011092500110925101BD
:1009700010925201109253011092540181E0809321
:100980000D011092590110925A0110925B011092C0
:100990005C018FEF0E94FB130F900FBE08950E9421
:1009A000120E0895CF93DF93FC01C481D58180E5B9
:1009B00090E0BE010E94DA260FB60F92F894D09311
:1009C0001701C09316010F900FBEDF91CF910895CC
:1009D000CF93DF93FC01C481D58180E390E0BE0119
:1009E0000E94DA260FB60F92F894D0934801C09374
:1009F00047010F900FBEDF91CF910895CF93DF9302
:100A0000FC01C481D58180E290E0BE010E94DA261B
:100A10000FB60F92F894D0934601C09345010F9002
:100A20000FBEDF91CF910895CF93DF93FC01C48176
:100A3000D58180E190E0BE010E94DA260FB60F92C8
:100A4000F894D0934401C09343010F900FBEDF91FF
:100A5000CF910895CF93DF93EC016C81623040F029
:100A600087E991E063E00E94EC0EDF91CF91089559
:100A700080EC90E00E94C4260FB60F92F8948C810F
:100A8000809321010F900FBEDF91CF910895FC015B
:100A90006481662329F080EB90E00E94C4260895CB
:100AA00087E991E063E00E94EC0E0895FC01648107
:100AB00016162CF480E090E00E94C426089587E981
:100AC00091E063E00E94EC0E0895FC0144815581A1
:100AD00066817781DB01CA010197A109B1098030E4
:100AE000F2EC9F07F1E0AF07F0E0BF0728F480EADF
:100AF00090E00E94D226089587E991E063E00E9489
:100B0000EC0E0895CF93DF93FC01C481D58120972B
:100B100089F080E490E0BE010E94DA260FB60F92C1
:100B2000F894D0931501C09314010F900FBEDF917C
:100B3000CF91089587E991E063E00E94EC0EDF9188
:100B4000CF910895CF93DF93FC01C481D581209785
:100B500089F080E790E0BE010E94DA260FB60F927E
:100B6000F894D0934101C09340010F900FBEDF91E4
:100B7000CF91089587E991E063E00E94EC0EDF9148
:100B8000CF910895CF93DF93FC01C481D581209745
:100B900089F080E690E0BE010E94DA260FB60F923F
:100BA000F894D0933F01C0933E010F900FBEDF91A8
:100BB000CF91089587E991E063E00E94EC0EDF9108
:100BC000CF91089587E991E00E94840E84E195E039
:100BD0009093A5018093A40182E08093DE012EEF23
:100BE00034E03093A7012093A6018093DF0128EE23
:100BF00034E03093A9012093A8018093E00122EC16
:100C000035E03093AB012093AA018093E10122EA01
:100C100035E03093AD012093AC018093E20122E8EE
:100C200035E03093AF012093AE018093E30122EDD4
:100C300034E03093B1012093B0018093E40126EDBC
:100C400033E03093B3012093B2018093E50125E2B4
:100C500032E03093B5012093B40194E09093E60123
:100C60002BE332E03093B7012093B6019093E70174
:100C700029EF38E03093B9012093B8018093E8015F
:100C80002FEC3CE03093BB012093BA019093E90133
:100C900029EB3CE03093BD012093BC019093EA0125
:100CA0002DE532E03093BF012093BE018093EB012C
:100CB00025E732E03093C1012093C0019093EC010D
:100CC0002BE832E03093C3012093C2019093ED01F1
:100CD00021EA32E03093C5012093C4018093EE01F4
:100CE00029EB32E03093C7012093C6019093EF01C6
:100CF0002FEC32E03093C9012093C8019093F001AA
:100D00002AE634E03093CB012093CA01E1E0E0937E
:100D1000F10125EE32E03093CD012093CC01E09338
:100D2000F20126E535E03093CF012093CE01E09328
:100D3000F30127E435E03093D1012093D001E09313
:100D4000F40125E635E03093D3012093D20190934E
:100D5000F5018FEC94E09093D5018093D40110922B
:100D6000F60187EA94E09093D7018093D601109220
:100D7000F70141EC53E05093D9014093D801109210
:100D8000F8016CE974E07093DB016093DA01109272
:100D9000F9012AE235E03093DD012093DC01E09394
:100DA000FA012EE033E03093FC012093FB012DE1AA
:100DB00033E03093FE012093FD012CE233E03093C9
:100DC00000022093FF012BE333E0309302022093D3
:100DD00001022AE433E0309304022093030229E560
:100DE00033E0309306022093050228E633E0309387
:100DF00008022093070227E733E030930A0220938A
:100E000009022EE733E030930C0220930B0225E811
:100E100033E030930E0220930D0222E434E030934D
:100E2000100220930F0221EB33E030931202209343
:100E300011022EE534E0309314022093130225EAC8
:100E400033E0309316022093150225E334E030930B
:100E500018022093170224E134E030931A02209301
:100E6000190229E13CE030931C0220931B0290936D
:100E70001E0280931D025093200240931F02709324
:100E80002202609321020895CF93DF93EC01EA815F
:100E9000EC3CB0F5E83CB8F4E43790F5E43608F003
:100EA00065C0ED3168F5F0E0E252FE4F9B81808134
:100EB000981779F187E991E062E00E94EC0E80E0FA
:100EC000DF91CF9108958B81882309F049C00E945A
:100ED0000B14EA818823C9F1F0E0EE0FFF1FE557FC
:100EE000FF4F0190F081E02DCE01099587E991E057
:100EF0000E940F0F882311F580E0DF91CF910895B4
:100F000087E991E061E00E94EC0E80E0DF91CF91F3
:100F100008950E940B14EA81882331F48E2F8750A4
:100F20008630B8F1EA31A9F1F0E0EE0FFF1FEC5581
:100F3000FE4F0190F081E02DCE01099587E991E007
:100F40000E940F0FDF91CF910895E83C11F0EA3C29
:100F500019F687E991E064E00E94EC0EEA81BCCFCB
:100F600087E991E065E00E94EC0EB1CFF0E0EE0F72
:100F7000FF1FED5CFE4F0190F081E02D09958B8104
:100F80008823E1F287E991E065E00E94EC0E80E0C1
:100F9000B4CF87E991E064E00E94EC0E80E0ADCF31
:100FA0004F925F926F927F928F929F92AF92BF9279
:100FB000CF92DF92EF92FF920F931F93CF93DF9325
:100FC000CDB7DEB72C970FB6F894DEBF0FBECDBFFE
:100FD0008C019C01442737FD4095542F29873A877F
:100FE0004B875C870FB60F92F89480910D0181308A
:100FF00009F4E9C080900E0190900F01A0901001BB
:10100000B0901101C501B40120912A0130912B014A
:1010100040912C0150912D010E9423240E946423B1
:101020002B013C01609122017091230180912401E8
:10103000909125010E94642369837A838B839C832A
:1010400089859A85AB85BC8584159505A605B70568
:101050000CF4A7C080913E0190913F019C0140E0BB
:1010600050E02D833E834F8358870F900FBE0FB6FD
:101070000F92F89469817A818B819C810E949723D9
:10108000DC01CB018093220190932301A0932401E2
:10109000B09325019801A8010E94DD246B017C0119
:1010A000C301B201A30192010E94EC24DC01CB0137
:1010B000C81AD90AEA0AFB0AC701B6012D813E8186
:1010C0004F8158850E944125CA01B90122E030E0D4
:1010D00040E050E00E94412589019A0189819A816E
:1010E000AB81BC81080F191F2A1F3B1F00933201DF
:1010F0001093330120933401309335010DE011E05A
:1011000083E080930D0169857A858B859C850E949B
:101110009723A50194010E94FC22DC01CB01F80178
:10112000818F928FA38FB48FC301B2010E94972346
:10113000A50194010E94FC22DC01CB01F801858FFE
:10114000968FA78FB0A36D817E818F8198850E9435
:101150009723A50194010E94FC22A50194010E94FD
:10116000FC22DC01CB01F80181A392A3A3A3B4A3C9
:101170000F900FBE2C960FB6F894DEBF0FBECDBFFA
:10118000DF91CF911F910F91FF90EF90DF90CF9063
:10119000BF90AF909F908F907F906F905F904F9097
:1011A000089580913E0190913F01A0E0B0E0222798
:1011B0003327A901281B390B4A0B5B0B2D833E8378
:1011C0004F83588752CF0E940B0D69837A838B839C
:1011D0009C830E94E90D2C01662457FC6094762CB8
:1011E00080900E0190900F01A0901001B09011011D
:1011F00027CFFC01848195810E94D00708953F92FA
:101200004F925F926F927F928F929F92AF92BF9216
:10121000CF92DF92EF92FF920F931F93CF93DF93C2
:10122000CDB7DEB7A4970FB6F894DEBF0FBECDBF23
:101230006D8B7E8B8F8B988F0FB60F92F894809169
:101240000D01813009F4D7C260910E0170910F0138
:101250008091100190911101698B7A8B8B8B9C8B03
:1012600020912A0130912B0140912C0150912D01A8
:101270000E9423240E94642369837A838B839C8346
:1012800060912201709123018091240190912501A8
:101290000E9464236D837E838F8398878D819E81D6
:1012A000AF81B8852D893E894F89588D2817390718
:1012B0004A075B070CF481C180913E0190913F0188
:1012C000AC0160E070E049875A876B877C87709536
:1012D0006095509541955F4F6F4F7F4F498F5A8F63
:1012E0006B8F7C8F80914001909141019C0140E087
:1012F00050E02D873E874F87588B01E0402E512CC0
:10130000612C712C332433940F900FBE69817A8144
:101310008B819C812D853E854F8558890E94EC24C8
:10132000DC01CB01B7FD30C269817A818B819C8160
:101330009B01AC010E94EC2469A37AA38BA39CA31C
:1013400022E030E040E050E00E94412549015A018E
:101350004D815E816F8178854D8F5E8F6F8F78A311
:10136000C980DA80EB80FC8000E02D893E894F89BE
:10137000588D8D8D9E8DAF8DB8A1281B390B4A0BD2
:101380005B0B69857A858B859C850E94EC24680DB2
:10139000791D8A1D9B1D0E9497230E948A240E940A
:1013A0006423A30192010E94EC244B015C01C7015C
:1013B000B601681979098A099B090E94EC24DC01AD
:1013C000CB01181619061A061B061CF4002309F493
:1013D00022C1C501B4012D853E854F855889621B08
:1013E000730B840B950BA30192010E94EC24DC018A
:1013F000CB01B7FD8FC16D857E858F8598896C196E
:101400007D098E099F090E94EC24DC01CB01B7FD08
:1014100071C16D857E858F8598899B01AC010E9485
:10142000EC246B017C0129A13AA14BA15CA1621BB8
:10143000730B840B950B12E0812E912CA12CB12CF7
:10144000A50194010E944125CA01B90129853A8567
:101450004B855C850E94412529013A014D8D5E8DA9
:101460006F8D78A1440E551E661E771EC701B6010A
:10147000A50194010E944125CA01B901298D3A8D27
:101480004B8D5C8D0E94412569017A016D897E89B1
:101490008F89988DC60ED71EE81EF91E0FB60F92C3
:1014A000F8946D817E818F8198850E949723DC015D
:1014B000CB018093220190932301A0932401B09348
:1014C00025014092320150923301609234017092B2
:1014D0003501C0923601D0923701E0923801F09286
:1014E00039014D895E896F89788D40933A01509317
:1014F0003B0160933C0170933D01109242010DE06D
:1015000011E084E080930D016D857E858F8598893B
:101510000E94972329893A894B895C890E94FC2281
:10152000DC01CB01F801818F928FA38FB48F698189
:101530007A818B819C810E94972329893A894B89E2
:101540005C890E94FC22DC01CB01F801858F968F1B
:10155000A78FB0A369857A858B859C850E94972388
:1015600029893A894B895C890E94FC2229893A8918
:101570004B895C890E94FC22DC01CB01F80181A32C
:1015800092A3A3A3B4A30F900FBEA4960FB6F89492
:10159000DEBF0FBECDBFDF91CF911F910F91FF90A6
:1015A000EF90DF90CF90BF90AF909F908F907F9003
:1015B0006F905F904F903F90089580913E01909181
:1015C0003F019C0140E050E0298F3A8F4B8F5C8FA8
:1015D00050954095309521953F4F4F4F5F4F29874C
:1015E0003A874B875C878091400190914101A0E050
:1015F000B0E044275527BA01481B590B6A0B7B0BF7
:101600004D875E876F87788B44244A94542C32012F
:1016100033243A9479CE69817A818B819C819B01B4
:10162000AC010E94EC2422E030E040E050E00E9457
:10163000412589019A0130952095109501951F4FFC
:101640002F4F3F4FC901B801298D3A8D4B8D5C8DCD
:101650000E9441256D817E818F819885260F371FDD
:10166000481F591F2D8F3E8F4F8F58A32D893E89BC
:101670004F89588D8D8D9E8DAF8DB8A1281B390B4C
:101680004A0B5B0B698D7A8D8B8D9C8D0E94EC24AF
:101690000E9497230E948A24232D332727FD30950B
:1016A000309521953F4F6901EE24D7FCE094FE2C44
:1016B0000E9464239B01AC01C701B6010E94EC2487
:1016C0004B015C0189859A852B853C85498D5A8D16
:1016D0006B8D7C8D49875A876B877C87898F9A8F22
:1016E0002B8F3C8F19A21AA21BA21CA2CC24DD2492
:1016F00076016FCE49855A856B857C85709560959E
:10170000509541955F4F6F4F7F4F49875A876B8741
:101710007C877FCE6D897E898F89988D2D8D3E8DBA
:101720004F8D58A1620F731F841F951F22E030E078
:1017300040E050E00E94412529013A0169A17AA1C7
:101740008BA19CA124E030E040E050E00E944125C4
:1017500089019A0130952095109501951F4F2F4FC3
:101760003F4FC901B80129853A854B855C850E94A8
:101770004125420E531E641E751E730162018D8643
:101780009E86AF86B88A8ACE69817A818B819C8158
:101790009B01AC010E94EC2422E030E040E050E0EC
:1017A0000E94412589019A01309520951095019557
:1017B0001F4F2F4F3F4FC901B80129853A854B85EF
:1017C0005C850E9441256D817E818F819885260FE1
:1017D000371F481F591F2D8F3E8F4F8F58A38824C6
:1017E0009924540119A21AA21BA21CA20FEFCC2407
:1017F000DD247601BACD0E94E90D9C01442737FD16
:101800004095542F29833A834B835C830E940B0DB0
:101810006D837E838F83988740910E0150910F01D5
:101820006091100170911101498B5A8B6B8B7C8BED
:1018300035CDCF92DF92EF92FF920FB60F92F894D0
:101840000F900FBE20916301233009F468C024304B
:1018500020F1253009F44EC0253008F440C0263070
:1018600081F4C0906401D0906501E0906601F09031
:1018700067010E940B0D6C0D7D1D8E1D9F1D0E942A
:10188000FF080FB60F92F894109263010F900FBEED
:10189000FF90EF90DF90CF9008952130B1F122308A
:1018A000B8F34091640150916501609166017091B7
:1018B0006701FC0144835583668377830FB60F92DB
:1018C000F89481E080930D014093590150935A019F
:1018D00060935B0170935C010F900FBED2CF20919B
:1018E000640130916501FC0135832483C9010E94A4
:1018F000D007C7CF60916401709165018091660146
:10190000909167010E94FF08BCCF20916401309143
:101910006501FC01358324830E94D603B2CF409138
:101920006401509165016091660170916701FC014D
:1019300044835583668377830FB60F92F89481E0D2
:1019400080930D018091590190915A01A0915B0102
:10195000B0915C01840F951FA61FB71F809359019A
:1019600090935A01A0935B01B0935C010F900FBE5E
:1019700088CFCF92DF92EF92FF92FC01C480D58096
:10198000E680F7800E940B0D6C0D7D1D8E1D9F1D46
:101990000E94FF08FF90EF90DF90CF900895FC0128
:1019A00064817581868197810E94FF0808950F9355
:1019B0001F930FB60F92F8940091330210913402E6
:1019C00020913502309136020F900FBEB801C90147
:1019D0001F910F910895CF93DF932A980000000084
:1019E00000000000000000000000000000000000F7
:1019F00080E00E94881FD82F80E00E94881FC82F97
:101A00002A9ACE01929582958F7089279F70892797
:101A1000DF91CF9108950F931F930FB60F92F89413
:101A20008091290290912A029093280280932702A4
:101A30000E94EB0C90932A02809329028091290244
:101A400090912A024091270250912802A0E0B0E034
:101A500060E070E0841B950BA60BB70B803328EF7A
:101A600092072FEFA2072FEFB2079CF48091230279
:101A700090912402A0912502B09126020196A11D09
:101A8000B11D8093230290932402A0932502B0936A
:101A900026028091290290912A02409127025091BA
:101AA0002802A0E0B0E060E070E0841B950BA60B7C
:101AB000B70B813D27E0920720E0A20720E0B207A4
:101AC0009CF08091230290912402A0912502B09174
:101AD00026020197A109B109809323029093240261
:101AE000A0932502B09326020091230210912402B4
:101AF00020912502309126028091290290912A029C
:101B000040912F0250913002609131027091320267
:101B1000ECE0000F111F221F331FEA95D1F7A0E060
:101B2000B0E0080F191F2A1F3B1F041B150B260BC3
:101B3000370B009333021093340220933502309315
:101B400036020F900FBEB801C9011F910F91089581
:101B50000E94711F0E94EB0C0E94EB0C0FB60F92BB
:101B6000F894AC0160E070E040932F025093300293
:101B7000609331027093320290932A02809329027B
:101B80009093280280932702109238021092370215
:101B900010923302109234021092350210923602E3
:101BA00010922B0210922C0210922D0210922E02F3
:101BB00081E080930001109223021092240210927F
:101BC0002502109226020F900FBE08950E94EB0C82
:101BD00008950FB60F92F894609137027091380211
:101BE0000F900FBE882777FD8095982F0E9497232E
:101BF00020910E0130910F0140911001509111017F
:101C00000E94232420E030E040EF53E40E94FC22B5
:101C1000462F572F682F792FCB01BA010E946423DA
:101C2000CB0108950E94EB0CAC0160E070E00FB6B0
:101C30000F92F89440932F02509330026093310238
:101C40007093320290932A02809329029093280283
:101C500080932702109238021092370210923302BA
:101C600010923402109235021092360210922B021A
:101C700010922C0210922D0210922E0281E080937D
:101C80000001109223021092240210922502109259
:101C900026020F900FBE0895809100018F5F809300
:101CA000000108950FB60F92F8948091330290913D
:101CB0003402A0913502B091360280302CEF9207A9
:101CC0002FEFA2072FE7B20724F480E00F900FBE9A
:101CD00008958FEFFBCF0FB60F92F89480913302E7
:101CE00090913402A0913502B0913602813024E007
:101CF000920720E0A20720E8B20724F080E00F90CE
:101D00000FBE08958FEFFBCFFC010FB60F92F89432
:101D10001082059692838183948383830F900FBEF4
:101D20000895FC01808181508083A381B4818C91CE
:101D3000238134812F5F3F4F348323834381548138
:101D40009F01235F3F4F4217530709F008959F01FA
:101D50002B5F3F4F348323830895FC010FB60F920E
:101D6000F894808181508083A381B4818C912381F8
:101D700034812F5F3F4F34832383438154819F01FC
:101D8000235F3F4F4217530719F00F900FBE08957E
:101D90009F012B5F3F4F348323830F900FBE089525
:101DA000FC018081883018F480818F5F8083A1815D
:101DB000B2816C938181928101969283818321818A
:101DC0003281CF010D962817390709F00895CF0108
:101DD0000596928381830895FC010FB60F92F894C3
:101DE0008081883018F480818F5F8083A181B281E7
:101DF0006C938181928101969283818321813281CA
:101E0000CF010D962817390719F00F900FBE0895CE
:101E1000CF010596928381830F900FBE0895FC0138
:101E20008081882311F080E008958FEF08958091DC
:101E30004B028093BB00ECEBF0E080818F708068F8
:101E4000808308958091AE029091BB00EFEAF2E0AA
:101E5000E80FF11D90838F5F8093AE02ECEBF0E012
:101E600080818F70806D808310924602089585E096
:101E7000809346021092AE02ECEBF0E080818F700E
:101E8000806C808308958091BC008F70806C8093FB
:101E9000BC00E0914702F0914802309729F0809110
:101EA000AE026FEA72E00995109246020895ECEBDB
:101EB000F0E080818F70806C8083109246020895DC
:101EC000089589E392E064E00E94EC0E0895ECEB43
:101ED000F0E080818F708068808389E392E063E026
:101EE0000E94EC0E109246020895ECEBF0E0808127
:101EF0008F70806D808389E392E062E00E94EC0E37
:101F0000109246020895ECEBF0E080818F70806DB6
:101F1000808389E392E061E00E94EC0E1092460219
:101F2000089584E080934602E0914902F0914A02CC
:101F3000309731F080E26CE472E0099580936D0295
:101F400080914C028093BB0081E080936C02809171
:101F50006D02823038F48091BC008F70806880936D
:101F6000BC0008958091BC008F70806C8093BC0091
:101F7000089580916C02E82FF0E0E45BFD4F9081C2
:101F80009093BB008F5F80936C0290916D028917D4
:101F900038F08091BC008F7080688093BC000895F9
:101FA0008091BC008F70806C8093BC0008958091FC
:101FB0006C0290916D02891748F08091BC008F707F
:101FC000806D8093BC00109246020895E82FF0E0E7
:101FD000E45BFD4F90818F5F80936C029093BB0018
:101FE0008091BC008F7080688093BC000895ECEBFA
:101FF000F0E080818F708068808308958091AE02C8
:102000009091BB00E82FF0E0E155FD4F90838F5F8A
:102010008093AE02803238F08091BC008F7080686F
:102020008093BC0008958091BC008F70806C809379
:10203000BC000895ECEBF0E080818F7080688083B5
:1020400008958091AE029091BB00EFEAF2E0E80FB4
:10205000F11D90838F5F8093AE02ECEBF0E0808106
:102060008F70806880830895BC01019721E08039DA
:10207000920710F080E0089580E29EE40E940B2514
:10208000603128F070E060517040759567956093FD
:10209000B8008FEF0895181614F080E0089590E0CE
:1020A000880F991F21E0662309F420E0822B80939A
:1020B000BA008FEF08959093020180930101089573
:1020C00090930401809303010895909306018093F7
:1020D00005010895909348028093470208959093D4
:1020E0004A02809349020895ECEBF0E080818F7002
:1020F000806A80830895ECEBF0E080818F70806DC2
:10210000808308958091BC0087FFFCCF0895809361
:10211000BB00ECEBF0E080818F70806880830895D5
:10212000882339F48091BC008F7080688093BC0054
:1021300008958091BC008F70806C8093BC000895DE
:10214000EF92FF920F931F93CF93DF9300D0CDB701
:10215000DEB7E82E162F042FF52ECE0101960E9431
:10216000C01F0AC06091010170910201CE01019669
:102170000E94CD1F882389F580914602882391F71C
:1021800082E0809346028E2D90E0880F991F809305
:102190004B02112371F0A02FBF2DECE4F2E0812F50
:1021A000815090E0835B9D4F2D912193E817F907B3
:1021B000D9F710926C0210936D028091BC008F7061
:1021C000806A8093BC008FEF0F900F90DF91CF91CA
:1021D0001F910F91FF90EF90089589E392E065E0E1
:1021E0000E94EC0E80E0F0CFCF93DF9300D0CDB70C
:1021F000DEB70E94A010882331F480E00F900F908A
:10220000DF91CF910895CE0101960E94C01F0AC0B0
:102210006091030170910401CE0101960E94CD1FCF
:10222000882369F480914602882391F789E392E03C
:102230000E940F0F0F900F90DF91CF91089589E3C7
:1022400092E066E00E94EC0E80E00F900F90DF912C
:10225000CF9108951F920F920FB60F9211242F93D2
:102260003F934F935F936F937F938F939F93AF931E
:10227000BF93EF93FF93E091B900E695E695E6955D
:10228000F0E0EE0FFF1FE259FD4F0190F081E02DCD
:102290000995FF91EF91BF91AF919F918F917F91A0
:1022A0006F915F914F913F912F910F900FBE0F90C3
:1022B0001F90189585E79FE090936F0280936E02C0
:1022C00087E19FE090937102809370029093730274
:1022D0008093720227ED3FE03093750220937402E1
:1022E00083E89FE09093770280937602309379029F
:1022F0002093780290937B0280937A0227E63FE056
:1023000030937D0220937C022AE130E130937F02FA
:1023100020937E02909381028093800281E290E17B
:10232000909383028093820282E29FE090938502E1
:102330008093840287E39FE09093870280938602D4
:10234000909389028093880290938B0280938A02F3
:1023500090938D0280938C022EEF3FE030938F029A
:1023600020938E0287EF9FE09093910280939002DA
:10237000309393022093920290939502809394025B
:1023800083E49FE0909397028093960281E99FE017
:10239000909399028093980290939B0280939A0263
:1023A00089EB9FE090939D0280939C0287E59FE0DC
:1023B00090939F0280939E029093A1028093A0022B
:1023C00080E69FE09093A3028093A2029093A502DF
:1023D0008093A4029093A7028093A6029093A902EF
:1023E0008093A8029093AB028093AA0281E69FE0BB
:1023F0009093AD028093AC020895449A459A10924E
:1024000048021092470210924A02109249020E941A
:102410005A1189E392E00E94840E0E948E1F8CE57F
:102420008093B800ECEBF0E08081846080831092B0
:10243000460280818160808380818064808378947B
:1024400008950FB60F92F894E1E8F0E09081987F3C
:10245000892B80830F900FBE08950FB60F92F894CA
:102460008093D6022098289A813041F08091810093
:102470008F7B809381000F900FBE08958091810023
:102480008064809381000F900FBE08950FB60F9265
:10249000F8949093D8028093D7020F900FBE0895BE
:1024A0000FB60F92F8949093DA028093D9020F90AE
:1024B0000FBE08950FB60F92F8949093DC028093AC
:1024C000DB020F900FBE08950FB60F92F894109292
:1024D00085001092840010928700109286000F9061
:1024E0000FBEB59AEFE6F0E08081806280830895A8
:1024F00081E00E942D120FB60F92F894E1E8F0E00F
:102500008081887F816080830F900FBE1092800051
:10251000E1E8F0E08081806880830E946412789412
:102520000895EFE6F0E080818F7D8083B59A0FB645
:102530000F92F894109285001092840010928700F8
:10254000109286000F900FBE0895EFE6F0E08081B4
:10255000816080830895EFE6F0E080818E7F808344
:1025600008950FB60F92F8942091D4023091D502BD
:10257000FC01318320830F900FBE2115310511F42A
:1025800080E008958FEF08951F920F920FB60F927B
:1025900011242F933F934F935F936F937F938F9368
:1025A0009F93AF93BF93EF93FF9320918600309159
:1025B000870083B14091D60290E08170907050E026
:1025C0008417950709F45EC03093D1022093D0029E
:1025D0008091D0029091D1022091D2023091D30209
:1025E000821B930B9093D5028093D4028091CF02EB
:1025F00081508093CF028091D602813009F455C07A
:10260000809181008F7B80938100109285001092D1
:1026100084008091CF028823F1F01092CF021092B3
:10262000D5021092D402E091DB02F091DC023097E7
:1026300009F00995FF91EF91BF91AF919F918F9113
:102640007F916F915F914F913F912F910F900FBEAE
:102650000F901F9018952091D2023091D302809153
:10266000D0029091D10282179307B8F2E091D7027D
:10267000F091D8023097F1F28091D4029091D50276
:102680000995D8CF3093D3022093D2028091D602FD
:10269000813089F0809181008064809381008091F5
:1026A000CF028F5F8093CF02C5CF8091810080647D
:1026B00080938100AACF809181008F7B80938100DD
:1026C000EECF1F920F920FB60F9211242F933F93CC
:1026D0004F935F936F937F938F939F93AF93BF932A
:1026E000EF93FF93E091D902F091DA02309709F06D
:1026F0000995FF91EF91BF91AF919F918F917F913C
:102700006F915F914F913F912F910F900FBE0F905E
:102710001F9018959093E1028093E002089580E85D
:1027200096E9A8E9B5E480930E0190930F01A09378
:102730001001B093110182E085BDE1EBF0E08083F0
:1027400085B5877F85BD84B58D7F84BD84B5836065
:1027500084BD84B5806184BD84B5806284BD84B548
:102760008F7384BD8081877F8083E0EBF0E0808180
:102770008D7F80838081836080838081806180837E
:1027800080818062808380818F73808318BC1092E7
:10279000B400EEE6F0E08081816080837894E4E626
:1027A000F0E080818F7980830895DC01CB01AC015A
:1027B000BD01B7FD18C0452F562F672F77274F3F14
:1027C00051056105710529F020F04FEF50E060E000
:1027D00070E0B7FD04C048BD1092B400089518BC65
:1027E0004093B400089544275527BA01481B590B5C
:1027F0006A0B7B0BE0CF882361F45C9818BC1092C5
:10280000B4000FB60F92F8948093DD020F900FBEC4
:1028100008955C9AF3CF0FB60F92F8948091DD0281
:102820000F900FBE08951F920F920FB60F921124B2
:102830002F933F934F935F936F937F938F939F93C8
:10284000AF93BF93EF93FF938091DE029091DF02ED
:1028500001969093DF028093DE028230910548F06A
:10286000E091E002F091E10209951092DF021092EE
:10287000DE02FF91EF91BF91AF919F918F917F9178
:102880006F915F914F913F912F910F900FBE0F90DD
:102890001F9018954F925F926F927F928F929F92A6
:1028A000AF92BF92CF92DF92EF92FF920F931F935E
:1028B000CF93DF9300D000D0CDB7DEB78C01FC0101
:1028C00086819781A085B18582879387A487B58704
:1028D000068CF78DE02D09956B017C01F801868946
:1028E0009789A08DB18DC81AD90AEA0AFB0AC68257
:1028F000D782E086F18686849784A088B1888C0C84
:102900009D1CAE1CBF1C86869786A08AB18A8289D0
:102910009389A489B58988159905AA05BB0534F45E
:1029200086879787A08BB18B4C015D01B095A095F0
:10293000909581959F4FAF4FBF4F88169906AA0675
:10294000BB063CF4F80186879787A08BB18B4C01BE
:102950005D01D8012D913C9140E050E0C701B601E6
:102960000E94EC242B013C01F801848195819C019B
:1029700040E050E029833A834B835C8382859385D2
:10298000A485B585A7019601281B390B4A0B5B0B63
:1029900069817A818B819C810E94EC24DC01CB01CE
:1029A000480E591E6A1E7B1ED80112962D913C912D
:1029B000139740E050E0C501B4010E94EC24DC0113
:1029C000CB01892F9A2FAB2FBB27A7FDBA95480EB5
:1029D000591E6A1E7B1ED8015C96ED91FC915D9795
:1029E000C301B20109950F900F900F900F90DF91E6
:1029F000CF911F910F91FF90EF90DF90CF90BF90FC
:102A0000AF909F908F907F906F905F904F900895C0
:102A1000FF920F931F93CF93DF93182FEB01042F97
:102A2000882351F583EE96E19D838C838FE297E1B5
:102A30009F838E8387E697E1998788878CE697E165
:102A40009B878A8780910701909108019B838A83E5
:102A5000842F64E670E00E94C716FF24FA9419835D
:102A60000883E885F9858FEF09958F2DDF91CF9148
:102A70001F910F91FF900895843010F58DEE98E12D
:102A80009D838C8380E299E19F838E8386EF99E119
:102A90009987888789EF99E19B878A8780910A01C6
:102AA00090910B019B838A838981642F20E835E212
:102AB00040E050E00E94C218882311F4FF24CFCFD9
:102AC000FF24FA94CCCFCF92DF92EF92FF920F9334
:102AD0001F93CF93DF9300D0CDB7DEB77C018B017E
:102AE00022E0C22ED12CC60ED71EDB0113963C91DC
:102AF00013973E5F09F442C0F60190E080E0219117
:102B000092278F5F8317D8F3F801948B8281D701C6
:102B10001496ED91FC911597883C80F4C8010995B5
:102B2000882379F480E00F900F90DF91CF911F916F
:102B30000F91FF90EF90DF90CF900895C801099515
:102B4000F2CFCE0101960E94C01FD7011696ED91DB
:102B5000FC911797C8010995882391F4CE0101963D
:102B600068EC70E00E94CD1F882379F3F701828121
:102B7000938161E20E94EC0E80E0D5CF90E0C4CF5B
:102B8000F801448933813E5FB1F0F60190E080E0C6
:102B9000219192278F5F8317D8F3491751F0D701FE
:102BA00012968D919C91139762E20E94EC0E80E048
:102BB000BACF8FEFB8CF90E0F0CF0F931F93CF93A2
:102BC000DF938C01EB01DC011696ED91FC911797D8
:102BD000CB0109958823D9F04C89FE0132963B81BF
:102BE0003E5F90E031F080E0219192278F5F831764
:102BF000D8F3491791F0F8018281938162E20E9433
:102C0000EC0E80E0DF91CF911F910F91089580E04D
:102C1000DF91CF911F910F9108958FEFDF91CF91A9
:102C20001F910F910895DF92EF92FF920F931F93E0
:102C3000CF93DF937C01EB018A019881D7018C91BE
:102C4000981709F042C0898188838C9189838A8191
:102C50008436C8F101151105D1F0C8010E940F0F8B
:102C60008823A9F48AEF8A831B82DD2401C0DB80DC
:102C7000C8010E94AD0EFE01ED0DF11D84838B8114
:102C80008F5F8B83C8010E940F0F882381F3FE01A1
:102C900032963B813E5F90E031F080E021919227B7
:102CA0008F5F8317D8F39C8BD7011496ED91FC911D
:102CB0001597CE010995DF91CF911F910F91FF904C
:102CC000EF90DF9008951B82C5CF8FEFF4CF66237E
:102CD00049F0FC0180E090E0219182279F5F9617E8
:102CE000D9F7089580E008951F93CF93DF93182FAD
:102CF000EB018091E2028F3F09F441C0888180930B
:102D0000E30289818093E4028A818093E5028B81CA
:102D10008093E6022091E60230E02B5F3F4F812F47
:102D200090E028173907E9F424968091E602882379
:102D300071F0DE0180E0E82FF0E09D91ED51FD4F54
:102D40009483ED018F5F9091E6028917A0F388814B
:102D50008093F7028FEF8093E202DF91CF911F9172
:102D60000895809107019091080162E10E94D00EC0
:102D70008FEF8093E202DF91CF911F9108958091B0
:102D800007019091080161E10E94D00EB7CF0F9327
:102D90001F93CF93DF930F92CDB7DEB78B0189835B
:102DA0000E94FD11898161E00E944B10C8010E94C0
:102DB000341084E796E10E946A100F90DF91CF9162
:102DC0001F910F9108950F931F93CF93DF93CDB76A
:102DD000DEB765970FB6F894DEBF0FBECDBFAC016E
:102DE000DC018C91898311969C9111979A8312969C
:102DF0009C9112979B8313966C9113976C83662317
:102E000051F1FA0134968E010B5F1F4FD8019E01DC
:102E10002A5F3F4F962F9150290F311D91919D931D
:102E2000A217B307D9F7F801E60FF11DDA0154969E
:102E30009C9190836B5FAE014F5F5F4F0E94F410D7
:102E400065960FB6F894DEBF0FBECDBFDF91CF9170
:102E50001F910F9108958E010B5F1F4FE4CFCF9309
:102E6000DF93EC0180910701909108010E940F0F00
:102E7000882321F08091E202882321F480E0DF9111
:102E8000CF9108950FB60F92F8948091E302888352
:102E90008091E40289838091E5028A833091E60281
:102EA0003B838091F7028C8B332359F0249680E08A
:102EB00090E0FC01ED51FD4F248129930196831789
:102EC000C0F31092E2020F900FBE8FEFD8CF809523
:102ED000880F8093BD00089528EE33E040E050E075
:102EE0000E941F25C9010E94341008951092F90212
:102EF0001092FA0208951092F9021092FA020895BF
:102F00008091F9028823D9F58091FA02982F9F5F6A
:102F10009093FA028A3008F40895109263010E9497
:102F2000120E10924D0110924E0110924F0110920C
:102F300050011092510110925201109253011092BF
:102F400054010E940B0DDC01CB0180935901909339
:102F50005A01A0935B01B0935C018FEF0E94FB13B9
:102F60000E94E60D909302038093010381E0809319
:102F70000D018FEF8093F9021092FA0208958FEFFE
:102F80008093F80208950E94781282E00E94211234
:102F90000FB60F92F8941092020310920103109250
:102FA00000031092FF021092FA021092F90210929E
:102FB000F8020F900FBE80E897E10E94461286E764
:102FC00097E10E945A128BE797E10E9450120895F0
:102FD000CF93DF9300D0CDB7DEB78091F90288237D
:102FE00021F08091F802882329F40F900F90DF914F
:102FF000CF9108951092F802CE0101960E94B1126D
:10300000882399F369817A81CB01815B944023E124
:103010008B3E920750F780E090E00E94952327E1D5
:1030200037EB41E55FE30E9423240E9464238091F3
:1030300001039091020328E08130920708F477C0E1
:103040008091010390910203681B790B60507C4FC3
:103050008091FD029091FE029093FC028093FB020E
:103060008091FF02909100039093FE028093FD02F5
:103070008091FF0290910003860F971F9595879589
:10308000909300038093FF026091FF027091000310
:103090002091FD023091FE028091FF029091000389
:1030A0004091FB025091FC02621B730B77FD4CC0F8
:1030B000841B950B97FD44C086179707DCF0609141
:1030C000FB027091FC022091FD023091FE02809182
:1030D000FF02909100034091FB025091FC02621BA1
:1030E000730B77FD3BC0841B950B97FD33C0861790
:1030F000970794F48091FF02909100032091FB02C6
:103100003091FC02820F931F97FD22C09595879501
:103110009093FE028093FD026091FD027091FE0289
:10312000882777FD8095982F0E94FF085ECF8091B9
:10313000010390910203681B790B60507C4088CF9B
:10314000909581959F4FB8CF709561957F4FB0CF87
:103150000196DCCF909581959F4FC9CF7095619571
:103160007F4FC1CF0FB60F92F894809304030F9056
:103170000FBE08950FB60F92F8940F900FBE809176
:1031800004030895CF92DF92EF92FF92CF93C62F60
:1031900069017A018230D9F0C09303030E94E120D3
:1031A000882399F0CFEFC701B6010E9443208823FE
:1031B00009F4C0E085E093E00E94C01F8C2FCF91FE
:1031C000FF90EF90DF90CF900895C0E0ECCF8BE2BE
:1031D00090E062E00E948D20DFCFCF93DF93EC017F
:1031E00085E50E943621882321F480E0DF91CF918C
:1031F00008958AEA0E9436218823B9F388810E94C3
:103200003621882391F389810E943621882369F32E
:103210008A810E943621882341F38B810E943621C6
:10322000882319F3CE0104966B810E94A72188237D
:10323000E1F28C890E9436218823C1F28FEFD6CF2C
:103240000F931F93CF93DF930F92CDB7DEB78C010F
:103250000FB60F92F8940F900FBE8091040388234D
:1032600091F5CE0101960E947A21882339F480E0FD
:103270000F90DF91CF911F910F91089585E093E01A
:103280000E94C01F80910703833009F499C08430E5
:1032900008F436C0853009F46AC0853008F44CC0A3
:1032A000863009F478C0873011F78981F801848B62
:1032B000109207030FB60F92F894109204030F9028
:1032C0000FBE8FEFD5CF85E093E062E370E00E9400
:1032D000CD1F882331F21092070380910A0190914B
:1032E0000B0161E10E94EC0E85E093E00E94C01F9B
:1032F0000FB60F92F894109204030F900FBEB1CF47
:10330000813009F440C0823008F199818091030333
:10331000892720910C01822309F45AC0992309F4CA
:1033200057C0109207030FB60F92F894109204033F
:103330000F900FBE80E09CCF8981D80112968C93AC
:10334000129785E08093070380E092CF89818535CD
:1033500009F08DCF81E0809307030FB60F92F894A8
:103360008FEF809304030F900FBE80E081CF89819F
:10337000F801838380930803882389F186E0809392
:10338000070380E075CF89818A3A71F180E08093EC
:10339000070380E06DCF80910803D8011396EC916C
:1033A0001397F0E0E81BF109E00FF11F9981948376
:1033B000815080930803882309F059CF87E0E7CF35
:1033C0008981F801818384E08093070380E050CFF6
:1033D00083E080930703D8019C9380E049CF87E086
:1033E0008093070380E044CF82E0D1CF80930C012B
:1033F00008950E94432008954F925F926F927F92AA
:103400008F929F92AF92BF92CF92DF92EF92FF92F4
:10341000CF93DF9300D000D0CDB7DEB70E944C0E23
:1034200080910D01882379F0833001F1843009F413
:103430009EC0823009F467C0E0915D01F0915E01A9
:1034400083E491E009950F900F900F900F90DF911A
:10345000CF91FF90EF90DF90CF90BF90AF909F9073
:103460008F907F906F905F904F90089540902A01C9
:1034700050902B0160902C0170902D01C0900E0196
:10348000D0900F01E0901001F09011018090260182
:1034900090902701A0902801B0902901C301B201AA
:1034A000A70196010E9423240E94642369837A83E2
:1034B0008B839C83C701B601A50194010E9423243C
:1034C0000E946423DC01CB0129813A814B815C811C
:1034D000281B390B4A0B5B0BDA01C9010196A11DB0
:1034E000B11D83309105A105B10508F086C082E0C9
:1034F00080930D0180922A0190922B01A0922C01C1
:10350000B0922D0199CF6091220170912301809199
:1035100024019091250120912A0130912B014091A5
:103520002C0150912D010E9498229B01F82FE92F28
:10353000462F532F682F792F409322015093230158
:103540006093240170932501822F932FAF2FBE2FFC
:10355000BC01CD010E946423DC01CB0180935901A1
:1035600090935A01A0935B01B0935C0165CF809169
:103570004201813009F4C5C0813008F068C08090F4
:103580002A0190902B01A0902C01B0902D01C090A9
:103590000E01D0900F01E0901001F0901101C501D3
:1035A000B401A70196010E9423240E9464232B01E9
:1035B0003C01C701B60120912601309127014091BD
:1035C0002801509129010E9423240E946423DC01D8
:1035D000CB01481A590A6A0A7B0A0894411C511CFB
:1035E000611C711C33E0431651046104710408F03E
:1035F0007BC081E0809342011FCFC301B2012091C3
:103600002E0130912F0140913001509131010E94E3
:1036100098229B01F82FE92F462F532F682F792FDF
:1036200040932A0150932B0160932C0170932D013C
:10363000822F932FAF2FBE2FBC01CD0120912201ED
:103640003091230140912401509125016CCF8230AB
:1036500009F0F2CE60912A0170912B0180912C012A
:1036600090912D0120910E0130910F014091100198
:10367000509111010E9423240E946423DC01CB019C
:103680000196A11DB11D83309105A105B10508F476
:1036900071C00E94D70CDC01CB01C0903A01D090E0
:1036A0003B01E0903C01F0903D018C199D09AE0971
:1036B000BF09B7FD57C082309105A105B1050CF4D3
:1036C00061C060912A0170912B0180912C01909131
:1036D0002D0120912E0130912F0140913001509108
:1036E00031010E94972295CFC501B40120912E018E
:1036F00030912F0140913001509131010E94982268
:1037000088CF0E94D70CDC01CB014091360150914B
:1037100037016091380170913901841B950BA60B1C
:10372000B70BB7FD17C082309105A105B1050CF4A8
:1037300043C06091220170912301809124019091F6
:1037400025012091260130912701409128015091B7
:103750002901E9CEB095A095909581959F4FAF4FE7
:10376000BF4FE1CFB095A095909581959F4FAF4FFA
:10377000BF4FA1CFC0903A01D0903B01E0903C01F7
:10378000F0903D01C701B6010E949723DC01CB01F7
:103790008093220190932301A0932401B0932501EB
:1037A000C0925901D0925A01E0925B01F0925C0103
:1037B00081E080930D0140CE82E0809342013CCEB7
:1037C00084E084B985B18E6385B917B888B1806308
:1037D00088B98CE38AB980EC8BB9089580E090E0D9
:1037E0000E94B0268093120180E190E00E94BE26E4
:1037F000909344018093430180E290E00E94BE26B2
:10380000909346018093450180E390E00E94BE269C
:10381000909348018093470180E490E00E94BE2687
:10382000909315018093140180E590E00E94BE26DC
:10383000909317018093160180E890E00E94B026D3
:103840008093130180EA90E00E94B826DC01CB014E
:103850008093180190931901A0931A01B0931B0152
:1038600080E990E00E94B826DC01CB0180931C0126
:1038700090931D01A0931E01B0931F0180E690E07C
:103880000E94BE2690933F0180933E0180E790E026
:103890000E94BE26909341018093400180EB90E00E
:1038A0000E94B0268093200180EC90E00E94B02618
:1038B00080932101089584E084B985B18E6385B930
:1038C00017B888B1806388B98CE38AB980EC8BB96A
:1038D0000E948F1380E00E94FB13F8948CEF99E113
:1038E0000E948A130E94A80D0E94120EF8940E9452
:1038F000EE1B109263011092490110924A0110923E
:103900004B0110924C0110924D0110924E011092F9
:103910004F011092500110925101109252011092D9
:103920005301109254011092590110925A011092B1
:103930005B0110925C0185ED93E1909360018093AF
:103940005F018BE09DE09093620180936101609143
:103950004301709144018FEF9FEF0E940B25962F3A
:103960008827861B970BA0E0B0E0809355019093C9
:103970005601A0935701B093580180E090E0DC011C
:1039800080932A0190932B01A0932C01B0932D01D9
:1039900010920D010E94E11D0E945300F89480E0F6
:1039A0000E94930080E00E94A30081E00E94A30097
:1039B00082E00E94A30083E00E94A30087E00E94AF
:1039C000A3007894089580E090E064E00E94C4260B
:1039D00080E190E060E971E00E94DA2680E290E008
:1039E00064E670E00E94DA2680E390E064E670E02E
:1039F0000E94DA2680E490E068E273E20E94DA2610
:103A000080E590E068E873E10E94DA2680E890E0C3
:103A100060E00E94C42680EA90E040E052EC61E061
:103A200070E00E94D22680E990E040E85AE166E02A
:103A300070E00E94D22680E690E060E273E00E948F
:103A4000DA2680E790E060E273E00E94DA2680EBFD
:103A500090E06FEF0E94C42680EC90E060E00E944E
:103A6000C42608958F929F92AF92BF92CF92DF9219
:103A7000EF92FF92C0900E01D0900F01E0901001E4
:103A8000F0901101C701B60120912A0130912B015C
:103A900040912C0150912D010E9423240E94642307
:103AA0004B015C01C701B60120912601309127012D
:103AB00040912801509129010E9423240E946423EF
:103AC000DC01CB01881A990AAA0ABB0A0894811C56
:103AD000911CA11CB11C83E088169104A104B104BF
:103AE00050F080E0FF90EF90DF90CF90BF90AF90CC
:103AF0009F908F9008958FEFF5CF0E94D70CDC0137
:103B0000CB0140913601509137016091380170919D
:103B10003901841B950BA60BB70BB7FD07C082308C
:103B20009105A105B10554F080E00895B095A095E8
:103B3000909581959F4FAF4FBF4FF1CF8FEF089575
:103B400060912A0170912B0180912C0190912D019F
:103B500020910E0130910F014091100150911101FF
:103B60000E9423240E946423DC01CB010196A11D45
:103B7000B11D83309105A105B10508F10E94D70C54
:103B8000DC01CB0140913A0150913B0160913C0135
:103B900070913D01841B950BA60BB70BB7FD07C0B9
:103BA00082309105A105B10554F080E00895B095EB
:103BB000A095909581959F4FAF4FBF4FF1CF8FEF5D
:103BC000089586E193E00E94840E89E093E00E94CC
:103BD000840E0E948E1F83E293E00E94C01F08950E
:103BE000CF92DF92FF920F931F93CF93DF930F92A9
:103BF000CDB7DEB76C018B01FF24F6018281938182
:103C00000E940F0F882309F5F601828193810E949B
:103C1000AD0E282F813298F5F6018181882331F588
:103C2000622F605E86E193E029830E94EC0E298179
:103C3000213111F0223109F7FF24FA94F601828133
:103C400093810E940F0F8823F9F2FF2031F0C60103
:103C5000B80146E153E00E9413160F90DF91CF9117
:103C60001F910F91FF90DF90CF900895843028F638
:103C7000622F605C86E193E00E94EC0EBECF682F5D
:103C8000605D86E193E029830E94EC0E2981223257
:103C900009F0B3CFFF24FA94D1CF87E991E00E94D5
:103CA0000F0F8823B1F487E991E00E94AD0E8530B3
:103CB000B0F090912101682F605F992359F489E059
:103CC00093E00E94EC0E87E991E00E940F0F882399
:103CD00051F3089586E193E00E94EC0EDECF682F49
:103CE000605F86E193E00E94EC0ED7CFFF920F93C6
:103CF0001F93CF93DF93EC018B0125E0F22E8A8195
:103D00009B810E940F0F8823C1F48A819B810E94AE
:103D1000AD0E9981992309F5833041F580912101F8
:103D2000882359F589E093E063E20E94EC0E8A81D2
:103D30009B810E940F0F882341F3CE01B80146E119
:103D400053E00E941316882311F4FA94C1F6DF9110
:103D5000CF911F910F91FF900895943080F6682FB6
:103D6000605C86E193E00E94EC0EC9CF682F605E34
:103D700086E193E00E94EC0EC2CF86E193E063E21D
:103D80000E94EC0EBCCFCF92DF92EF92FF920F9386
:103D90001F930FB60F92F894C0902503D09026037E
:103DA000E0902703F09028030E940B0DAB01BC01AB
:103DB00040932503509326036093270370932803B1
:103DC0008091590190915A01A0915B01B0915C01E1
:103DD0000F900FBE481B590B6A0B7B0B8A019B018E
:103DE00009531F4F2F4F3F4F0F38E1E01E07E0E010
:103DF0002E07E0E03E07F8F077FD29C0C81AD90A7F
:103E0000EA0AFB0AF7FC30C04C155D056E057F051C
:103E100044F480E01F910F91FF90EF90DF90CF90DE
:103E2000089583E293E060ED77E00E94CD1F882340
:103E300089F38FEFEFCF83E293E00E94C01F80E011
:103E40001F910F91FF90EF90DF90CF9008957095A4
:103E50006095509541955F4F6F4F7F4FC81AD90AB3
:103E6000EA0AFB0AF7FED0CFF094E094D094C09415
:103E7000C11CD11CE11CF11CC7CF0FB60F92F894E6
:103E80000F900FBE80910D01882309F408950E94C0
:103E9000C31E8823E1F40E94520E882371F40E940D
:103EA0006B0E882399F380E090E00E949C0486E1E9
:103EB00093E063E00E94EC0E089580E090E00E94A1
:103EC0009C0486E193E062E00E94EC0EE8CF80E083
:103ED00090E00E949C0486E193E061E00E94EC0E79
:103EE000DACF229A239A2498259A2D9A2A9A1CBCD2
:103EF0008CB580618CBD8CB582608CBD8CB58460C6
:103F00008CBD8DB581608DBD8CB580648CBD0895F0
:103F10008EBD0DB407FEFDCF8EB5089588ED80935C
:103F200060000FB60F92F8948FEF809329030F90E3
:103F30000FBE08950FB60F92F89490936901809385
:103F400068010F900FBE08950FB60F92F8948FEF8F
:103F5000809329030F900FBE08950FB60F92F89427
:103F60008FEF809329030F900FBE08950FB60F9225
:103F7000F89410922B0310922A030F900FBE08950D
:103F80000FB60F92F89420912C0330912D03FC0171
:103F9000318320830F900FBE08950FB60F92F894CF
:103FA00020912C0330912D030F900FBEFC018081D6
:103FB00091812817390710F421503040281B390B04
:103FC0002617370710F480E008958FEF08950FB695
:103FD0000F92F89420912C0330912D03FC01318332
:103FE00020830F900FBE08950FB60F92F894409162
:103FF0002C0350912D030F900FBEFC0120813181C5
:10400000CA014217530720F40197821B930B0895AE
:10401000821B930B08951F920F920FB60F921124DB
:104020002F933F938F939F9380912C0390912D0317
:10403000409690932D0380932C0380912A039091B6
:104040002B03409690932B0380932A0320912A03FD
:1040500030912B0380916801909169018217930739
:1040600020F480912903882329F4809160008065E1
:10407000809360009F918F913F912F910F900FBE81
:104080000F901F9018950F931F939B01AC0160EA4E
:1040900075E286E290E00E941F2589019A01D9010C
:1040A000C8010297A109B1098F3F4FEF940740E083
:1040B000A40740E0B40720F080E01F910F9108951D
:1040C0000150104020403040BB27A32F922F812F5A
:1040D0008093C5000093C4008FEFEFCFE2ECF0E0D7
:1040E0002081982F9670297F922B9083E1ECF0E04D
:1040F0009081869584709B7F892B80830895E2EC64
:10410000F0E090819F7C982B90830895E2ECF0E0A2
:1041100090819F77982B90830895FC018FEF809377
:104120004C03F0934E03E0934D0360933B03DF0198
:104130002E9181E090E002C0880F991F6A95E2F706
:10414000282B2C939081809589238083E1ECF0E0EB
:104150008081806480830895CF93C82F84E493E0A6
:104160006C2F0E944C01882339F08CE393E06C2F74
:104170000E944C01882341F48EE293E061E00E94AA
:10418000EC0E80E0CF9108958FEFFCCF90936B0100
:1041900080936A0108958CE393E00E9433010895AF
:1041A00084E493E00E942B01089502C08091C60030
:1041B0008091C00087FDFACF84E493E00E943C0127
:1041C00008951092C20084E493E060E20E944C01E2
:1041D000882339F08CE393E060E20E944C0188234D
:1041E00039F48EE293E061E00E94EC0E80E00895E5
:1041F0008EE293E00E94840E0E948E1F8091C00088
:1042000082608093C0008091C0008E7F8093C00048
:104210008091C2008F738093C2001092C50084E128
:104220008093C4008091C20086608093C200809118
:10423000C1008B7F8093C1008091C2008F7C8093EE
:10424000C2008091C2008F778093C2008091C1002C
:1042500080698093C1008091C100877F8093C100F5
:1042600051980E94D52078948FEF08951F93CF9393
:10427000DF9300D0CDB7DEB7182FCE0101960E9494
:10428000C01F0AC060916A0170916B01CE01019656
:104290000E94CD1F8823B1F48CE393E00E94330188
:1042A000882381F78CE393E0612F0E94C6018091FF
:1042B0003D03813099F08FEF0F900F90DF91CF91F8
:1042C0001F9108958EE293E067E00E94EC0E80E07B
:1042D0000F900F90DF91CF911F9108958091C100B1
:1042E00080628093C1008FEF0F900F90DF91CF918C
:1042F0001F910895CF93DF93EC018EE293E00E942B
:104300000F0F882321F480E0DF91CF91089584E49A
:1043100093E00E942B018823B1F784E493E00E948C
:104320008D0188838FEFF0CFCF93DF93EC0104C032
:104330000E943621882339F089918823C9F78FEFAD
:10434000DF91CF91089580E0DF91CF9108950F9391
:104350001F93CF93DF93062F662389F0EC0110E0C3
:1043600003C01F5F101759F089910E9436218823DE
:10437000C1F780E0DF91CF911F910F9108958FEFEA
:10438000DF91CF911F910F9108951F920F920FB659
:104390000F9211242F933F934F935F936F937F93CB
:1043A0008F939F93AF93BF93CF93EF93FF9380919E
:1043B000C00084FD39C08091C00082FD2FC0809173
:1043C000C00083FD25C0C091C60084E493E00E9434
:1043D00033018823B9F08EE293E065E00E94D00EAD
:1043E000FF91EF91CF91BF91AF919F918F917F916D
:1043F0006F915F914F913F912F910F900FBE0F9052
:104400001F90189584E493E06C2F0E94AD01E8CFD3
:104410008EE293E066E00E94D00ED5CF8EE293E06C
:1044200064E00E94D00ECBCF8EE293E063E00E9466
:10443000D00EC1CF1F920F920FB60F9211242F935F
:104440003F934F935F936F937F938F939F93AF931C
:10445000BF93EF93FF938CE393E00E942B0188239B
:1044600081F58091C10088608093C10080914C03E8
:10447000882381F0E0914D03F0914E03208130912B
:104480003B0381E090E002C0880F991F3A95E2F764
:10449000282B20838CE393E00E9474018093C60054
:1044A000FF91EF91BF91AF919F918F917F916F910C
:1044B0005F914F913F912F910F900FBE0F901F90E2
:1044C00018958091C1008F7D8093C100E9CF1F9224
:1044D0000F920FB60F9211242F933F938F939F93B8
:1044E000EF93FF93E1ECF0E08081877F8083519828
:1044F000E0914D03F0914E03208130913B0381E028
:1045000090E002C0880F991F3A95E2F780958223C8
:104510008083FF91EF919F918F913F912F910F9009
:104520000FBE0F901F9018950E94E31CFFCF5058AC
:10453000BB27AA270ED04DC13ED130F043D120F089
:1045400031F49F3F11F41EF433C10EF4E095E7FB04
:1045500029C1E92F4FD180F3BA1762077307840787
:10456000950718F071F49EF567C10EF4E0950B2ED7
:10457000BA2FA02D0B01B90190010C01CA01A001B5
:104580001124FF27591B99F0593F50F4503E68F110
:104590001A16F040A22F232F342F4427585FF3CF51
:1045A000469537952795A795F0405395C9F77EF422
:1045B0001F16BA0B620B730B840BBAF09150A1F06B
:1045C000FF0FBB1F661F771F881FC2F70EC0BA0FF1
:1045D000621F731F841F48F4879577956795B79579
:1045E000F7959E3F08F0B3CF9395880F08F0992771
:1045F000EE0F9795879508950CD0EBC0E3D040F06F
:10460000DAD030F021F45F3F19F0CCC0511115C160
:10461000CFC0F0D098F39923C9F35523B1F3951B7C
:10462000550BBB27AA2762177307840738F09F5FD3
:104630005F4F220F331F441FAA1FA9F333D00E2E42
:104640003AF0E0E830D091505040E695001CCAF7AF
:1046500029D0FE2F27D0660F771F881FBB1F261774
:1046600037074807AB07B0E809F0BB0B802DBF0147
:10467000FF2793585F4F2AF09E3F510568F092C084
:10468000DCC05F3FECF3983EDCF386957795679549
:10469000B795F7959F5FC9F7880F911D96958795F8
:1046A00097F90895E1E0660F771F881FBB1F621717
:1046B00073078407BA0720F0621B730B840BBA0BD5
:1046C000EE1F88F7E095089504D06894B111B5C045
:1046D000089598D088F09F5790F0B92F9927B75137
:1046E000A0F0D1F0660F771F881F991F1AF0BA95B6
:1046F000C9F712C0B13081F09FD0B1E008959CC0DD
:10470000672F782F8827B85F39F0B93FCCF38695AB
:1047100077956795B395D9F73EF490958095709508
:1047200061957F4F8F4F9F4F0895E89409C097FB85
:104730003EF490958095709561957F4F8F4F9F4F78
:104740009923A9F0F92F96E9BB279395F6958795BC
:1047500077956795B795F111F8CFFAF4BB0F11F47F
:1047600060FF1BC06F5F7F4F8F4F9F4F16C0882326
:1047700011F096E911C0772321F09EE8872F762F5C
:1047800005C0662371F096E8862F70E060E02AF09D
:104790009A95660F771F881FDAF7880F9695879589
:1047A00097F9089597F99F6780E870E060E00895B1
:1047B0009FEF80EC089500240A9416161706180639
:1047C0000906089500240A94121613061406050615
:1047D0000895092E0394000C11F4882352F0BB0FA6
:1047E00040F4BF2B11F460FF04C06F5F7F4F8F4F09
:1047F0009F4F089557FD9058440F551F59F05F3F44
:1048000071F04795880F97FB991F61F09F3F79F0F2
:1048100087950895121613061406551FF2CF469574
:10482000F1DF08C0161617061806991FF1CF8695F6
:104830007105610508940895E894BB2766277727DA
:10484000CB0197F908950BD0C4CFB5DF28F0BADFBC
:1048500018F0952309F0A6CFABCF1124EECFCADF15
:10486000A0F3959FD1F3950F50E0551F629FF00183
:10487000729FBB27F00DB11D639FAA27F00DB11DDC
:10488000AA1F649F6627B00DA11D661F829F222765
:10489000B00DA11D621F739FB00DA11D621F839FEC
:1048A000A00D611D221F749F3327A00D611D231FC2
:1048B000849F600D211D822F762F6A2F11249F5710
:1048C00050408AF0E1F088234AF0EE0FFF1FBB1F33
:1048D000661F771F881F91505040A9F79E3F5105D2
:1048E00070F060CFAACF5F3FECF3983EDCF3869583
:1048F00077956795B795F795E7959F5FC1F7FE2B7D
:10490000880F911D9695879597F9089511F40EF4E7
:104910004FCF3EC077DFD0F39923D9F3CEF39F5723
:10492000550B87FF43D00024A0E640EA9001805851
:104930005695979528F4805C660F771F881F20F0A6
:1049400026173707480730F4621B730B840B2029A6
:1049500031294A2BA69517940794202531254A27FB
:1049600058F7660F771F881F20F02617370748076C
:1049700030F4620B730B840B200D311D411DA0958B
:1049800081F7B901842F9158880F969587950895DE
:104990009F3F31F0915020F4879577956795B795B3
:1049A000880F911D9695879597F9089591505040DD
:1049B000660F771F881FD2F708955302C001429FE8
:1049C000B0015203700D811D1124911D3403700D2F
:1049D000811D1124911D0895629FD001739FF001E4
:1049E000829FE00DF11D649FE00DF11D929FF00D7F
:1049F000839FF00D749FF00D659FF00D9927729FB6
:104A0000B00DE11DF91F639FB00DE11DF91FBD0140
:104A1000CF0111240895AA1BBB1B51E107C0AA1F97
:104A2000BB1FA617B70710F0A61BB70B881F991F4F
:104A30005A95A9F780959095BC01CD010895A1E202
:104A40001A2EAA1BBB1BFD010DC0AA1FBB1FEE1F08
:104A5000FF1FA217B307E407F50720F0A21BB30B53
:104A6000E40BF50B661F771F881F991F1A9469F7CF
:104A700060957095809590959B01AC01BD01CF012B
:104A8000089597FB092E05260ED057FD04D0D7DFD9
:104A90000AD0001C38F450954095309521953F4F31
:104AA0004F4F5F4F0895F6F79095809570956195FB
:104AB0007F4F8F4F9F4F08950F931F93CF93DF9397
:104AC000689F8001699F100D789F100D1124C80107
:104AD0000E947A25C82FD92F209731F08C2F60E0C3
:104AE00070E0A8010E94A926CE01DF91CF911F910D
:104AF0000F910895CF93DF93AC018230910510F4AC
:104B000042E050E0E0915103F091520320E030E0A8
:104B1000A0E0B0E024C08081918184179507D0F097
:104B20008417950771F482819381109729F0139669
:104B30009C938E9312972CC09093520380935103B1
:104B400027C02115310519F08217930718F49C012D
:104B5000BD01EF0192818381DF01E92FF82F3097AA
:104B6000D1F621153105F9F0C901841B950B84306C
:104B7000910580F48A819B816115710521F0FB010B
:104B80009383828304C09093520380935103FE0168
:104B9000329642C0FE01E80FF91F419351930297EC
:104BA0009983888339C080914F0390915003009777
:104BB00041F480916E0190916F0190935003809326
:104BC0004F0320916C0130916D012115310541F4A5
:104BD0002DB73EB78091700190917101281B390B60
:104BE000E0914F03F0915003E217F30798F42E1B66
:104BF0003F0B2417350770F0CA01029628173907B2
:104C000048F08E0F9F1F9093500380934F03419362
:104C1000519302C0E0E0F0E0CF01DF91CF91089521
:104C20000F931F93CF93DF939C01009709F48CC0DF
:104C3000DC01129713961C921E92129760915103F9
:104C4000709152036115710589F48D919C911197B2
:104C5000820F931F20914F0330915003281739077B
:104C600069F5B0935003A0934F036EC0FB0140E081
:104C700050E001C0FC01EA17FB0730F48281938108
:104C8000AF010097B9F71FC0E9012297FB83EA83C0
:104C900008811981C901800F911F8E179F0759F450
:104CA00080819181800F911F0296998388838281F0
:104CB00093819B838A834115510529F4B093520354
:104CC000A093510341C0FA01B383A283C191D19152
:104CD000EC0FFD1FAE17BF0781F4F901929182918D
:104CE0008C0F9D1F0296DA0111969C938E93828100
:104CF000938113969C938E931297E0E0F0E002C0AC
:104D0000FB01BC01DB0112968D919C9113970097DA
:104D1000B9F7CB0102962D913C911197820F931F09
:104D200020914F03309150032817390769F43097C9
:104D300029F4109252031092510302C0138212827E
:104D40007093500360934F03DF91CF911F910F91A8
:104D50000895DC0101C06D9341505040E0F7089583
:104D6000F999FECF92BD81BDF89A992780B5089533
:104D7000A6E1B0E044E050E00C94E126A8E1B0E008
:104D800042E050E00C94E126262FF999FECF1FBA9D
:104D900092BD81BD20BD0FB6F894FA9AF99A0FBE64
:104DA00001960895242F0E94C526252F0E94C5260E
:104DB0000C94DA260E94C426272F0C94C526DC0109
:104DC000CB01FC01F999FECF06C0F2BDE1BDF89A16
:104DD000319600B40D9241505040B8F70895F894C0
:024DE000FFCF03
:104DE20001E803E803E8033902FF2E03FF00000095
:104DF20000000000000000000000000000000000B1
:104E020000000000000000000000000000000000A0
:104E12000000000000000000000000000000000090
:104E22000000000000000000000000000000000080
:104E3200000000000000000000000000004A140012
:104E42000000000000000000FFFFE8030000530321
:024E520020003E
:00000001FF
