:100000000C9443000C9460000C9460000C9460000D
:100010000C9460000C9460000C94591C0C946000CB
:100020000C9460000C9460000C94C2120C9460005C
:100030000C9460000C945B130C9460000C946000B2
:100040000C9411140C9460000C94B51D0C940A1EB1
:100050000C94561E0C945B010C9460000C94600090
:100060000C9409120C946000880DA90DBA0DDD0DD9
:100070006C0D8D0D980D9D17901782177A177217BA
:1000800066175317A21711241FBECFEFD8E0DEBFAB
:10009000CDBF11E0A0E0B1E0ECE4F6E402C00590D1
:1000A0000D92AE37B107D9F723E0AEE7B1E001C05A
:1000B0001D92A036B207E1F70E9462000C9424233F
:1000C0000C940000CF93DF93CDB7DEB7C254D109B3
:1000D0000FB6F894DEBF0FBECDBF0E94151A0E9466
:1000E000CD0640911501BE01695C7F4F80E00E9402
:1000F000DD1460911F017091200180912101909188
:1001000022012396EEADFFAD239709952196EEAD22
:10011000FFAD219780912301099540911501BE0102
:10012000655D7F4F83E00E94DD1460911B0170913B
:100130001C0180911D0190911E01EDA9FEA9099558
:10014000EBA9FCA98091230109950E94D61BBE0151
:100150006A5E7F4FCE01C7960E943A158823E1F16F
:1001600089E293E00E942B1081113EC049E253E0E6
:10017000BE016A5E7F4FCE01C7960E94711588232B
:1001800009F444C0BE016F5F7F4FCE018B960E9481
:100190003A158823C9F089E293E00E942B1081115F
:1001A0002CC049E253E0BE016F5F7F4FCE018B96BA
:1001B0000E9471158111C9CFBE016F5F7F4FCE01C3
:1001C0008B960E940C1BC1CFBE016F5F7F4FCE018B
:1001D0008B960E948E1AB9CFBE016A5E7F4FCE0108
:1001E000C7960E948E1ACECFCE0146960E940C086A
:1001F0008111BCCF0E94E31AB9CFCE0101960E94B3
:100200000C088111CECF0E94E31ACBCFBE016A5EEB
:100210007F4FCE01C7960E940C1BB4CFCF93DF93C4
:1002200017B810927E00E4E6F0E080818E7F808334
:10023000EAE7F0E080818068808380818760808346
:10024000ACE7B0E08C918F738C93CBE7D0E08881E2
:10025000887F88830FB60F92F8948FEF809389017F
:100260000F900FBE8C918F7D8C93808188608083EE
:100270008081806580837894DF91CF910895EBE74A
:10028000F0E09081987F892B808308950FB60F92BC
:10029000F894E82FF0E0EE57FE4F8FEF80830F9039
:1002A0000FBE0895E82FF0E0EE0FFF1FE357FE4F5B
:1002B0008081918108951F920F920FB60F921124A1
:1002C000CF92DF92EF92FF922F933F934F935F93E2
:1002D0006F937F938F939F93AF93BF93CF93DF934E
:1002E000EF93FF93E091A301F0E08091780090E01C
:1002F000EE0FFF1FE357FE4F91838083209179001B
:10030000E091A301F0E0EE0FFF1FE357FE4F808165
:100310009181922B918380838091A301873009F48E
:1003200045C08091A3018F5F8093A3018091A301B9
:100330008B3010F01092A301E091A301F0E0EE5792
:10034000FE4F8081882369F38091A301893028F1D1
:1003500090917C008091A301907F8B5F892B80938B
:100360007C0080917A00806580937A00FF91EF9104
:10037000DF91CF91BF91AF919F918F917F916F91BD
:100380005F914F913F912F91FF90EF90DF90CF9031
:100390000F900FBE0F901F90189580917C00909148
:1003A000A301807F892B80937C00DBCF809180012B
:1003B0009091810190937F0180937E01E091A30150
:1003C000F0E0EE0FFF1FE357FE4F60817181C09197
:1003D0007E01D0917F0180E090E00E94991F20E093
:1003E00030E040E05EE30E942C206B017C01BE0106
:1003F00080E090E00E94991F20E030E040E65FE35B
:100400000E942C209B01AC01C701B6010E94851EF1
:100410000E946A1F7093810160938001E091A301A3
:10042000F0E08091800190918101EE0FFF1FE35772
:10043000FE4F9183808375CFFC01918181E0911102
:1004400080E081950895FC012181908181E0291748
:1004500008F480E081950895FC010FB60F92F8949E
:100460008681978193838283868197819583848314
:1004700011820F900FBE0895CF93DF93EC01862F6A
:100480000FB60F92F8941982688361E070E090E0F3
:100490000E94A1219F838E838E819F81892B31F4BD
:1004A00080E00F900FBEDF91CF9108958E819F81E4
:1004B0009B838A838E819F819D838C838FEF0F9096
:1004C0000FBEDF91CF910895FC018181815081831E
:1004D000A481B581CD010196958384838C9144815B
:1004E0005581268137819081290F311D421753078D
:1004F00009F0089526813781358324830895FC010E
:100500000FB60F92F894818181508183A481B581C7
:10051000CD010196958384838C91448155812681F8
:1005200037819081290F311D4217530719F00F9021
:100530000FBE089526813781358324830F900FBE27
:100540000895FC0181818F5F8183A281B381CD01F8
:100550000196938382836C93228133818681978174
:100560004081840F911D2817390709F0089586816D
:100570009781938382830895FC010FB60F92F894BC
:1005800081818F5F8183A281B381CD0101969383A5
:1005900082836C9322813381868197814081840F8D
:1005A000911D2817390719F00F900FBE0895868105
:1005B0009781938382830F900FBE0895FC019091E1
:1005C00029019130A9F084819581A681B7810FB668
:1005D0000F92F89421E02093100180936A01909388
:1005E0006B01A0936C01B0936D010F900FBE089545
:1005F00084819581A681B781B095A09590958195CC
:100600009F4FAF4FBF4FE3CFFC0190912901913035
:1006100041F184819581A681B781B095A09590958F
:1006200081959F4FAF4FBF4F0FB60F92F89421E0C7
:100630002093100140916A0150916B0160916C010F
:1006400070916D01840F951FA61FB71F80936A01DB
:1006500090936B01A0936C01B0936D010F900FBE4E
:10066000089584819581A681B781DECFFC018481C4
:100670009581A681B7810FB60F92F89421E020935F
:1006800074018093750190937601A0937701B093E4
:1006900078010F900FBE0895FC0184819581A68199
:1006A000B7810FB60F92F89422E0209374018093E3
:1006B000750190937601A0937701B09378010F9024
:1006C0000FBE0895FC0184819581A681B7810FB684
:1006D0000F92F89423E02093740180937501909316
:1006E0007601A0937701B09378010F900FBE089523
:1006F000FC0184819581A681B7810FB60F92F89491
:1007000024E0209374018093750190937601A09367
:100710007701B09378010F900FBE0895FC0184819A
:100720009581A681B7810FB60F92F89425E02093AA
:1007300074018093750190937601A0937701B09333
:1007400078010F900FBE0895FC0184819581A681E8
:10075000B7810FB60F92F89426E02093740180932E
:10076000750190937601A0937701B09378010F9073
:100770000FBE08950FB60F92F894FC0194818091FA
:100780001601892390E080FD5F9A80FF5F9825B174
:10079000880F991F880F991F880F991F8873922FB0
:1007A000977C892B85B90F900FBE089522E0FC013C
:1007B00023830FB60F92F894209154013091550184
:1007C000358324830F900FBE089522E0FC0123831C
:1007D0000FB60F92F894209156013091570135834E
:1007E00024830F900FBE089522E0FC0123830FB6EF
:1007F0000F92F89420915801309159013583248348
:100800000F900FBE089524E0FC0123830FB60F92D2
:10081000F89440914A0150914B0160914C017091C4
:100820004D0144835583668377830F900FBE0895EF
:1008300024E0FC0123830FB60F92F89440914E01FF
:1008400050914F0160915001709151014483558343
:10085000668377830F900FBE089522E0FC01238307
:100860000FB60F92F894209117013091180135833B
:1008700024830F900FBE089522E0FC0123830FB65E
:100880000F92F8942091190130911A013583248335
:100890000F900FBE089521E0FC01238320911601E3
:1008A0002483089521E0FC012383209123012483E4
:1008B0000895FC0181E083830FB60F92F89429B16B
:1008C00093B1987396959695221F2227221F922BFB
:1008D0000F900FBE9483089524E0FC0123830FB68C
:1008E0000F92F89440916601509167016091680100
:1008F0007091690144835583668377830F900FBE9F
:10090000089521E0FC012383209129012483089587
:10091000CF93DF93FC01C481D581BE0180E190E0DB
:100920000E940F230FB60F92F894D0935501C093F5
:1009300054010F900FBEDF91CF910895CF93DF93B5
:10094000FC01C481D581BE0180E290E00E940F23AA
:100950000FB60F92F894D0935701C09356010F90A1
:100960000FBEDF91CF910895CF93DF93FC01C48137
:10097000D581BE0180E390E00E940F230FB60F9255
:10098000F894D0935901C09358010F900FBEDF9196
:10099000CF910895CF93DF93FC01C481D581BE012F
:1009A00080E590E00E940F230FB60F92F894D09349
:1009B0001A01C09319010F900FBEDF91CF910895D6
:1009C000CF92DF92EF92FF92FC01C480D580E68047
:1009D000F780B701A60180ED90E00E9407230FB6D3
:1009E0000F92F894C0926601D0926701E09268017C
:1009F000F09269010F900FBEFF90EF90DF90CF90C3
:100A00000895CF92DF92EF92FF9220912901FC018D
:100A1000C480D580E680F780213039F10FB60F927F
:100A2000F89480911001813049F1C701B6010E940C
:100A30009B1F20911101309112014091130150919F
:100A400014010E94F11E6093320170933301809370
:100A500034019093350182E0809310010F900FBE16
:100A6000FF90EF90DF90CF900895F094E094D094B1
:100A7000C094C11CD11CE11CF11CD0CF0E94600E9F
:100A80000E949B1F60932A0170932B0180932C017D
:100A900090932D01CACF0F931F93CF93DF93EC0157
:100AA00088E08B830E94600E8B019C01330F000B4A
:100AB000102F98016C837D838E839F83088709871D
:100AC0000A870B87DF91CF911F910F910895CF93E4
:100AD000DF93FC01C481DC2FDF706D2F80E890E094
:100AE0000E94F9220FB60F92F8948C2F90E0C0FD6F
:100AF000579AC0FF579824B1880F991F880F991FE4
:100B00008873922F977C892B84B9D09316010F900C
:100B10000FBEDF91CF910895CF93FC01C4816C2F5C
:100B20006F7080EE90E00E94F9220FB60F92F89459
:100B3000C09329010F900FBECF9108950C941D0F03
:100B4000CF93DF93EC0188E08B8386E00E94520113
:100B50009D838C8381E00E9452019F838E8382E07B
:100B60000E9452019987888783E00E9452019B87E7
:100B70008A87DF91CF910895CF93DF93EC0182E0D4
:100B80008B8387E00E945201BC0180E090E00E94CC
:100B9000991F20E030E046E951E40E942C200E9499
:100BA0006A1F7D836C83DF91CF910895CF93DF938C
:100BB000EC0182E08B830E94F10E9D838C83DF9198
:100BC000CF910895CF93DF93EC0184E08B830E9453
:100BD000FB0E6C837D838E839F83DF91CF9108957D
:100BE0000F931F93CF93DF938C01FC0113820EC0F0
:100BF000F801C381D0E08CE193E00E94CC0FC00FDC
:100C0000D11F8C83F80183818F5F83838CE193E014
:100C10000E942B10882361F3DF91CF911F910F91D8
:100C2000089563E084EA91E00C940910FC0164816A
:100C3000662321F080EB90E00C94F9220C941106CD
:100C4000FC016481161624F480E090E00C94F922F3
:100C50000C941106FC014481558166817781DB018A
:100C6000CA010197A109B1098115924CA140B105B2
:100C700020F480EA90E00C9407230C941106CF92A4
:100C8000DF92EF92FF92FC01C480D580E680F7806E
:100C9000C114D104E104F104C1F0B701A60180E759
:100CA00090E00E9407230FB60F92F894C0924E0175
:100CB000D0924F01E0925001F09251010F900FBE7F
:100CC000FF90EF90DF90CF900895FF90EF90DF902E
:100CD000CF900C941106CF92DF92EF92FF92FC011D
:100CE000C480D580E680F780C114D104E104F1040A
:100CF000C1F0B701A60180E690E00E9407230FB67D
:100D00000F92F894C0924A01D0924B01E0924C01AC
:100D1000F0924D010F900FBEFF90EF90DF90CF90BB
:100D20000895FF90EF90DF90CF900C941106CF9331
:100D3000DF93FC01C481D581209789F0BE0180E456
:100D400090E00E940F230FB60F92F894D0931801F1
:100D5000C09317010F900FBEDF91CF910895DF91DF
:100D6000CF910C941106CF93DF93FC016481623024
:100D700020F0DF91CF910C941106EC0180EC90E013
:100D80000E94F9220FB60F92F8948C81809324016F
:100D90000F900FBEDF91CF910895CF93DF9384EA38
:100DA00091E00E94BF0FACEFB1E088E894E01196AB
:100DB0009C938E93EDEDF1E092E090832EE934E088
:100DC00013963C932E931297918324EB34E015965F
:100DD0003C932E93149792832BE636E017963C9320
:100DE0002E93169784E083832FE336E019963C9385
:100DF0002E931897848327E936E01B963C932E9315
:100E00001A9795832AEC34E01D963C932E931C97F9
:100E1000968321E035E01F963C932E931E9787839F
:100E20002EED32E051963C932E93509798E09087A8
:100E300024E033E053963C932E935297918721E020
:100E40003AE055963C932E93549782872CE03DE0F0
:100E500057963C932E935697938726E23DE05996FA
:100E60003C932E935897948726E333E05B963C930C
:100E70002E935A9785872CE433E05D963C932E930E
:100E80005C97968722E633E05F963C932E935E97BD
:100E9000978728E733E091963C932E939097808B29
:100EA0002EE833E093963C932E939297918B24EA0D
:100EB00033E095963C932E939497928B27E635E0FA
:100EC00097963C932E93969791E0938B2AEB33E081
:100ED00099963C932E939897948B20E236E09B96BC
:100EE0003C932E939A97958B26E136E09D963C9302
:100EF0002E939C97968B2AE236E09F963C932E93F6
:100F00009E97878B2EE935E0D1963C932E93D09710
:100F1000108E67EB78E0D3967C936E93D297118E08
:100F20004CEC58E0D5965C934E93D497128E28EDF6
:100F300038E0D7963C932E93D697138EC3EBD6E02A
:100F4000D996DC93CE93D897948FC0EED4E0DB96FD
:100F5000DC93CE93DA97858FCCE8D5E0DD96DC93F1
:100F6000CE93DC97968FE9EBF1E086ED93E09183E9
:100F7000808385EE93E09383828384EF93E095836F
:100F8000848383E094E09783868388E194E091876B
:100F900080878DE294E0938782878CE394E0958745
:100FA00084878BE494E09787868782E594E0918B31
:100FB000808B89E594E0938B828B80EA95E0958B1A
:100FC000848B8BE495E0978B868B86ED95E0918FF3
:100FD000808F82EE95E0938F828F8CEB95E0958FDA
:100FE000848F80EF95E0978F868F8CE694E091A3B5
:100FF00080A381E894E093A382A3E1EBF1E086E58E
:101000009DE0918380837383628355834483378318
:101010002683DF91CF910895CF93DF93EC01EA818E
:10102000EC3C90F5E83CE8F08B8181115BC00E94BC
:101030000914EA81882309F440C0F0E0EE0FFF1F95
:10104000EF5DFF4F0190F081E02DCE01099584EA1C
:1010500091E00E942B1081112AC080E0DF91CF9196
:101060000895E63788F4E436A0F5EF3168F4F0E04F
:10107000E352FE4F9B8180819817D1F162E084EAB0
:1010800091E00E940910E9CF61E084EA91E00E94BA
:10109000091080E0DF91CF910895F0E0EE0FFF1F7F
:1010A000EF50FF4F0190F081E02DCE01099584EAC9
:1010B00091E0DF91CF910C942B108E2F8D7F883C87
:1010C00009F0BBCF64E084EA91E00E940910EA8154
:1010D000B4CF8B81882309F365E084EA91E00E9414
:1010E0000910BBCF65E084EA91E00E9409109FCF10
:1010F0000E940914EA81811106C089EF8E0F8630A3
:1011000040F0EA3131F0F0E0EE0FFF1FE450FE4F07
:10111000C9CF64E084EA91E00E9409109ECF0FB627
:101120000F92F894109274010E941D0F10925E01AC
:1011300010925F01109260011092610110926201A1
:1011400010926301109264011092650181E0809316
:10115000100110926A0110926B0110926C011092B2
:101160006D018FEF0E94F9130F900FBE08950C943C
:101170008F080FB60F92F89481E0809310010E94BF
:10118000600E60936A0170936B0180936C01909381
:101190006D010F900FBE08950C94B9080FB60F9211
:1011A000F894109210010F900FBE80E00C94F91388
:1011B0000C94CE084F925F926F927F928F929F9283
:1011C000AF92BF92CF92DF92EF92FF92CF93DF93D5
:1011D000CDB7DEB72C970FB6F894DEBF0FBECDBFEC
:1011E0004B015C010FB60F92F89480911001813091
:1011F00009F4F4C0C0901101D0901201E0901301E5
:10120000F09014012091320130913301409134016A
:1012100050913501C701B6010E942C200E94631F26
:101220002B013C0160912A0170912B0180912C01CE
:1012300090912D010E94631F6D837E838F83988719
:1012400084149504A604B7040CF4AFC080914A013D
:1012500090914B01A0914C01B0914D0189839A83EB
:10126000AB83BC830F900FBE0FB60F92F8946D81C5
:101270007E818F8198850E949B1F60932A017093C5
:101280002B0180932C0190932D01A5019401C501A0
:10129000B4010E941C2169877A878B879C87A301F0
:1012A0009201C301B2010E941C2129853A854B8518
:1012B0005C85261B370B480B590BCA01B9012981E4
:1012C0003A814B815C810E94622157FD82C0DA0124
:1012D000C901B595A795979587952D813E814F8139
:1012E0005885820F931FA41FB51F80933E019093D2
:1012F0003F01A0934001B093410183E0809310012E
:10130000C501B4010E949B1FA70196010E94F11E16
:1013100060932E0170932F018093300190933101DF
:10132000C301B2010E949B1FA70196010E94F11EFA
:1013300060933201709333018093340190933501AF
:10134000609336017093370180933801909339018F
:1013500069817A818B819C810E949B1FA7019601E4
:101360000E94F11EA70196010E94F11E60933A01AE
:1013700070933B0180933C0190933D010F900FBE11
:101380002C960FB6F894DEBF0FBECDBFDF91CF9184
:10139000FF90EF90DF90CF90BF90AF909F908F9095
:1013A0007F906F905F904F90089580914A01909147
:1013B0004B01A0914C01B0914D0122273327A90187
:1013C000281B390B4A0B5B0B29833A834B835C83C5
:1013D00049CF2F5F3F4F4F4F5F4F79CF0E94600E35
:1013E0006D837E838F8398870E94FB0E2B013C01C7
:1013F000C0901101D0901201E0901301F0901401FF
:101400001FCFFC0190912901913031F064817581E9
:10141000868197810C94DA0884819581A681B781B1
:101420009C01AD0166277727CB01621B730B840BF0
:10143000950B0C94DA082F923F924F925F926F9225
:101440007F928F929F92AF92BF92CF92DF92EF9254
:10145000FF920F931F93CF93DF93CDB7DEB7A6977D
:101460000FB6F894DEBF0FBECDBF69877A878B8732
:101470009C870FB60F92F89480911001813009F487
:10148000ACC28091110190911201A0911301B09111
:1014900014018D839E83AF83B887209132013091F0
:1014A00033014091340150913501BC01CD010E94BE
:1014B0002C200E94631F69837A838B839C836091B5
:1014C0002A0170912B0180912C0190912D010E9495
:1014D000631F6D8B7E8B8F8B988F2D893E894F89F3
:1014E000588D89859A85AB85BC8582179307A4079B
:1014F000B5070CF4C5C1C0904A01D0904B01E090F3
:101500004C01F0904D0188279927DC018C199D0929
:10151000AE09BF09898B9A8BAB8BBC8B40904E0177
:1015200050904F016090500170905101812C912C8E
:101530005401839433243394242C152D062D7DA23D
:101540000F900FBE29813A814B815C81C301B201AA
:101550000E941C2197FDFCC1CA01B9010E941C21F7
:101560006D8F7E8F8F8F98A329853A854B855C85FB
:101570008D899E89AF89B88D281B390B4A0B5B0B6F
:10158000C701B6010E941C212D8D3E8D4F8D58A1A3
:101590005595479537952795298F3A8F4B8F5C8FB7
:1015A000620F731F841F951F0E949B1F0E949F2024
:1015B0000E94631F9B01AC01C501B4010E941C2164
:1015C0006D877E878F87988B29813A814B815C81DB
:1015D000261B370B480B590BC501B4010E941C2177
:1015E00016161706180619060CF073C1698D7A8D48
:1015F0008B8D9C8D29893A894B895C890E94622157
:101600008D899E89AF89B88D821B930BA40BB50B76
:10161000898F9A8FAB8FBC8F29853A854B855C85E6
:10162000281B390B4A0B5B0B69897A898B899C894A
:101630000E941C210E949B1F0E949F20A32DBB275C
:10164000A1950CF4B0959D01BB0F440B550B2D8754
:101650003E874F87588B0E94631F2D853E854F859F
:1016600058890E941C216D877E878F87988B3C2D1F
:101670002D2D9E2D8F2DC988DA88EB88FC88398B1B
:101680002A8B9B8B8C8B1D8E1E8E1F8E18A219A2EF
:101690001AA21BA21CA22D853E854F8558892419AC
:1016A000350946095709C501B4010E941C2197FD5F
:1016B00021C1A301920189A19AA1ABA1BCA1281BC0
:1016C000390B4A0B5B0BC501B4010E941C2197FF2B
:1016D00008C0F094E094D094C094C11CD11CE11CCB
:1016E000F11CA3019201C301B2010E941C214B0114
:1016F0005C01DC01CB012D8D3E8D4F8D58A1821BED
:10170000930BA40BB50BB7FD64C1BC01CD0195953E
:10171000879577956795A70196010E946221498C6C
:101720005A8C6B8C7C8C420E531E641E751EC50138
:10173000B401959587957795679529893A894B895D
:101740005C890E94622189849A84AB84BC84820E65
:10175000931EA41EB51E0FB60F92F8946D897E8954
:101760008F89988D0E949B1F60932A0170932B0193
:1017700080932C0190932D0140923E0150923F01A5
:101780006092400170924101809242019092430127
:10179000A0924401B092450129853A854B855C852C
:1017A00020934601309347014093480150934901EB
:1017B0001092520184E080931001622D712F802FCE
:1017C0009DA10E949B1F2D813E814F8158850E94C3
:1017D000F11E60932E0170932F018093300190933E
:1017E000310169817A818B819C810E949B1F2D81AF
:1017F0003E814F8158850E94F11E609332017093A3
:1018000033018093340190933501609336017093D6
:1018100037018093380190933901C701B6010E94C6
:101820009B1F2D813E814F8158850E94F11E2D8185
:101830003E814F8158850E94F11E60933A0170935A
:101840003B0180933C0190933D010F900FBEA69603
:101850000FB6F894DEBF0FBECDBFDF91CF911F91C1
:101860000F91FF90EF90DF90CF90BF90AF909F903F
:101870008F907F906F905F904F903F902F90089542
:1018800080914A0190914B01A0914C01B0914D0182
:10189000CC24DD247601C81AD90AEA0AFB0A898B0E
:1018A0009A8BAB8BBC8B80914E0190914F01A09194
:1018B0005001B0915101442455243201481A590A6B
:1018C0006A0A7B0A88248A94982C540133243A9417
:1018D00033CE8D899E89AF89B88D898F9A8FAB8FD2
:1018E000BC8F29813A814B815C8129A33AA34BA308
:1018F0005CA3D1CE498C5A8C6B8C7C8C89859A8563
:10190000AB85BC85480E591E6A1E7B1E77FC7EC0C7
:1019100075946794579447946D8D7E8D8F8D98A1A3
:10192000959587957795679595958795779567951B
:10193000A70196010E946221421A530A640A750A9D
:10194000530142012D841E850F85A889ADA303CFC5
:1019500029813A814B815C81CA01B9010E941C2115
:101960009595879577956795A70196010E946221C5
:101970008D899E89AF89B88D821B930BA40BB50B03
:10198000898F9A8FAB8FBC8F29853A854B855C8573
:10199000281B390B4A0B5B0BC701B6010E941C21A7
:1019A0000E949B1F0E949F200E94631F9B01AC010D
:1019B000C501B4010E941C216D877E878F87988B9B
:1019C0001D8E1E8E1F8E18A219A21AA21BA21CA267
:1019D00062CE0196A11DB11D98CE0E94FB0E6983B7
:1019E0007A838B839C830E94600E6D8B7E8B8F8BA2
:1019F000988F209111013091120140911301509163
:101A000014012D833E834F83588767CD9FEF491A7A
:101A1000590A690A790A7CCFFC0190912901913019
:101A200031F064817581868197810C941B0A8481D1
:101A30009581A681B7819C01AD0166277727CB01EF
:101A4000621B730B840B950B0C941B0ACF92DF92D5
:101A5000EF92FF92FC0190912901C480D580E6802D
:101A6000F780913061F00E94600E6C0D7D1D8E1D1F
:101A70009F1DFF90EF90DF90CF900C941B0A0E9467
:101A8000600EDC01CB018C0D9D1DAE1DBF1D9C01A8
:101A9000AD0166277727CB01621B730B840B950B77
:101AA000FF90EF90DF90CF900C941B0ACF92DF92C3
:101AB000EF92FF920FB60F92F8940F900FBEE09145
:101AC00074014E2F50E047305105D8F4DC01FA0183
:101AD000EC5CFF4F0C94812160917501709176014F
:101AE000809177019091780114966D937D938D93F9
:101AF0009C93179720912901213009F477C00E9407
:101B0000DA080FB60F92F894109274010F900FBE7E
:101B1000FF90EF90DF90CF900895609175017091E4
:101B2000760180917701909178010E941B0AE9CF9C
:101B3000C0907501D0907601E0907701F090780127
:101B40000E94600E6C0D7D1D8E1D9F1D0E941B0A44
:101B5000D8CF4091750150917601609177017091D5
:101B6000780114964D935D936D937C9317970E9423
:101B70000105C7CF409175015091760160917701C1
:101B80007091780114964D935D936D937C931797A4
:101B900080912901813011F10FB60F92F89481E004
:101BA0008093100140936A0150936B0160936C0124
:101BB00070936D010F900FBEA4CF409175015091AD
:101BC0007601609177017091780114964D935D9341
:101BD0006D937C9317970E94040393CF7095609543
:101BE000509541955F4F6F4F7F4FD6CF9095809521
:101BF000709561957F4F8F4F9F4F81CFCF93DF932C
:101C00002A98000000000000000000000000000012
:101C100000000000000080E00E94201CD82F80E01F
:101C20000E94201CC82F2A9ACE01929582958F700F
:101C300089279F708927DF91CF9108950E94091C01
:101C40000E94FE0D0E94FE0D0FB60F92F894AC019B
:101C500060E070E040934602509347026093480270
:101C600070934902909341028093400290933F0207
:101C700080933E0210924E0210924F021092500238
:101C80001092510210924A0210924B0210924C0292
:101C900010924D021092420210924302109244029E
:101CA0001092450281E08093060110923A02109250
:101CB0003B0210923C0210923D020F900FBE08951D
:101CC0000F931F930FB60F92F8948091400290915A
:101CD000410290933F0280933E020E94FE0D90933A
:101CE00041028093400280914002909141022091F4
:101CF0003E0230913F02A0E0B0E0821B930BA109AD
:101D0000B1098033984FAF4FBF4F9CF480913A0296
:101D100090913B02A0913C02B0913D020196A11D21
:101D2000B11D80933A0290933B02A0933C02B09382
:101D30003D02809140029091410220913E023091FB
:101D40003F02A0E0B0E0821B930BA109B109813DE5
:101D50009740A105B1059CF080913A0290913B0219
:101D6000A0913C02B0913D020197A109B109809375
:101D70003A0290933B02A0933C02B0933D028091C3
:101D80003A0290913B02A0913C02B0913D024091F9
:101D90004002509141020091460210914702209169
:101DA0004802309149026CE0880F991FAA1FBB1F9F
:101DB0006A95D1F7840F951FA11DB11DBC01CD01FE
:101DC000601B710B820B930B60934A0270934B0262
:101DD00080934C0290934D020F900FBE1F910F9174
:101DE00008950FB60F92F8948091400290914102AD
:101DF0000F900FBE08950FB60F92F89460914E02A7
:101E000070914F0280915002909151020F900FBE3D
:101E10000E949B1F209111013091120140911301EA
:101E2000509114010E942C2020E030E048EC52E454
:101E30000E94F11E0E94631F08950E94FE0DAC01D6
:101E400060E070E00FB60F92F89440934602509312
:101E50004702609348027093490290934102809335
:101E6000400290933F0280933E0210924E021092E5
:101E70004F02109250021092510210924A02109298
:101E80004B0210924C0210924D021092420210929C
:101E90004302109244021092450281E080930601B1
:101EA00010923A0210923B0210923C0210923D02B4
:101EB0000F900FBE08958091060191E0980F9093C6
:101EC0000601843678F181E08093060180914A0210
:101ED00090914B02A0914C02B0914D024091420270
:101EE000509143026091440270914502841B950B0E
:101EF000A60BB70B80934E0290934F02A093500213
:101F0000B093510280914A0290914B02A0914C02F1
:101F1000B0914D028093420290934302A0934402F9
:101F2000B093450208950FB60F92F89440914A027B
:101F300050914B0260914C0270914D020F900FBE78
:101F400081E041155C4F6F4F7F470CF480E0819535
:101F500008950FB60F92F89440914A0250914B02A7
:101F600060914C0270914D020F900FBE81E04130A4
:101F70005440610570480CF080E081950895FC01A3
:101F80000FB60F92F8941082059692838183948302
:101F900083830F900FBE0895FC010FB60F92F89443
:101FA000808181508083A381B4818C91238134818D
:101FB0002F5F3F4F34832383438154819F01235FED
:101FC0003F4F4217530719F00F900FBE0895285046
:101FD0003109348323830F900FBE0895FC01808163
:101FE000883018F480818F5F8083A181B2816C93E7
:101FF0008181928101969283818321813281CF01F7
:102000000D962817390709F0089508979283818360
:102010000895FC010FB60F92F8948081883018F46F
:1020200080818F5F8083A181B2816C938181928155
:1020300001969283818321813281CF010D962817E9
:10204000390719F00F900FBE089508979283818386
:102050000F900FBE0895FC01908181E0911180E006
:10206000819508958091D9028093BB00ECEBF0E05C
:1020700080818F70806880830895E091960281E06E
:102080008E0F809396028091BB00F0E0E956FD4FE1
:102090008083ECEBF0E080818F70806D8083109204
:1020A000DA02089585E08093DA0210929602ECEB52
:1020B000F0E080818F70806C80830895ECEBF0E01D
:1020C00080818F708068808308958091BC008F70BC
:1020D000806C8093BC00E0919402F091950230975F
:1020E00029F067E972E08091960209951092DA0270
:1020F0000895ECEBF0E080818F70806C808310920B
:10210000DA0208950895ECEBF0E080818F70806D25
:10211000808362E08BED92E00E9409101092DA0257
:102120000895ECEBF0E080818F708068808363E03D
:102130008BED92E00E9409101092DA02089564E09B
:102140008BED92E00C940910ECEBF0E080818F7045
:10215000806D808361E08BED92E00E940910109207
:10216000DA02089584E08093DA02E0919202F0911D
:102170009302309731F069EB72E080E20995809329
:10218000B70281E08093B8028091B9028093BB00CE
:102190009091B8028091B702981738F08091BC00F6
:1021A0008F7080688093BC0008958091BC008F7010
:1021B000806C8093BC000895E091B8028091B702D2
:1021C000E81748F08091BC008F70806D8093BC0050
:1021D0001092DA02089581E08E0F8093B802F0E049
:1021E000E754FD4F80818093BB008091BC008F70CD
:1021F00080688093BC000895E091960281E08E0F84
:10220000809396028091BB00F0E0E956FD4F8083F9
:10221000ECEBF0E080818F70806880830895E0911E
:10222000B80281E08E0F8093B802F0E0E754FD4FD2
:1022300080818093BB009091B8028091B70298177B
:1022400038F08091BC008F7080688093BC00089546
:102250008091BC008F70806C8093BC000895ECEB83
:10226000F0E080818F70806880830895E09196020D
:1022700081E08E0F809396029091BB00F0E0E956CA
:10228000FD4F9083803238F08091BC008F70806861
:102290008093BC0008958091BC008F70806C809307
:1022A000BC000895BC0101978039914010F080E096
:1022B000089580E29EE40E942C21862F603138F040
:1022C0007727CB01409797FD06C09595879580931A
:1022D000B8008FEF08950196F8CF181614F080E03B
:1022E000089590E0880F991F21E0611101C020E05E
:1022F000822B8093BA008FEF08959093950280937C
:1023000094020895EF92FF920F931F93CF93DF9360
:1023100000D0CDB7DEB7082F162F7A01CE01019677
:102320000E94321C0AC06091090170910A01CE011D
:1023300001960E943F1C811130C08091DA02811108
:10234000F2CF82E08093DA02802F90E0880F991F0D
:102350008093D902112369F0D701E9EBF2E02FEF66
:10236000210F30E026543D4F8D918193E217F30702
:10237000D9F71092B8021093B7028091BC008F7009
:10238000806A8093BC008FEF0F900F90DF91CF9108
:102390001F910F91FF90EF90089565E08BED92E013
:1023A0000E94091080E0F0CFCF93DF9300D0CDB72B
:1023B000DEB70E948211811105C00F900F90DF914E
:1023C000CF910895CE0101960E94321C0AC06091FF
:1023D000070170910801CE0101960E943F1C8111F6
:1023E0000DC08091DA028111F2CF8BED92E00E9454
:1023F0002B100F900F90DF91CF91089566E08BED39
:1024000092E00E94091080E00F900F90DF91CF9131
:1024100008951F920F920FB60F9211242F933F939E
:102420004F935F936F937F938F939F93AF93BF93DC
:10243000EF93FF93E091B900E695E695E695F0E01D
:10244000EE0FFF1FEE5AFD4F0190F081E02D099530
:10245000FF91EF91BF91AF919F918F917F916F917C
:102460005F914F913F912F910F900FBE0F901F9052
:102470001895E2E5F2E083E890E19183808382E3BE
:1024800090E193838283958384832CED30E13783BD
:10249000268384EA90E19187808733872287958716
:1024A000848721E930E1378726872FE231E1318BBC
:1024B000208B938B828B8CEF90E1958B848B8DE3BB
:1024C00090E1978B868B82E590E1918F808F938F3F
:1024D000828F958F848F978F868F26E331E131A38A
:1024E00020A38EE590E193A382A335A324A397A311
:1024F00086A385E690E191A780A782EB90E193A760
:1025000082A795A784A78FE091E197A786A789E77F
:1025100090E191AB80AB93AB82AB82E890E195AB5D
:1025200084AB97AB86AB91AF80AF93AF82AF95AFE3
:1025300084AF8FE990E197AF86AF0895449A459AAA
:1025400010929502109294021092930210929202AD
:102550000E9439128BED92E00E94BF0F0E94261C50
:102560008CE58093B800ECEBF0E0808184608083A0
:102570001092DA0280818160808380818064808310
:10258000789408951F920F920FB60F9211242F93F3
:102590003F934F935F936F937F938F939F93AF93EB
:1025A000BF93EF93FF93209186003091870083B112
:1025B0009091F5028170891709F45EC03093F002A2
:1025C0002093EF028091EF029091F0022091F102AE
:1025D0003091F202821B930B9093F4028093F302EA
:1025E0008091EE0281508093EE028091F50281305D
:1025F00009F455C0809181008F7B809381001092F7
:102600008500109284008091EE028823F1F01092F0
:10261000EE021092F4021092F302E091E802F091BF
:10262000E902309709F00995FF91EF91BF91AF91C1
:102630009F918F917F916F915F914F913F912F91DA
:102640000F900FBE0F901F9018952091F1023091BE
:10265000F2028091EF029091F00282179307B8F294
:10266000E091EC02F091ED023097F1F28091F302EB
:102670009091F4020995D8CF3093F2022093F102A1
:102680008091F502813089F080918100806480938F
:1026900081008091EE028F5F8093EE02C5CF809122
:1026A0008100806480938100AACF809181008F7B1C
:1026B00080938100EECF1F920F920FB60F921124DC
:1026C0002F933F934F935F936F937F938F939F933A
:1026D000AF93BF93EF93FF93E091EA02F091EB0287
:1026E000309709F00995FF91EF91BF91AF919F91BC
:1026F0008F917F916F915F914F913F912F910F90AB
:102700000FBE0F901F9018959093F7028093F602DA
:10271000089584E69AE2A8E8B4E4809311019093C6
:102720001201A0931301B093140182E085BDE1EB87
:10273000F0E0808385B5877F85BD84B58D7F84BDBE
:1027400084B5836084BD84B5806184BD84B58062B6
:1027500084BD84B58F7384BD8081877F8083E0EBE7
:10276000F0E080818D7F80838081836080838081A1
:102770008061808380818062808380818F73808389
:1027800018BC1092B400EEE6F0E080818160808396
:102790007894E4E6F0E080818F79808308950F9348
:1027A0001F938B019C0197FD1CC0012F122F232F1B
:1027B00033270F3F11052105310529F020F00FEFD8
:1027C00010E020E030E097FD06C008BD1092B40094
:1027D0001F910F91089518BC0093B4001F910F91A1
:1027E0000895002711279801061B170B280B390B9A
:1027F000DCCF81110CC05C9818BC1092B4000FB6ED
:102800000F92F8948093F8020F900FBE08955C9A8F
:10281000F3CF0FB60F92F8948091F8020F900FBE8D
:1028200008951F920F920FB60F9211242F933F938A
:102830004F935F936F937F938F939F93AF93BF93C8
:10284000EF93FF938091F9029091FA029C012F5F20
:102850003F4F3093FA022093F902099748F0E09134
:10286000F602F091F70209951092FA021092F9021D
:10287000FF91EF91BF91AF919F918F917F916F9158
:102880005F914F913F912F910F900FBE0F901F902E
:1028900018954F925F926F927F928F929F92AF9214
:1028A000BF92CF92DF92EF92FF92CF93DF93EC0132
:1028B0008E819F81A885B9858A879B87AC87BD87D4
:1028C000EE8DFF8D0995CE88DF88E88CF98C4B0161
:1028D0005C018C189D08AE08BF088E829F82A88676
:1028E000B986CE84DF84E888F988C80CD91CEA1C34
:1028F000FB1CCE86DF86E88AF98A8A899B89AC89A7
:10290000BD898C159D05AE05BF0534F48E879F8764
:10291000A88BB98B6C017D01B095A09590958195A0
:102920009F4FAF4FBF4FC816D906EA06FB0634F4D7
:102930008E879F87A88BB98B6C017D018A859B85CB
:10294000AC85BD85A5019401281B390B4A0B5B0B97
:10295000AC81BD810E9487212B013C01A881B981F6
:10296000A50194010E94872153014201860E971E02
:10297000A81EB91EAA81BB81A70196010E948721CA
:10298000BB2797FDBA95A92F982F872FBC01CD01A2
:10299000680D791D8A1D9B1DEC8DFD8DDF91CF91FA
:1029A000FF90EF90DF90CF90BF90AF909F908F906F
:1029B0007F906F905F904F900994FF920F931F93B9
:1029C000CF93DF93182FEB01F42E882399F18430F5
:1029D00070F00FEF1983F882E885F9858FEF09957C
:1029E000802FDF91CF911F910F91FF9008958CEF71
:1029F00096E19D838C8382E397E19F838E8382EBB4
:102A000097E19987888785EB97E19B878A878091F3
:102A10000D0190910E019B838A8320E835E240E00E
:102A200050E06F2D89810E94CD1601E08823F9F0D6
:102A30000195D0CF8DE396E19D838C8388E896E164
:102A40009F838E838FEB96E19987888784EC96E14C
:102A50009B878A8780910B0190910C019B838A83CD
:102A600064E670E0842F0E9428160FEFB3CF00E0D9
:102A70000195B0CF0F931F93CF93DF938C01EB01A0
:102A8000DC011696ED91FC911797CB0109958823EF
:102A9000D9F04C892B81FE0132962E3F01F12F5F38
:102AA00030E02F5F3F4F2E0F3F1F80E0919189272D
:102AB000E217F307D9F7481761F062E2F801828163
:102AC00093810E94091080E0DF91CF911F910F91B7
:102AD00008958FEFDF91CF911F910F91089580E0BE
:102AE000EACFDF92EF92FF920F931F93CF93DF9382
:102AF000DB013C91FC012081321349C07A01EB01DA
:102B00008C0189818883808189838A818436C0F1A0
:102B1000452BD1F0C7010E942B10811115C08AEFFF
:102B20008A831B82D12C01C0DB80C7010E94CC0F9D
:102B3000FE01ED0DF11D84838B818F5F8B83C701B7
:102B40000E942B10882381F33B813E5FFE01329669
:102B5000332331F120E090E0819128279F5F931784
:102B6000D8F32C8BD8011496ED91FC911597CE01DA
:102B7000DF91CF911F910F91FF90EF90DF9009941B
:102B80001B82452B39F6FB01329632E0E3CF8FEF03
:102B9000DF91CF911F910F91FF90EF90DF900895FB
:102BA00020E0DFCF1F93CF93DF93182FEB018091AD
:102BB000FB028F3F09F444C088818093FC02898125
:102BC0008093FD028A818093FE028B818093FF02B5
:102BD0002091FF0230E02B5F3F4F812F90E02817BC
:102BE000390701F5FE0134968091FF02882381F0B8
:102BF00080E0A82FB0E03196EF0121979881A45092
:102C0000BD4F14969C938F5F9091FF02891788F3B4
:102C10008081809310038FEF8093FB02DF91CF912F
:102C20001F91089562E180910B0190910C010E9427
:102C3000EE0F8FEF8093FB02DF91CF911F910895EC
:102C400061E180910B0190910C010E94EE0FB4CFD5
:102C50001F93CF93DF93182FEB010E949E1261E028
:102C6000812F0E946D11CE010E94521182ED95E1DB
:102C7000DF91CF911F910C947D110F931F93CF93F0
:102C8000DF93CDB7DEB765970FB6F894DEBF0FBE02
:102C9000CDBFAC01DC018C91898311969C91119779
:102CA0009A8312969C9112979B8313966C916C83D6
:102CB000662351F1FA0134968E010B5F1F4FD80144
:102CC0002FEF260F30E02B5F3F4F240F351F9191E0
:102CD0009D93E217F307D9F7F801E60FF11DDA012A
:102CE00054969C9190836B5FAE014F5F5F4F0E9443
:102CF000D41165960FB6F894DEBF0FBECDBFDF913D
:102D0000CF911F910F9108958E010B5F1F4FE4CF5C
:102D1000CF93DF93EC0180910B0190910C010E9405
:102D20002B10882321F08091FB02811103C0DF91D9
:102D3000CF9108950FB60F92F8948091FC0288838A
:102D40008091FD0289838091FE028A833091FF0287
:102D50003B83809110038C8B332359F0249680E0C1
:102D600090E0FC01E450FD4F2481299301968317E4
:102D7000C0F31092FB020F900FBE8FEFD8CF80955B
:102D8000880F8093BD00089528EE33E040E050E0C6
:102D90000E944021C9010C945211CF92DF92EF9210
:102DA000FF92CF93C62F69017A018230F9F0C09368
:102DB00012030E94911CC82FC701B6010E94F21C89
:102DC000811107C080E0CF91FF90EF90DF90CF900E
:102DD000089581E0CC2339F08195CF91FF90EF9059
:102DE000DF90CF90089580E08195F7CF62E08BE28D
:102DF00090E00E94161DDBCFCF93DF93EC0185E5B9
:102E00000E94351D811104C080E0DF91CF910895AB
:102E10008AEA0E94351D8823B9F388810E94351DF6
:102E2000882391F389810E94351D882369F38A8163
:102E30000E94351D882341F38B810E94351D882314
:102E400019F36B81CE0104960E94931D8823E1F251
:102E50008C890E94351D91E0811101C090E0892F7D
:102E60008195D3CF0F931F93CF93DF931F92CDB74D
:102E7000DEB78C01CE0101960E94791D882339F0BE
:102E8000E09113038E2F90E08830910538F080E0B8
:102E90000F90DF91CF911F910F910895FC01E55C98
:102EA000FF4F0C948121F801838190E03091110350
:102EB0002FEF230F20931103831B9109E80FF91FB4
:102EC000898184832111E3CF87E02EC08981F801B5
:102ED0008383809311038823B9F386E080931303DF
:102EE00080E0D6CF8981F801828385E08093130347
:102EF00080E0CECF8981F801818384E08093130341
:102F000080E0C6CF298180911203822790910F0122
:102F10008923F9F02223E9F01092130380E0B8CF5F
:102F200089818A3AE9F080E08093130380E00F9072
:102F3000DF91CF911F910F91089581E0998195358F
:102F400091F7F2CF8981F801848B109213038FEFF0
:102F50009FCF83E080931303F801208380E098CF14
:102F600082E0E2CF80930F0108950C94F21C4F92FF
:102F70005F926F927F928F929F92AF92BF92CF9209
:102F8000DF92EF92FF920E945B0F809110018111FE
:102F90000DC0FF90EF90DF90CF90BF90AF909F90CB
:102FA0008F907F906F905F904F90089587E00E9480
:102FB0005201BC0180E090E00E94991F20E030E0C7
:102FC00046E951E40E942C206B017C0160911701BD
:102FD0007091180180E090E00E94991F9B01AC0164
:102FE000C701B6010E9427201816F4F480915301FE
:102FF000882309F425C16091190170911A0184E1B7
:1030000093E00E943F1C882379F080E090E00E94CA
:10301000D80864E089E293E00E94091010925301FD
:10302000109215031092140380911001833009F45B
:103030007DC08430B1F0823009F4DDC0E0916E01D2
:10304000F0916F0184E591E0FF90EF90DF90CF90D9
:10305000BF90AF909F908F907F906F905F904F90B8
:103060000994C0903201D0903301E0903401F09087
:103070003501C0923601D0923701E0923801F092CA
:10308000390180915201813009F414C108F4E0C083
:103090008230A1F60E94600EC0904601D090470198
:1030A000E0904801F0904901DC01CB018C199D09A9
:1030B000AE09BF09B7FD39C10297A105B1050CF4EE
:1030C00018C1609132017091330180913401909167
:1030D00035010E94DF204B015C010E94600E2B0134
:1030E0003C0120E030E040E05FE3C501B4010E9414
:1030F0002C204B015C01C701B601641975098609D2
:1031000097090E949B1F9B01AC01C501B4010E945D
:10311000F11E9B01AC0160913201709133018091ED
:103120003401909135010E94841E40C0C09032014C
:10313000D0903301E0903401F0903501C092360117
:10314000D0923701E0923801F092390180902E013F
:1031500090902F01A0903001B0903101A501940111
:10316000C701B6010E94841E9B01AC010E942C2065
:1031700020911101309112014091130150911401DD
:103180000E942C200E94631F1616170618061906A7
:103190000CF084C020913A0130913B0140913C01F8
:1031A00050913D01C701B6010E94851E6093320116
:1031B00070933301809334019093350120912A015B
:1031C00030912B0140912C0150912D010E94851EC0
:1031D00060932A0170932B0180932C0190932D0111
:1031E0000E94631F60936A0170936B0180936C016E
:1031F00090936D0123CF20913201309133014091A2
:1032000034015091350160912A0170912B01809118
:103210002C0190912D010E94851E60932A017093CC
:103220002B0180932C0190932D010E94631F6093CA
:103230006A0170936B0180936C0190936D01FECED7
:1032400084E193E00E94321C8FEF80935301D3CE30
:1032500020912E0130912F01409130015091310188
:10326000C701B6010E94841E9B01AC010E942C2064
:1032700020911101309112014091130150911401DC
:103280000E942C200E94631F1616170618061906A6
:103290000CF480CF81E080935201D0CE82E0809305
:1032A00010018092320190923301A0923401B092C9
:1032B0003501C4CE0E94600EC0904201D0904301FF
:1032C000E0904401F0904501DC01CB018C199D098F
:1032D000AE09BF09B7FD31C00297A105B1050CF1D8
:1032E00020912E0130912F014091300150913101F8
:1032F0008ACFC701B6010E949B1F60932A01709379
:103300002B0180932C0190932D01C0926A01D092E1
:103310006B01E0926C01F0926D0181E080931001ED
:103320008DCE82E08093520189CEB095A095909584
:1033300081959F4FAF4FBF4FBFCEB095A095909551
:1033400081959F4FAF4FBF4FC7CFCF93DF9380E0A3
:1033500090E00E94E522C0E1D1E08D8380E190E021
:103360000E94F322909355018093540180E290E0F3
:103370000E94F322909357018093560180E390E0DE
:103380000E94F322909359018093580180E490E0C9
:103390000E94F32298878F8380E590E00E94F322B9
:1033A0009A87898780E890E00E94E5228E8380EAF0
:1033B00090E00E94ED226B877C878D879E8780E955
:1033C00090E00E94ED226F87788B898B9A8B80E644
:1033D00090E00E94ED226AAF7BAF8CAF9DAF80E79B
:1033E00090E00E94ED2260934E0170934F01809314
:1033F00050019093510180EB90E00E94E5228B8B6D
:1034000080EC90E00E94E5228C8B80ED90E00E94A1
:10341000ED226D8B7E8B8F8B988F80EE90E00E94DB
:10342000E522898FDF91CF91089514B885B1886323
:1034300085B917B888B1806388B98EE38AB981EC01
:103440008BB90E94891380E00E94F913F89487EBEE
:1034500097E10E9484130E941E0E0E941D0FF89493
:103460000E94A519E0E1F1E01092740110925A0156
:1034700010925B0110925C0110925D0110925E014E
:1034800010925F011092600110926101109262012E
:1034900010926301109264011092650110926A010A
:1034A00010926B0110926C0110926D018FEC93E100
:1034B000909371018093700180E69EE09093730178
:1034C0008093720185899689A789B08D8093660162
:1034D00090936701A0936801B093690112A213A2AF
:1034E00014A215A210820E94801A0E940E01F89464
:1034F00080E00E943F0187E00E9446017894089591
:1035000089E293E00E94BF0F8CE193E00E94BF0F1D
:103510000E94261C86E193E00C94321CEF92FF92ED
:103520000F931F93CF93DF938C017B01D0E0F801C1
:10353000828193810E942B1081111BC0F80182812E
:1035400093810E94CC0FC82F8132E0F4F801818171
:10355000882311F1843058F760E46C0F89E293E01E
:103560000E940910F801828193810E942B10882308
:1035700029F3D1111CC0DF91CF911F910F91FF90C2
:10358000EF90089560E3680F89E293E00E940910CC
:10359000C23269F6DFEFCBCF60E26C0F89E293E0D5
:1035A0000E940910C151C23010F6DFEFC0CF49E2CE
:1035B00053E0B701C801DF91CF911F910F91FF90A8
:1035C000EF900C94711584EA91E00E942B10811108
:1035D00016C084EA91E00E94CC0F8530B0F0909143
:1035E000240160E1680F91110BC08CE193E00E940F
:1035F000091084EA91E00E942B10882351F308956A
:1036000089E293E00E940910DECF60E1680F89E251
:1036100093E00E940910D7CFFF920F931F93CF938F
:10362000DF93EC018B0185E0F82E8A819B810E945B
:103630002B10811115C08A819B810E94CC0F99812A
:103640009923F9F0943088F760E4680F89E293E0F9
:103650000E9409108A819B810E942B10882359F3B4
:1036600049E253E0B801CE010E947115811103C0F7
:10367000FA94F110DACFDF91CF911F910F91FF9063
:103680000895833051F48091240163E28111DECFEB
:103690008CE193E00E940910C8CF60E2680F89E2D4
:1036A00093E00E940910C1CF8F929F92AF92BF9278
:1036B000CF92DF92EF92FF920F931F930FB60F926C
:1036C000F894C0901803D0901903E0901A03F0907A
:1036D0001B030E94600E609318037093190380937C
:1036E0001A0390931B0300916A0110916B012091C2
:1036F0006C0130916D010F900FBEDC01CB01801B7E
:10370000910BA20BB30B4C015D0147EC840E911C95
:10371000A11CB11C4FE8841641E09406A104B10439
:1037200028F1B7FD2DC0C01AD10AE20AF30AF7FC4E
:1037300034C08C159D05AE05BF0564F480E01F9173
:103740000F91FF90EF90DF90CF90BF90AF909F9040
:103750008F90089560ED77E086E193E00E943F1C32
:1037600091E0882349F0892F8195E9CF86E193E0A4
:103770000E94321C80E0E3CF90E0892F8195DFCF5B
:10378000B095A095909581959F4FAF4FBF4FC01AB0
:10379000D10AE20AF30AF7FECCCFF094E094D09479
:1037A000C094C11CD11CE11CF11CC3CF0FB60F92F9
:1037B000F8940F900FBE80911001811101C00895FF
:1037C0000E94541B81111BC00E94930F81110DC0D8
:1037D0000E94A90F882399F380E090E00E94D80806
:1037E00063E089E293E00C94091080E090E00E948D
:1037F000D80862E089E293E00E940910E9CF80E0F6
:1038000090E00E94D80861E089E293E00E940910EC
:10381000DBCF229A239A2498259A2D9A2A9A1CBCA7
:103820008CB580618CBD8CB582608CBD8CB584609C
:103830008CBD8DB581608DBD8CB580648CBD0895C7
:103840008EBD0DB407FEFDCF8EB5089588ED809333
:1038500060000FB60F92F8948FEF809336030F90AD
:103860000FBE08950FB60F92F8942091390330914E
:103870003A03FC01318320830F900FBE08950FB6E9
:103880000F92F8942091390330913A030F900FBEB4
:10389000FC01808191812817390710F421503109EA
:1038A000281B390B81E02617370708F480E0819543
:1038B00008951F920F920FB60F9211242F933F93EA
:1038C0008F939F938091390390913A034096909300
:1038D0003A038093390380913703909138034096DF
:1038E0009093380380933703209137033091380346
:1038F0008091790190917A018217930720F4809149
:103900003603811105C0809160008065809360005E
:103910009F918F913F912F910F900FBE0F901F900D
:1039200018951092C20060E284E593E00E943C0288
:10393000882339F060E28CE493E00E943C0281111C
:1039400007C061E08BE393E00E94091080E00895D6
:103950008BE393E00E94BF0F0E94261C8091C00061
:1039600082608093C0008091C0008E7F8093C000F1
:103970008091C2008F738093C2001092C50084E1D1
:103980008093C4008091C20086608093C2008091C1
:10399000C1008B7F8093C1008091C2008F7C809397
:1039A000C2008091C2008F778093C2008091C100D5
:1039B00080698093C1008091C100877F8093C1009E
:1039C00051988091C00087FF06C08091C600809109
:1039D000C00087FDFACF84E593E00E942C02789422
:1039E0008FEF08959B01AC0160EA75E286E290E0FA
:1039F0000E944021DA01C9010297A109B1098F3F54
:103A00009F4FA105B10510F080E00895BA01A9010A
:103A10004150510961097109BB27A72F962F852FA6
:103A20008093C5004093C4008FEF08952FEF20933B
:103A30004B0390934A038093490360934803FC012E
:103A4000429121E030E001C0220F6A95EAF7342F5D
:103A5000322B3083FC013081209523232083E1EC3D
:103A6000F0E080818064808308951F93CF93DF937B
:103A700000D0CDB7DEB7182FCE0101960E94321CC0
:103A80000AC060917B0170917C01CE0101960E9479
:103A90003F1C811116C08CE493E00E942302811127
:103AA000F0CF612F8CE493E00E94BC0280914D0323
:103AB000813099F08FEF0F900F90DF91CF911F9190
:103AC000089567E08BE393E00E94091080E00F9077
:103AD0000F90DF91CF911F9108958091C100806276
:103AE0008093C1008FEF0F900F90DF91CF911F91C6
:103AF0000895CF93DF93EC018BE393E00E942B10AA
:103B0000811104C080E0DF91CF91089584E593E0B6
:103B10000E941C028111F6CF84E593E00E947F028F
:103B200088838FEFF0CF0F931F93CF93DF9366239C
:103B3000B1F0EC016150062F10E00F5F1F4F080F2E
:103B4000191F03C0C017D10751F089910E94351D7C
:103B50008111F8CFDF91CF911F910F9108958FEFD1
:103B6000DF91CF911F910F9108951F920F920FB681
:103B70000F9211242F933F934F935F936F937F93F3
:103B80008F939F93AF93BF93CF93EF93FF938091C6
:103B9000C00084FD39C08091C00082FD2FC080919B
:103BA000C00083FD25C0C091C60084E593E00E945B
:103BB00023028823B9F065E08BE393E00E94EE0FC7
:103BC000FF91EF91CF91BF91AF919F918F917F9195
:103BD0006F915F914F913F912F910F900FBE0F907A
:103BE0001F9018956C2F84E593E00E94A102E8CF06
:103BF00066E08BE393E00E94EE0FD5CF64E08BE3A9
:103C000093E00E94EE0FCBCF63E08BE393E00E9442
:103C1000EE0FC1CF1F920F920FB60F9211242F9368
:103C20003F934F935F936F937F938F939F93AF9344
:103C3000BF93EF93FF938CE493E00E941C028111E9
:103C40002FC08091C10088608093C10080914B0398
:103C5000882379F030914803E0914903F0914A03B9
:103C6000208181E090E001C0880F3A95EAF7822B2D
:103C700080838CE493E00E9464028093C600FF91ED
:103C8000EF91BF91AF919F918F917F916F915F91D4
:103C90004F913F912F910F900FBE0F901F9018954D
:103CA0008091C1008F7D8093C100E9CF1F920F9258
:103CB0000FB60F9211242F933F938F939F93EF93FF
:103CC000FF93E1ECF0E08081877F80835198309111
:103CD0004803E0914903F0914A03208181E090E09C
:103CE00002C0880F991F3A95E2F78095909582233C
:103CF0008083FF91EF919F918F913F912F910F9032
:103D00000FBE0F901F9018955058BB27AA270E94EE
:103D10009C1E0C94ED1F0E94DF1F38F00E94E61FCE
:103D200020F039F49F3F19F426F40C94DC1F0EF4B4
:103D3000E095E7FB0C94D61FE92F0E94FE1F58F375
:103D4000BA17620773078407950720F079F4A6F580
:103D50000C9420200EF4E0950B2EBA2FA02D0B0111
:103D6000B90190010C01CA01A0011124FF27591BC0
:103D700099F0593F50F4503E68F11A16F040A22FC6
:103D8000232F342F4427585FF3CF46953795279537
:103D9000A795F0405395C9F77EF41F16BA0B620B36
:103DA000730B840BBAF09150A1F0FF0FBB1F661F7D
:103DB000771F881FC2F70EC0BA0F621F731F841FC0
:103DC00048F4879577956795B795F7959E3F08F0E6
:103DD000B0CF9395880F08F09927EE0F97958795A8
:103DE00008950E94051F0C94ED1F0E94E61F58F0D5
:103DF0000E94DF1F40F029F45F3F29F00C94D61F8A
:103E000051110C9421200C94DC1F0E94FE1F68F3BA
:103E10009923B1F3552391F3951B550BBB27AA2783
:103E200062177307840738F09F5F5F4F220F331FBD
:103E3000441FAA1FA9F335D00E2E3AF0E0E832D085
:103E400091505040E695001CCAF72BD0FE2F29D088
:103E5000660F771F881FBB1F261737074807AB075A
:103E6000B0E809F0BB0B802DBF01FF2793585F4FCF
:103E70003AF09E3F510578F00C94D61F0C94212007
:103E80005F3FE4F3983ED4F3869577956795B795B1
:103E9000F7959F5FC9F7880F911D9695879597F9BC
:103EA0000895E1E0660F771F881FBB1F6217730735
:103EB0008407BA0720F0621B730B840BBA0BEE1F4A
:103EC00088F7E09508950E946A1F6894B1110C94D8
:103ED000212008950E94062088F09F5798F0B92F5E
:103EE0009927B751B0F0E1F0660F771F881F991F2F
:103EF0001AF0BA95C9F714C0B13091F00E94202091
:103F0000B1E008950C942020672F782F8827B85FA0
:103F100039F0B93FCCF3869577956795B395D9F786
:103F20003EF490958095709561957F4F8F4F9F4F90
:103F30000895E89409C097FB3EF49095809570959C
:103F400061957F4F8F4F9F4F9923A9F0F92F96E9E5
:103F5000BB279395F695879577956795B795F1115A
:103F6000F8CFFAF4BB0F11F460FF1BC06F5F7F4FF7
:103F70008F4F9F4F16C0882311F096E911C0772309
:103F800021F09EE8872F762F05C0662371F096E812
:103F9000862F70E060E02AF09A95660F771F881FE1
:103FA000DAF7880F9695879597F9089597F99F679F
:103FB00080E870E060E008959FEF80EC08950024B1
:103FC0000A941616170618060906089500240A947E
:103FD00012161306140605060895092E0394000C04
:103FE00011F4882352F0BB0F40F4BF2B11F460FF93
:103FF00004C06F5F7F4F8F4F9F4F089557FD9058BC
:10400000440F551F59F05F3F71F04795880F97FB9C
:10401000991F61F09F3F79F0879508951216130656
:104020001406551FF2CF4695F1DF08C01616170685
:104030001806991FF1CF86957105610508940895BA
:10404000E894BB2766277727CB0197F908950E944C
:10405000E32008F48FEF08950E943F200C94ED1F99
:104060000E94DF1F38F00E94E61F20F0952311F018
:104070000C94D61F0C94DC1F11240C9421200E9458
:10408000FE1F70F3959FC1F3950F50E0551F629F7F
:10409000F001729FBB27F00DB11D639FAA27F00DA1
:1040A000B11DAA1F649F6627B00DA11D661F829FC8
:1040B0002227B00DA11D621F739FB00DA11D621FAD
:1040C000839FA00D611D221F749F3327A00D611DCA
:1040D000231F849F600D211D822F762F6A2F1124AC
:1040E0009F5750409AF0F1F088234AF0EE0FFF1FDF
:1040F000BB1F661F771F881F91505040A9F79E3F36
:10410000510580F00C94D61F0C9421205F3FE4F3FE
:10411000983ED4F3869577956795B795F795E7958B
:104120009F5FC1F7FE2B880F911D9695879597F994
:10413000089519F416F40C94DC1F0C9407210E94C6
:104140000620B8F39923C9F3B6F39F57550B87FFA1
:104150000E9415210024A0E640EA9001805856955F
:10416000979528F4805C660F771F881F20F026172C
:104170003707480730F4621B730B840B2029312961
:104180004A2BA69517940794202531254A2758F7DE
:10419000660F771F881F20F026173707480730F46F
:1041A000620B730B840B200D311D411DA09581F70F
:1041B000B901842F9158880F9695879508959B0192
:1041C000AC010C942C20990F0008550FAA0BE0E8C5
:1041D000FEEF16161706E807F907C0F012161306C9
:1041E000E407F50798F0621B730B840B950B39F409
:1041F0000A2661F0232B242B252B21F408950A266F
:1042000009F4A140A6958FEF811D811D08959F3F60
:1042100031F0915020F4879577956795B795880F81
:10422000911D9695879597F9089591505040660F86
:10423000771F881FD2F70895DB018F939F930E9409
:104240008721BF91AF91A29F800D911DA39F900DDB
:10425000B29F900D11240895AA1BBB1B51E107C00A
:10426000AA1FBB1FA617B70710F0A61BB70B881F06
:10427000991F5A95A9F780959095BC01CD01089595
:10428000A1E21A2EAA1BBB1BFD010DC0AA1FBB1F5A
:10429000EE1FFF1FA217B307E407F50720F0A21BCC
:1042A000B30BE40BF50B661F771F881F991F1A9439
:1042B00069F760957095809590959B01AC01BD0163
:1042C000CF010895052E97FB1EF400940E947921DA
:1042D00057FD07D00E94402107FC03D04EF40C94F8
:1042E000792150954095309521953F4F4F4F5F4F25
:1042F000089590958095709561957F4F8F4F9F4F52
:104300000895EE0FFF1F0590F491E02D09940E948F
:104310009221A59F900DB49F900DA49F800D911D9B
:1043200011240895A29FB001B39FC001A39F700DF7
:10433000811D1124911DB29F700D811D1124911DAD
:1043400008950F931F93CF93DF93869F8001879FDC
:10435000100D969F100D1124C8010E94BD21EC0183
:10436000009729F0A80160E070E00E94DE22CE01F3
:10437000DF91CF911F910F9108950F931F93CF93CA
:10438000DF938230910510F482E090E0E0915E03CB
:10439000F0915F0320E030E0A0E0B0E0309719F149
:1043A000408151810281138148175907C8F0841751
:1043B000950769F4109731F012960C9312971396A3
:1043C0001C9327C000935E0310935F0322C0211546
:1043D000310519F04217530718F49A01BD01EF0196
:1043E000DF01F801DBCF21153105F9F0281B390B6E
:1043F0002430310580F48A819B816115710521F09B
:10440000FB019383828304C090935F0380935E03D8
:10441000FE01329644C0FE01E20FF31F8193919397
:1044200022503109398328833AC020915C033091AE
:104430005D03232B41F4209102013091030130935D
:104440005D0320935C03209100013091010121154F
:10445000310541F42DB73EB740910401509105015B
:10446000241B350BE0915C03F0915D03E217F30729
:10447000A0F42E1B3F0B2817390778F0AC014E5FD4
:104480005F4F2417350748F04E0F5F1F50935D03B1
:1044900040935C038193919302C0E0E0F0E0CF0190
:1044A000DF91CF911F910F910895CF93DF930097E4
:1044B00009F481C0FC01329713821282A0915E033D
:1044C000B0915F03109781F420813181820F931F97
:1044D00020915C0330915D032817390751F5F09363
:1044E0005D03E0935C0367C0ED0120E030E0CE1790
:1044F000DF0740F44A815B819E0141155105F1F0CF
:10450000EA01F5CFD383C28340815181840F951F87
:10451000C817D90759F488819981840F951F02968D
:10452000918380838A819B819383828321153105C6
:1045300029F4F0935F03E0935E033DC0E901FB8340
:10454000EA8349915991C40FD51FEC17FD0761F417
:1045500080819181840F951F0296E9019983888358
:10456000828193819B838A83E0E0F0E012968D91B3
:104570009C911397009719F0FD01DC01F7CF8D9105
:104580009C9111979D012E5F3F4F820F931F2091A9
:104590005C0330915D032817390769F4309729F4DB
:1045A00010925F0310925E0302C013821282B093D6
:1045B0005D03A0935C03DF91CF910895DC0101C0FE
:1045C0006D9341505040E0F70895F999FECF92BDA8
:1045D00081BDF89A992780B50895A6E1B0E044E03E
:1045E00050E00C941623A8E1B0E042E050E00C94B7
:1045F0001623262FF999FECF1FBA92BD81BD20BD8B
:104600000FB6F894FA9AF99A0FBE01960895242FDE
:104610000E94FA22252F0E94FA220C940F230E9456
:10462000F922272F0C94FA22DC01CB01FC01F99925
:10463000FECF06C0F2BDE1BDF89A319600B40D92EE
:0C46400041505040B8F70895F894FFCFA7
:10464C0000006003200001E803E803DB023B03FFEA
:10465C00000000000000000000000000000000004E
:10466C00000000000000000000000000000000003E
:10467C00000000000000000000000000000000002E
:10468C00000000000000000000000000000000001E
:10469C00000000000000000000000000000000000E
:1046AC0000000000000000000000000000004914A1
:0E46BC00000000000000000000FFFFE8030007
:00000001FF
