:100000000C9434000C9451000C9451000C94510049
:100010000C9451000C9451000C9401030C94510069
:100020000C9451000C9451000C94A8010C945100B4
:100030000C9451000C9441020C9451000C9451000A
:100040000C946A020C9451000C9439030C948E03A6
:100050000C94DA030C9456000C9451000C9451004B
:100060000C9478010C94510011241FBECFEFD8E0FE
:10007000DEBFCDBF11E0A0E0B1E0E8E7FBE002C0E9
:1000800005900D92A230B107D9F721E0A2E0B1E0CE
:1000900001C01D92A03AB207E1F70E9453000C94F0
:1000A000BA050C9400000E94A202FFCF1F920F928B
:1000B0000FB60F921124CF92DF92EF92FF922F93FF
:1000C0003F934F935F936F937F938F939F93AF93E0
:1000D000BF93CF93DF93EF93FF93E0912701F0E07D
:1000E0008091780090E0EE0FFF1FEF5EFE4F91834E
:1000F000808320917900E0912701F0E0EE0FFF1F4F
:10010000EF5EFE4F80819181922B9183808380915D
:100110002701873009F445C0809127018F5F8093C4
:100120002701809127018B3010F010922701E09178
:100130002701F0E0EA5FFE4F8081882369F3809118
:100140002701893028F190917C0080912701907FD0
:100150008B5F892B80937C0080917A0080658093EF
:100160007A00FF91EF91DF91CF91BF91AF919F9175
:100170008F917F916F915F914F913F912F91FF9060
:10018000EF90DF90CF900F900FBE0F901F901895BB
:1001900080917C0090912701807F892B80937C0047
:1001A000DBCF80910401909105019093030180932E
:1001B0000201E0912701F0E0EE0FFF1FEF5EFE4F1E
:1001C00060817181C0910201D091030180E090E0D3
:1001D0000E94A40420E030E040E05EE30E9432058B
:1001E0006B017C01BE0180E090E00E94A40420E04D
:1001F00030E040E65FE30E9432059B01AC01C7019D
:10020000B6010E9409040E94750470930501609371
:100210000401E0912701F0E0809104019091050133
:10022000EE0FFF1FEF5EFE4F9183808375CFFC01C1
:10023000918181E0911180E081950895FC012181F7
:10024000908181E0291708F480E081950895FC01F0
:10025000818181508183A481B581CD0101969583EF
:1002600084838C9144815581268137819081290F27
:10027000311D4217530709F00895268137813583D0
:1002800024830895FC0181818F5F8183A281B381E2
:10029000CD010196938382836C9322813381868181
:1002A00097814081840F911D2817390709F008951F
:1002B00086819781938382830895FC0180818830B1
:1002C00018F480818F5F8083A181B2816C938181DA
:1002D000928101969283818321813281CF010D9693
:1002E0002817390709F008950897928381830895A4
:1002F0001F920F920FB60F9211242F933F934F939B
:100300005F936F937F938F939F93AF93BF93EF937D
:10031000FF93E091B900E695E695E695F0E0EE0FE3
:10032000FF1FE85DFE4F0190F081E02D0995FF91E0
:10033000EF91BF91AF919F918F917F916F915F915D
:100340004F913F912F910F900FBE0F901F901895D6
:100350001F920F920FB60F9211242F933F934F933A
:100360005F936F937F938F939F93AF93BF93EF931D
:10037000FF93209186003091870083B190917501A1
:100380008170891709F45EC03093700120936F016A
:1003900080916F01909170012091710130917201F3
:1003A000821B930B909374018093730180916E0173
:1003B000815080936E0180917501813009F455C0A0
:1003C000809181008F7B8093810010928500109234
:1003D000840080916E018823F1F010926E011092DA
:1003E000740110927301E0916801F09169013097F6
:1003F00009F00995FF91EF91BF91AF919F918F9176
:100400007F916F915F914F913F912F910F900FBE10
:100410000F901F9018952091710130917201809179
:100420006F019091700182179307B8F2E0916C010F
:10043000F0916D013097F1F2809173019091740108
:100440000995D8CF30937201209371018091750185
:10045000813089F080918100806480938100809157
:100460006E018F5F80936E01C5CF809181008064A3
:1004700080938100AACF809181008F7B809381003F
:10048000EECF1F920F920FB60F9211242F933F932E
:100490004F935F936F937F938F939F93AF93BF938C
:1004A000EF93FF93E0916A01F0916B01309709F0AF
:1004B0000995FF91EF91BF91AF919F918F917F919E
:1004C0006F915F914F913F912F910F900FBE0F90C1
:1004D0001F9018951F920F920FB60F9211242F9311
:1004E0003F934F935F936F937F938F939F93AF93BC
:1004F000BF93EF93FF9380917801909179019C01D4
:100500002F5F3F4F3093790120937801099748F08E
:10051000E0917601F091770109951092790110929E
:100520007801FF91EF91BF91AF919F918F917F9152
:100530006F915F914F913F912F910F900FBE0F9050
:100540001F90189565E080E090E00E949F0560EAAA
:100550007FE080E190E00E94B50564E670E080E213
:1005600090E00E94B50568EE73E080E390E00E94A1
:10057000B50568E873E180E490E00E94B50568E89D
:1005800073E180E590E00E94B50560E080E890E0CE
:100590000E949F0540E051EE60E070E080EA90E04C
:1005A0000E94AD0540EA56E861E070E080E990E025
:1005B0000E94AD0540E253E060E070E080E690E02C
:1005C0000E94AD0540E253E060E070E080E790E01B
:1005D0000E94AD056FEF80EB90E00E949F0560E008
:1005E00080EC90E00E949F0541E550E160E070E002
:1005F00080ED90E00E94AD0560E080EE90E00C940C
:100600009F051F920F920FB60F9211242F933F93C5
:100610008F939F9380917D0190917E01409690935E
:100620007E0180937D0180917B0190917C014096B9
:1006300090937C0180937B0120917B0130917C0120
:1006400080910001909101018217930720F480911D
:100650007A01811105C080916000806580936000FF
:100660009F918F913F912F910F900FBE0F901F90F0
:1006700018951F920F920FB60F9211242F933F934C
:100680004F935F936F937F938F939F93AF93BF939A
:10069000CF93EF93FF938091C00084FD39C0809188
:1006A000C00082FD2FC08091C00083FD25C0C09195
:1006B000C60088E991E00E941E018823B9F065E038
:1006C0008FE791E00E945D01FF91EF91CF91BF9183
:1006D000AF919F918F917F916F915F914F913F91DA
:1006E0002F910F900FBE0F901F9018956C2F88E9D7
:1006F00091E00E944201E8CF66E08FE791E00E941E
:100700005D01D5CF64E08FE791E00E945D01CBCF22
:1007100063E08FE791E00E945D01C1CF1F920F92CD
:100720000FB60F9211242F933F934F935F936F93C4
:100730007F938F939F93AF93BF93EF93FF9380E942
:1007400091E00E94170181112FC08091C100886043
:100750008093C10080918F01882379F030918C01C2
:10076000E0918D01F0918E01208181E090E001C047
:10077000880F3A95EAF7822B808380E991E00E9406
:1007800027018093C600FF91EF91BF91AF919F9198
:100790008F917F916F915F914F913F912F910F902A
:1007A0000FBE0F901F9018958091C1008F7D809390
:1007B000C100E9CF1F920F920FB60F9211242F9311
:1007C0003F938F939F93EF93FF93E1ECF0E0808151
:1007D000877F8083519830918C01E0918D01F09159
:1007E0008E01208181E090E002C0880F991F3A9528
:1007F000E2F78095909582238083FF91EF919F91FE
:100800008F913F912F910F900FBE0F901F901895D1
:100810005058BB27AA270E9420040C94F8040E9479
:10082000EA0438F00E94F10420F039F49F3F19F4F3
:1008300026F40C94E7040EF4E095E7FB0C94E10435
:10084000E92F0E94090558F3BA1762077307840756
:10085000950720F079F4A6F50C942B050EF4E0959D
:100860000B2EBA2FA02D0B01B90190010C01CA016A
:10087000A0011124FF27591B99F0593F50F4503E15
:1008800068F11A16F040A22F232F342F4427585F07
:10089000F3CF469537952795A795F0405395C9F71F
:1008A0007EF41F16BA0B620B730B840BBAF09150D7
:1008B000A1F0FF0FBB1F661F771F881FC2F70EC076
:1008C000BA0F621F731F841F48F487957795679549
:1008D000B795F7959E3F08F0B0CF9395880F08F035
:1008E0009927EE0F9795879508950E94110588F036
:1008F0009F5798F0B92F9927B751B0F0E1F0660FE4
:10090000771F881F991F1AF0BA95C9F714C0B13024
:1009100091F00E942B05B1E008950C942B05672FF0
:10092000782F8827B85F39F0B93FCCF38695779553
:100930006795B395D9F73EF490958095709561953C
:100940007F4F8F4F9F4F0895E89409C097FB3EF467
:1009500090958095709561957F4F8F4F9F4F99230C
:10096000A9F0F92F96E9BB279395F695879577958A
:100970006795B795F111F8CFFAF4BB0F11F460FF4A
:100980001BC06F5F7F4F8F4F9F4F16C0882311F0A2
:1009900096E911C0772321F09EE8872F762F05C0B6
:1009A000662371F096E8862F70E060E02AF09A9551
:1009B000660F771F881FDAF7880F9695879597F946
:1009C000089597F99F6780E870E060E008959FEFD1
:1009D00080EC089500240A941616170618060906D6
:1009E000089500240A9412161306140605060895A5
:1009F000092E0394000C11F4882352F0BB0F40F42D
:100A0000BF2B11F460FF04C06F5F7F4F8F4F9F4F6C
:100A1000089557FD9058440F551F59F05F3F71F0EE
:100A20004795880F97FB991F61F09F3F79F0879555
:100A30000895121613061406551FF2CF4695F1DFDE
:100A400008C0161617061806991FF1CF869571056E
:100A5000610508940895E894BB2766277727CB01A2
:100A600097F908950E9445050C94F8040E94EA0441
:100A700038F00E94F10420F0952311F00C94E10469
:100A80000C94E70411240C942C050E94090570F3C2
:100A9000959FC1F3950F50E0551F629FF001729F23
:100AA000BB27F00DB11D639FAA27F00DB11DAA1F32
:100AB000649F6627B00DA11D661F829F2227B00D7F
:100AC000A11D621F739FB00DA11D621F839FA00D0A
:100AD000611D221F749F3327A00D611D231F849F5A
:100AE000600D211D822F762F6A2F11249F575040B1
:100AF0009AF0F1F088234AF0EE0FFF1FBB1F661F2C
:100B0000771F881F91505040A9F79E3F510580F0F4
:100B10000C94E1040C942C055F3FE4F3983ED4F36D
:100B2000869577956795B795F795E7959F5FC1F798
:100B3000FE2B880F911D9695879597F90895262F7E
:100B4000F999FECF1FBA92BD81BD20BD0FB6F894B2
:100B5000FA9AF99A0FBE01960895242F0E94A005D3
:100B6000252F0E94A0050C94B5050E949F05272FF4
:080B70000C94A005F894FFCFDE
:020B7800FFFF7D
:00000001FF
